:020000040800F2
:10000000200D00209D01000879380008972C000879
:10001000B1370008D1080008914300080000000033
:10002000000000000000000000000000533A00083B
:100030006909000800000000513A0008553A00081C
:10004000B7010008B7010008B7010008B7010008B0
:10005000B7010008B7010008B7010008B7010008A0
:10006000B7010008B7010008B7010008B701000890
:10007000B7010008B7010008B7010008B701000880
:10008000B7010008B7010008B7010008B701000870
:10009000B7010008B7010008B7010008B701000860
:1000A000B7010008B7010008B7010008B701000850
:1000B000FD3A0008093B0008153B0008B70100089D
:1000C000B7010008B7010008B7010008B701000830
:1000D000B701000839420008794300088543000849
:1000E000B7010008B7010008B7010008B701000810
:1000F000B7010008B7010008B7010008B701000800
:10010000B7010008B7010008B7010008B7010008EF
:10011000C13E0008593F0008B7010008213B000814
:10012000B7010008B7010008D5080008B7010008AA
:10013000B7010008B7010008B7010008B7010008BF
:10014000B7010008B7010008B7010008B7010008AF
:10015000B7010008B7010008E1080008B70100086E
:10016000B7010008B7010008B7010008B70100088F
:10017000B7010008B7010008B7010008000000003F
:10018000B7010008B7010008DFF80CD000F05CFAF6
:10019000004800476D4D0008200D002006488047AC
:1001A00006480047FEE7FEE7FEE7FEE7FEE7FEE75C
:1001B000FEE7FEE7FEE7FEE7ED3A000889010008EA
:1001C0002DE9F05F0546002092469B46884606468C
:1001D000814640241BE0284641464746224600F01F
:1001E0006AF853465A46C01A914110D31146184630
:1001F000224600F051F82D1A67EB01084F462246BF
:100200000120002100F048F817EB00094E41201EA4
:10021000A4F10104DFDC484631462A464346BDE8E6
:10022000F09FD2B201E000F8012B491EFBD27047CB
:100230000022F6E710B513460A4604461946FFF7B2
:10024000F0FF204610BD00F0004230F000400AD020
:10025000C10D01F56071C0F3160042EA0151C208F8
:1002600040071143704700200146704730B50B46E8
:10027000014600202022012409E021FA02F59D42D6
:1002800005D303FA02F5491B04FA02F52844151EAA
:10029000A2F10102F1DC30BD202A04DB203A00FA91
:1002A00002F1002070479140C2F1200320FA03F3CD
:1002B000194390407047202A04DB203A21FA02F0CB
:1002C0000021704721FA02F3D040C2F12002914090
:1002D0000843194670472DE9FE4F804681EA030026
:1002E000C00F0C46009021F0004123F00045B8EB10
:1002F0000200A94105D24046214690461C460B46C5
:10030000024623F00040104347D0270DC7F30A00F0
:10031000C3F30A510290401A019040286BDAC3F3EC
:10032000130040F4801B0098924620B10023D2EBCA
:10033000030A63EB0B0B01985946C0F1400250468B
:10034000FFF7AAFF06460D4650465946019A00F0AF
:100350008DF910EB08006141002487EA115284EA0C
:10036000E7731A4340D0009A62B3019A012A4FEA18
:10037000075215DC001B61EB02014FF0004202EA5C
:100380000752CDE90042001C41F5801132462B4650
:1003900000F08DF903B0BDE8F08F40462146F9E743
:1003A000001B61EB0201001C41F5801300185B414A
:1003B0002018A2F5001747EB030140EAD570B619E3
:1003C0006D4111E06D084FEA360645EAC0754FEA07
:1003D0000752001B61EB0201001C41F58011490826
:1003E0004FEA30000019514132462B4603B0BDE8B8
:1003F000F04F00F04DB90098012240000023D0EBEF
:10040000020263EBE073009821464FEAE074B8EB18
:10041000000061EB0401E9E783F000435BE781F052
:10042000004158E72DE9FE4F81EA030404F000443F
:1004300021F0004100944FF0000B23F0004350EAFC
:1004400001045ED052EA03045BD0C3F30A54C1F343
:100450000A552C44A4F2F3340194A0FB0254C1F3D6
:10046000130141F48011C3F3130343F4801301FB20
:10047000024400FB034E840A970A44EA815447EA87
:100480008357A4FB076802958D0A05FB07854FEA91
:10049000932C04FB0C542705029D4FEA065847EAAB
:1004A0001637B5EB08056EEB070C870E920E47EA80
:1004B000811742EA8312A7FB0201B6EB0B0164EB42
:1004C00000042B0D43EA0C335E1844EB1C50DA4653
:1004D0005146E7FB0201C5F313044FEA0B3343EA2D
:1004E00014534FEA0432019C43EA0603A4F10C04BE
:1004F0000294009CCDE900B400F0D9F803B0BDE847
:10050000F08F00200146F9E72DE9F04D81EA030460
:1005100004F0004B21F0004514464FF0000A23F090
:10052000004150EA050220D054EA01021DD0C5F373
:100530000A570246C5F31303C1F31300C1F30A5669
:1005400040F4801543F48013A7EB0608101BD64631
:1005500008F2FD3873EB050002D308F1010801E051
:1005600092185B41B8F1000F03DA00200146BDE8A4
:10057000F08D00204FF48011064684460EE0171BD4
:1005800073EB050705D3121B63EB050306434CEA27
:10059000010C49084FEA300092185B4150EA01070C
:1005A000EDD152EA030012D082EA040083EA050189
:1005B000084305D0101BAB4106D20122002306E000
:1005C00000224FF0004302E06FF0010253101AEBDB
:1005D00006004CEB085110EB0A0041EB0B01BDE8A3
:1005E000F04D00F055B8C1F30A52C1F3130140F2C7
:1005F000FF3341F480119A4202DA0020014670472D
:1006000040F233439A42A2F2334202DC5242FFF7F5
:1006100052BEFFF741BE000030B5041E71F1000468
:1006200004DB4FF00044404264EB0101141E73F1FF
:10063000000405DB1C464FF00043524263EB040309
:10064000994208BF904230BD064C074D06E0E06875
:1006500040F0010394E8070098471034AC42F6D309
:10066000FFF796FD045C0008245C0008202A06DBE6
:10067000CB17203A41FA02F043EAE07306E041FA70
:1006800002F3D040C2F1200291400843194670475E
:1006900010B5141E73F1000408DA401C41F100018A
:1006A00092185B411A4301D120F0010010BD2DE9E1
:1006B000F04D92469B4611B1B1FA81F202E0B0FAD8
:1006C00080F220329046FFF7E7FD04460F4640EAED
:1006D0000A0041EA0B0153465A46084313D011461B
:1006E00053EA010019D0C8F140025046FFF7E3FD7C
:1006F00005460E46504659464246FFF7CDFD084393
:1007000005D0012004E020463946BDE8F08D0020E8
:10071000054346EAE0762C4337430A986305E40A2A
:10072000A0EB08000022FD0A44EA47540A3002D533
:1007300000200146E9E7010510196941DDE9084596
:1007400000196941BDE8F04DA2E7002800DC4042F5
:1007500070470000464910B54A6822F440324A60AA
:100760004A6843681A434A6001684A6822F4807202
:100770004A6001684A68036942EA03224A600168E4
:100780004A6822F040724A6001684A6883681A43E6
:100790004A6001688A6822F400628A6001688A6897
:1007A000C3681A438A60816A6FF07062D14201683F
:1007B0008A6822F070628A6001688A680CD0836A55
:1007C0001A438A6001688A6822F040528A60016890
:1007D0008A68C36A1A4301E022F040528A600168C5
:1007E0008A6822F002028A6001688A68037E42EA0F
:1007F00043028A6090F82010002901684A680FD0EF
:1008000042F400624A6001684A6822F460424A6029
:1008100001684A68174C436A04EB43331A4301E00A
:1008200022F400624A600168CA6A22F47002CA6255
:100830000168CA6A838B104C04EB03531A43CA62E3
:1008400001688A6822F400728A6001688A6890F8F8
:10085000303042EA43228A6001688A6822F480626A
:100860008A6001688A68406942EA8020886010BD19
:100870000023014000E0FFFF0000F0FF00B504F09E
:100880002DFA1048D0ED000A0F4820EE800AD0ED76
:10089000000A0E4800EEC10AD0ED020AB4EEE00AEA
:1008A000F1EE10FA06DCD0ED030AB4EEE00AF1EE48
:1008B00010FA01D2B0EE600ABDEEC00A10EE100AC6
:1008C00000BD0000E4000020E8000020200000201F
:1008D000FEE70000014800F0A7B900005C08002016
:1008E000014800F0A1B90000BC08002001681823ED
:1008F000CAB2103AB2FBF3F2054B6FF30901032AB7
:100900009B5CC36500D9091D8165084670470000DE
:10091000FC5B000810B5014600208B698A6A4FF025
:10092000C07453B1B3F5005F15D072B1012A0CD079
:10093000022A0AD0032A09D104E01AB1012A06D0FA
:10094000022A03D1C96AC90100D5012010BDC96AB4
:10095000A142FAD010BD002AF7D0012AF2D0022A13
:10096000F3D0032AF3D010BD704772B6FEE7000043
:1009700078B50024009490F83C20012A19D0012277
:1009800080F83C200A6807230568092A13D9EE6815
:100990000A3A02EB420293409E43EE600B788A686B
:1009A0000A3B03EB43039A400368DD682A43DA609D
:1009B00010E0022078BD2E6902EB420293409E4374
:1009C0002E610B788A6803EB43039A4003681D6924
:1009D0002A431A614A681F23072A13D205686E6BDF
:1009E000521E02EB820293409E436E630B790A888B
:1009F0005B1E92B203EB83039A4003685D6B2A434C
:100A00005A6327E005680D2A12D22E6BD21F02EB23
:100A1000820293409E432E630B790A88DB1F92B2B9
:100A200003EB83039A4003681D6B2A431A6311E0AA
:100A3000EE6A0D3A02EB820293409E43EE620B791E
:100A40000A880D3B92B203EB83039A400368DD6A88
:100A50002A43DA62164B0568144A9D4206D10D6896
:100A6000122D03D1556845F48005556005689D42F7
:100A700018D10B68102B01D0112B13D1536843F4FC
:100A800000035360096810290CD10A490A4A096811
:100A9000B1FBF2F101EB8101490000E0491E009138
:100AA0000029FBD180F83C40002078BD00230140A4
:100AB000002001401C00002040420F0070B50400DF
:100AC0004FF0000503D0206C002610B107E0012094
:100AD00070BD204600F01CF8666484F83C60206C11
:100AE000C00610D4206C20F4885040F0020020642E
:100AF0002046FFF72FFE6664206C20F0020040F0D5
:100B00000100206400E0012584F83C60284670BDA7
:100B100010B586B0044614216846FFF789FB1149D9
:100B2000206888421CD110480021026842F480628B
:100B30000260006800F4806005900B481438026879
:100B400042F001020260006800F0010005900F20F1
:100B500000900320CDE901016946044800F0B0F996
:100B600006B010BD0022014044380240000002409F
:100B70002DE9F0410446876D00F0A8FA064694F886
:100B800035000025022806D08020606584F83450A6
:100B90000120BDE8F0812068016821F016010160A4
:100BA0002068416921F080014161206C08B9A06C86
:100BB00020B12068016821F0080101602068016807
:100BC00021F0010101600CE000F080FA801B052893
:100BD00007D920206065032084F8350084F834505C
:100BE000D7E720680068C007EED194F85C103F207A
:100BF0008840B860012084F8350084F83450002023
:100C0000C7E790F83510022903D080214165012003
:100C10007047052180F835100068016821F0010156
:100C200001600020704700002DE9F84304464FF0B2
:100C30000009CDF8009063484FF41651A56D006887
:100C4000B0FBF1F72E6894F85C10082000FA01F16F
:100C500031420FD021680A6852070BD50A6822F08A
:100C600004020A6094F85C108840A860606D40F04F
:100C70000100606594F85C104FF0010808FA01F07B
:100C8000304208D021684969090604D5A860606D22
:100C900040F00200606594F85C1004208840304207
:100CA00008D021680968890704D5A860606D40F004
:100CB0000400606594F85C1010208840304218D021
:100CC00021680968090714D5A860206801684903EC
:100CD00004D50068000308D5A16C07E00168C905C8
:100CE00003D4016821F008010160216C09B120469C
:100CF000884794F85C1020208840304231D0216829
:100D00000968C9062DD5A86094F835000528206823
:100D1000016806D0490347D5006800031DD4616C03
:100D20001CE021F0160101602068416921F080017A
:100D30004161206C08B9A06C20B12068016821F0E5
:100D40000801016094F85C103F208840A86084F896
:100D5000358084F83490216D1FE0E16B09B12046A5
:100D60008847606D00282BD0606DC00714D0052027
:100D700084F835002068016821F0010101600098C5
:100D8000401C0090B84203D820680068C007F6D124
:100D900084F8358084F83490E16C002910D001B0DB
:100DA0002046BDE8F04308470168C905D5D401686D
:100DB00021F01001016084F8358084F83490CCE78C
:100DC000BDE8F8831C0000202DE9F041044600F046
:100DD0007DF906465CB1022084F83500002584F8D0
:100DE00034502068016821F0010101600DE001200C
:100DF000BDE8F08100F06AF9801B052805D92020A4
:100E00006065032084F83500F2E720680068C007B9
:100E1000F0D12268116820480140D4E90103184349
:100E2000D4E903363343184363691843A36918436D
:100E3000E3691843236A18430843616A042903D10C
:100E4000D4E90B1319430843106020684069666AAF
:100E500020F0070130460E43012704280CD1A06A78
:100E60000643E06A40B12046FFF754FD20B1402020
:100E7000606584F83570BAE7206846612046FFF760
:100E800035FD94F85C203F2191408160656584F8D0
:100E900035700020ACE700003F8010F070B50446CC
:100EA00000F014F90546601C02D0044800780444A0
:100EB00000F00CF9401BA042FAD370BD18010020CD
:100EC0002DE9F84FDFF8BCA10022012503264FF0E1
:100ED0000F090AF1040BAAF1040E00BF0B6805FA12
:100EE00002F42340A34270D10F7907F00307012FCA
:100EF00001D0022F16D187684FEA420806FA08FC93
:100F000027EA0C07D1F80CC00CFA08FC4CEA070CD5
:100F1000C0F808C04768A7430C79C4F30014944094
:100F20003C4344600C79E443A4070AD0C4684FEA08
:100F3000420C06FA0CF7BC438F6807FA0CF72743FC
:100F4000C7600C7904F00304022C12D1D40800EB22
:100F5000840CDCF820405707FF0E09FA07F824EA52
:100F60000804D1F8108008FA07F848EA0408CCF819
:100F7000208004684FEA420C06FA0CF7BC430F7954
:100F800007F0030707FA0CF7274307604C6814F4CF
:100F9000403F70D03C4C276847F480472760246866
:100FA00022F0030704F480440094384C07EB040C4F
:100FB000DCF8084897074FEA177809FA08F7BC43A6
:100FC000334FB84202D1002724E054E0314FB842F9
:100FD00001D101271EE0304FB84201D1022719E0AC
:100FE0002E4FB84201D1032714E02D4FB84201D152
:100FF00004270FE02B4FB84201D105270AE02A4F02
:10100000B84201D1062705E0284FB84201D1072791
:1010100000E0082707FA08F72743CCF80878DAF841
:1010200000405746D1F804C09C435FEACC2C00D561
:101030001C433C60DBF800405F46D1F804C09C4391
:101040005FEA8C2C00D51C433C60DEF800407746FC
:10105000D1F804C09C435FEA8C3C00D51C433C6043
:10106000084F083F3C68D1F804C09C435FEACC3C81
:1010700000D51C433C60521C102AFFF42FAFBDE882
:10108000F88F0000083C0140443802400030014025
:10109000000002400004024000080240000C024030
:1010A000001002400014024000180240001C0240E0
:1010B000426921EA02030A4043EA02418161704722
:1010C0000AB1816170470904FBE7000001488068AC
:1010D000704700001801002070B5040025D094F876
:1010E0003D00002520B984F83C50204600F050F91E
:1010F000242084F83D002068016821F0010101608E
:101100002068016841F4004101602068016821F411
:101110000041016000F0FCFA4D4A6168914201D83B
:101120004C4900E04C49884201D2012070BD4B4936
:101130002368B0FBF1F15E6826F03F060E435E6067
:101140006368934206D94FF4967359434FF47A7308
:10115000B1FBF3F12368491C1E6A26F03F063143B8
:1011600019626168914210D84900401EB0FBF1F24B
:10117000521CC2F30B02042A01D2042022E0B0FB6D
:10118000F1F0401CC0F30B001CE0A268F2B301EBCD
:10119000C10303EB0116431EB3FBF6F35B1C43F4E0
:1011A00080431B0549D092B301EBC10202EB011150
:1011B000401EB0FBF1F0401CC0F30B0040F4804037
:1011C00040F400402168CA694CF6FF739A4310430B
:1011D000C861D4E9071001432068026822F0C00208
:1011E00011430160D4E9030101432068826848F299
:1011F000FF339A4311438160D4E905010843216814
:10120000CA6822F0FF021043C86001E00EE016E059
:101210002068016841F0010101602564202084F804
:101220003D00256384F83E50002070BD01EB41066F
:10123000431EB3FBF6F35B1CB3E70120C2E701EBEF
:101240004101401EB0FBF1F0401CC0F30B00B7E7BA
:10125000A086010080841E0000093D0040420F006E
:101260002DE9FF4F83B09A46DDE911979346044676
:10127000DDF84080FFF72AFF054694F83D0020285E
:101280007FD11923012240492046009501F09CFDA1
:10129000002876D194F83C00012872D0012084F80F
:1012A0003C0020680168C90703D1016841F00101D1
:1012B00001602068016821F400610160212084F848
:1012C0003D00402084F83E0000262664C4F82480B7
:1012D000A4F82A90608D20852C48E062CDE9007545
:1012E00053465A462046049901F0EEFC70B930E0AE
:1012F0002A463946204601F00DFE58B1206C0428DC
:1013000004D12068016841F400710160012007B038
:10131000BDE8F08F606A216800780861606A401C4F
:101320006062218D491E89B22185628D521E6285BF
:1013300022685369DB435B070BD469B10078106105
:10134000606A401C6062208D401E2085608D401EBA
:101350006085208D0028CBD12A463946204601F0F1
:1013600007FD0028CAD154F83D0B016841F4007113
:101370000160202004F81E09E67766770020C6E7A2
:10138000FFE70220C3E70000020010000000FFFF9B
:101390002DE9F04186B0044614216846FEF748FF67
:1013A00022683A4C384B002138481226032504277E
:1013B00010349A4219D1026842F0020202600068B9
:1013C00002AA00F00200059082E8A200C020CDE948
:1013D000000669462E48FFF773FD206840F40010B0
:1013E0002060206800F400101AE02A4B9A421BD1BA
:1013F000026842F020020260006802AA00F02000A9
:101400000590CDE9005682E8A20069462248FFF720
:1014100057FD206840F480002060206800F48000C0
:10142000059006B0BDE8F0811C4B9A42F9D1884680
:10143000016841F004010160016801F004010591B7
:10144000016841F0010101600068694600F0010097
:10145000059050158DE84101CDE903571048FFF77D
:101460002FFD4FF480708DE84101CDE903576946A7
:101470000C48FFF725FD206840F40000206020683C
:1014800000F40000CCE70000005400403038024077
:10149000000402400058004000140240005C00407C
:1014A00000080240000002400248816802781144AE
:1014B00081607047180100200B4810B5016841F4A5
:1014C00000710160016841F480610160016841F4CC
:1014D00080710160032000F06FF80F2000F006F823
:1014E00000F024F8002010BD003C024070B50D4D06
:1014F00004464FF47A712878B1FBF0F00A49096884
:10150000B1FBF0F000F00CFB48B9102C07D2002220
:101510002146501E00F030F800206C6070BD0120A4
:1015200070BD0000180100201C0000200A4808B50A
:10153000016841F480410160006800F4804000903F
:101540000548001F016841F080510160006800F00B
:101550008050009008BD000044380240002809DB9C
:1015600000F01F02012191404009800000F1E020BD
:10157000C0F8001170470000F0B40E4B1B680C4619
:10158000C3F30223C3F10705042D00D90425191D57
:10159000072901D2002300E0DB1E012606FA05F12F
:1015A000491E214099409E40761E16403143F0BCB2
:1015B00002F01ABF0CED00E0064900F007020868CF
:1015C0004FF6FF03184040EA0220034A1043086028
:1015D000704700000CED00E00000FA052DE9F0472F
:1015E0000E46050065D0DFF81481D8F80000F7B288
:1015F00000F00700B04207D288F80070D8F8000069
:1016000000F00700B04254D128683D4C810712D544
:10161000400703D5206840F4E05020602878000798
:1016200003D5206840F4604020602068A96820F05D
:10163000F000084320602878C0072DD03049686842
:101640000839012812D0022813D0032811D00968C4
:10165000890700292DDA216821F003010143216067
:10166000FFF734FD814641F2883A0EE009688903AC
:10167000EFE709688901ECE7FFF728FDA0EB090116
:10168000514502D90320BDE8F0872068696800F061
:101690000C00B0EB810FEFD1D8F80010404601F0FC
:1016A0000701B14207D90770006800F00700B04297
:1016B00001D00120E7E72878400705D52068E968D0
:1016C00020F4E050084320602878000706D5206801
:1016D000296920F4604040EAC100206000F038F839
:1016E0002168084AC1F30311515CC84006490860EB
:1016F00006480068FFF7FAFE0020C4E7003C0240FD
:1017000008380240E45B00081C0000201C01002097
:101710000448054900680968044AC1F38221515C04
:10172000C84070471C00002008380240F45B0008E5
:101730000448054900680968044AC1F34231515C14
:10174000C84070471C00002008380240F45B0008C5
:10175000154810B5006810F00C02144813D0144955
:10176000042A0FD0082A0ED10F4C241F22682368A8
:1017700002F03F025B0207D52068C0F38810A0FB8F
:10178000010106E0084610BD2168C1F38811A1FBE4
:1017900000010023FEF714FD2168C1F30141491C3B
:1017A0004900B0FBF1F010BD083802400024F400FD
:1017B00040787D012DE9F84F04006ED02078DFF8E5
:1017C0004C93C007A9F104054AD009F1040001684F
:1017D000C1F38101012908D00068C0F3810002280B
:1017E0000AD1D9F80000400206D52868800337D511
:1017F00060680028E1D033E06068B0F5803F10D029
:10180000B0F5A02F286810D020F480302860286818
:1018100020F4802028606068A8B1FFF757FC0646D6
:101820000DE0286840F48030F4E740F48020286020
:10183000F7E700BFFFF74AFC801B642873D82868CD
:101840008003F7D50CE0FFF741FC064605E000BF3A
:10185000FFF73CFC801B6428F0D828688003F7D48D
:101860002078DFF8AC8280074FF0000A3ED5A74809
:10187000001D016811F00C0F08D00068C0F3810052
:1018800002280BD1D9F80000400207D4286880074D
:1018900016D5E068012800D112E033E1E068B8B164
:1018A0000120C8F80000FFF711FC064605E000BF64
:1018B000FFF70CFC801B0228C0D828688007F7D5EA
:1018C0002868216920F0F80040EAC10028600DE096
:1018D000C8F800A0FFF7FAFB064604E0FFF7F6FBA6
:1018E000801B02281FD828688007F7D420780007BB
:1018F00022D5864F87486169703771B10121016037
:10190000FFF7E4FB064604E0FFF7E0FB801B02283C
:1019100009D838688007F7D50EE0C0F800A0FFF7B7
:10192000D5FB064605E082E0FFF7D0FB801B0228CE
:101930007DD838688007F7D42078400768D5DFF86D
:10194000CCB100270BF13C0BDBF80000C0000BD43E
:10195000DBF8001041F08051CBF80010DBF80000FC
:10196000012700F0805000906B4E3068C00510D405
:10197000306840F480703060FFF7A8FB009005E00D
:10198000FFF7A4FB0099401A022850D83068C00520
:10199000F6D55E4EA0686C3601280FD00528306859
:1019A00010D020F001003060306820F0040030607A
:1019B000A068B8B1FFF78AFB00900FE0306840F0F4
:1019C0000100F4E740F004003060F7E7FFF77EFB2A
:1019D0000099411A41F28830814266D83068800708
:1019E000F4D50EE0FFF772FB009007E0FFF76EFB07
:1019F0000099411A41F28830814256D830688007F8
:101A0000F4D42FB1DBF8001021F08051CBF8001096
:101A1000A069C8B33D49091D0968C1F381010229C4
:101A20004AD00228504607D0C8F8600000E03CE0E9
:101A3000FFF74CFB04463BE04746C8F86000FFF761
:101A400045FB064605E000BFFFF740FB801B022870
:101A50002BD828688001F7D4D4E907010843A16A8C
:101A60002E4A490802EB0141626A41EA82110843A9
:101A700094F82C1040EA0161C9F800100120386682
:101A8000FFF724FB044606E03EE000BFFFF71EFB25
:101A9000001B022809D828688001F7D534E000BF70
:101AA000FFF714FB001B022802D90320BDE8F88FC2
:101AB00028688001F4D427E00128F7D0D9F8000085
:101AC000E26900F4800191421CD1226A00F03F01DA
:101AD000914217D147F6C071626A0140B1EB821F93
:101AE00010D1A26A4FF0FF3300F4403103EB5202F1
:101AF000B1EB024F06D194F82C1000F07060B0EBFF
:101B0000016F01D00120D1E70020CFE70438024067
:101B100000004742800E4742007000400000FFFF77
:101B200010B5401EB0F1807F01D3012010BD4FF0F1
:101B3000E02460610F21601702F056FC0020A061D4
:101B400007202061002010BD7047704770B590F8E5
:101B50003C20012A32D0012480F83C40022280F847
:101B60003D2003685A689D6822F070060A68324377
:101B70005A60134B02689A4214D0B2F1804F11D0D0
:101B8000104B9A420ED0104B9A420BD00F4B9A42F8
:101B900008D00F4B9A4205D00E4B9A4202D00E4B02
:101BA0009A4204D1496825F080031943916080F876
:101BB0003D40002180F83C10084670BD022070BDF9
:101BC000000001400004004000080040000C0040FC
:101BD00000040140004001400018004010B504001E
:101BE00003D094F83D0010B107E0012010BD0020A3
:101BF00084F83C00204600F01FF8022084F83D00E5
:101C0000211D206801F092FF012084F8460084F82D
:101C10003E0084F83F0084F8400084F8410084F8D6
:101C2000420084F8430084F8440084F8450084F8B6
:101C30003D00002010BD000010B586B00446142100
:101C40006846FEF7F5FA414B21680020404A994268
:101C50001FD1116841F001011160116801F001010B
:101C600005913B4914390A6842F010020A6009687C
:101C700001F010010591591400910221CDE90110E4
:101C800003900120049069463248FFF719F906B025
:101C900010BD2F48304B001F99420ED1016841F012
:101CA000020101600068002200F002000590114668
:101CB0001D20FFF761FC1D2010E0284B994210D138
:101CC000016841F0040101600068002200F0040096
:101CD000059011461E20FFF74FFC1E20FFF73EFC2B
:101CE000D5E71F4B994207D1016841F00801016017
:101CF000006800F0080009E01A4B994208D1016819
:101D000041F010010160006800F010000590BEE78E
:101D1000154B99420ED1016841F020010160006825
:101D2000002200F02000059011463720FFF724FC28
:101D30003720D3E70D488142A9D1106840F48030A4
:101D40001060106800F48030E0E7000000000140FF
:101D500044380240001002400004004000080040E7
:101D6000000C004000100040001400400040014002
:101D700090F83D10012901D001207047022180F820
:101D80003D100168CA6842F00102CA60006811494A
:101D9000884214D0B0F1804F11D00F4988420ED044
:101DA0000E4988420BD00E49884208D00D4988421E
:101DB00005D00D49884202D00C49884204D181687F
:101DC00001F00701062903D0016841F0010101601B
:101DD000002070470000014000040040000800405F
:101DE000000C004000040140004001400018004089
:101DF00070B5044690F83C000025012817D0012654
:101E000084F83C60022084F83D002068826822F05B
:101E1000770222F47F4282600868502838D00DDCB7
:101E200020284FD005DC90B3102811D14AE00220C1
:101E300070BD302846D040280AD13BE060282FD022
:101E400070280DD0B0F5805F03D0B0F5005F12D0E0
:101E5000012584F83D60002084F83C00284670BDD0
:101E6000CB68D1E90121206801F0D5FE20688168A6
:101E700041F0770109E0CB68D1E90121206801F048
:101E8000CAFE2068816841F480418160E1E719E081
:101E9000CA684968206801F093FF5021206806E075
:101EA000CA684968206801F0DDFF6021206801F000
:101EB000BCFECEE7CA684968206801F081FF402176
:101EC0002068F4E7226801461046F0E72DE9F0416A
:101ED0000D46040003D094F83D0018B108E001203D
:101EE000BDE8F081002084F83C00204600F040F876
:101EF000022084F83D002068816844F20702914383
:101F00008160211D206801F011FE226890689169AE
:101F1000166A2B68AF69034340F20330814341EAFC
:101F20000721A868EF6908434FF6FC418843E96838
:101F300040EA0720014328692F6A000140EA073080
:101F4000084369686D6926F0AA0646EA0515294323
:101F500093602268906154F8460B0162012004F8F6
:101F60001F09E0752076E0762077A0750020B7E79E
:101F700070B586B0044614216846FEF759F9216809
:101F800000242F480225B1F1804F21D02D4A9142E3
:101F90001CD12B4914310A6842F002020A60096818
:101FA00001F002010591016841F00401016000683F
:101FB000694600F004000590C0200090CDE901546E
:101FC0000320CDE903402048FEF77AFF06B070BD3C
:101FD0001B4910310A6842F001020A60096801F0E9
:101FE00001010591016841F001010160016801F002
:101FF00001010591016841F00201016000680126BC
:1020000000F00200059020200090CDE90154CDE9B8
:10201000034669460D48FEF753FF08200090CDE9BE
:102020000154CDE9034669460948FEF749FF0022FD
:1020300011461C20FFF7A0FA1C20FFF78FFAC5E716
:102040003038024000040140000802400000024015
:102050000004024070B590F83E60044690F83F508E
:1020600090F8423090F84320022021B104290ED08C
:10207000012E1BD114E0012E18D1012B16D184F8AA
:102080003E0084F8420001220021206820E0012D5A
:102090000CD1012A0AD184F83F0084F8430014E0EF
:1020A000012D03D1012B01D1012A01D0012070BDE6
:1020B00084F83E0084F83F0084F8420084F843002E
:1020C00001220021206801F099FD012204212068ED
:1020D00001F094FD2068016841F0010101600020D9
:1020E00070BD70472DE9F041054690F83C00002690
:1020F0000C46012810D0012085F83C0072B1042A5A
:102100001CD0082A2CD00C2A50D00126002085F89B
:102110003C003046BDE8F0810220FBE7D4E9001224
:10212000E368286801F05EFE2868816921F00C01EF
:10213000816128688169A26811430FE0D4E9001227
:10214000E368286801F0A0FE2868816921F44061F5
:10215000816128688169A26841EA02218161D5E72D
:102160002868D4E9002C277B036A016A21F4807176
:102170000162C16923F4206321F0030141EA0C01EB
:1021800021F0F00C39074FF420674CEA116107EA9F
:1021900002221A43C16102622868C16921F00C0160
:1021A000C1612868C169A26811432BE02868D4E99D
:1021B0000021E768036AD0F820C02CF4805CC0F8E6
:1021C00020C0D0F81CC023F420432CF4407C4CEAFF
:1021D000012121F4704C4FF6FF7101EA07314FF4F1
:1021E000204741EA0C0107EA02321A43C161026248
:1021F0002868C16921F44061C1612868C169A26889
:1022000041EA0221C16181E710B5040003D094F8CE
:102210003D0010B107E0012010BD002084F83C0013
:10222000204600F01EF8022084F83D00211D2068A1
:1022300001F07CFC012084F8460084F83E0084F81C
:102240003F0084F8400084F8410084F8420084F89C
:10225000430084F8440084F8450084F83D000020E1
:1022600010BD70472DE9F04104460068C668056955
:102270004FF00007A90713D5B10711D5F91E016169
:1022800001202077206880698007204602D0FFF770
:1022900028FF04E000F0EAF8204600F07CF92777F8
:1022A000680716D5700714D521686FF0040008611F
:1022B000022020772068806910F4407F204602D0F9
:1022C000FFF70FFF04E000F0D1F8204600F063F9BB
:1022D0002777280715D5300713D521686FF0080038
:1022E0000861042020772068C0698007204602D05A
:1022F000FFF7F7FE04E000F0B9F8204600F04BF9D4
:102300002777E80616D5F00614D521686FF010007F
:102310000861082020772068C06910F4407F2046BB
:1023200002D0FFF7DEFE04E000F0A0F8204600F047
:1023300032F92777E80708D0F00706D021686FF058
:1023400001000861204600F08BF9280608D5300608
:1023500006D521686FF0800008612046FFF7F4FB86
:10236000680608D5700606D521686FF04000086140
:10237000204600F076F9A8060AD5B00608D52168EF
:102380006FF0200008612046BDE8F041FFF7DDBB9B
:10239000BDE8F08170B586B0044614216846FDF7AB
:1023A00047FF2A4A21680024294802250326914232
:1023B0001FD1016841F001010160016801F00101D4
:1023C0000591016841F0020101600068694600F072
:1023D00002000590C0200090CDE901541D48CDE9D0
:1023E0000345FEF76DFD0096CDE9015469461A4894
:1023F00011E01A4A914215D1016841F008010160CB
:102400000068694600F0080005904FF470400090A5
:10241000CDE901541248CDE9034500BFFEF750FD58
:1024200006B070BD0F4A9142FAD1016841F0100127
:1024300001600068694600F010000590602000907F
:10244000CDE90154CDE903460748E7E70004004021
:102450003038024000000240000402400008004002
:10246000000C02400040014000100240704770B56F
:10247000044690F83C0000260D4601280FD00120AC
:1024800084F83C006AB1042A1DD0082A2FD00C2AF7
:102490003FD00126002084F83C00304670BD022069
:1024A00070BD206801F0CAFB2068816941F0080115
:1024B00081612068816921F004018161206881695E
:1024C0002A69114311E0206801F0E8FB2068816966
:1024D00041F4006181612068816921F4806181613A
:1024E000206881692A6941EA02218161D2E7206876
:1024F00001F00AFC2068C16941F00801C16120684F
:10250000C16921F00401C1612068C1692A691143D0
:1025100011E0206801F02CFC2068C16941F40061E1
:10252000C1612068C16921F48061C1612068C1690D
:102530002A6941EA0221C161ACE710B5040003D069
:1025400094F83D0010B107E0012010BD002084F890
:102550003C00204600F01EF8022084F83D00211DBA
:10256000206801F0E3FA012084F8460084F83E0078
:1025700084F83F0084F8400084F8410084F8420069
:1025800084F8430084F8440084F8450084F83D0052
:10259000002010BD7047704710B50446022249B1B3
:1025A00004290ED0082913D094F84100012816D030
:1025B000012010BD94F83E000128F9D184F83E2096
:1025C0000FE094F83F000128F2D184F83F2008E0A2
:1025D00094F840000128EBD184F8402001E084F811
:1025E00041200122206801F009FB16492068164AA3
:1025F000884201D0904203D1436C43F400434364CA
:102600002068884213D0B0F1804F10D00F49884223
:102610000DD00F4988420AD00E49884207D0904217
:1026200005D00D49884202D00C49884204D1816806
:1026300001F00701062903D0016841F001010160A2
:10264000002010BD000001400004014000040040D3
:1026500000080040000C004000400140001800400D
:102660007047704770477047F8B5016804460868BE
:10267000CA684B6910F00F0F4FF0000559D003F0F6
:10268000010602F49077374365D0C10705D0D10524
:1026900003D5616C41F001016164410705D5D9079B
:1026A00003D0616C41F002016164810705D5D9074F
:1026B00003D0616C41F004016164010707D502F0A9
:1026C0002001314303D0616C41F008016164616C09
:1026D00000293AD0800604D5900602D5204601F0A4
:1026E0006FFC20684069616CC0F38010090700D45A
:1026F00060B3204601F03DFC20684069400621D5CA
:102700002068143050E8001F21F0400140E800121A
:10271000002AF5D1E06BA8B172490165E06BFEF7C4
:1027200070FA002811D0E06B016D01B0BDE8F040F7
:10273000084783060FD593060DD52046BDE8F8401F
:1027400001F03EBC2046FFF78EFFF8BD2046FFF7A4
:102750008AFF6564F8BD266B2023012E7ED1C60654
:102760007CD5D6067AD508684868009048694FF04D
:10277000020640064DD5E26B106840684FF4807742
:102780000004000C3AD0A18D814237D9E085D06990
:10279000B8422DD020680C3050E8001F21F4807121
:1027A00040E80012002AF5D12068143050E8001FDC
:1027B00021F0010140E80012002AF5D12068143010
:1027C00050E8001F21F0400140E80012002AF5D136
:1027D00084F84230256320680C3050E8001F21F057
:1027E000100140E80012002AF5D1E06BFEF7C0F9B5
:1027F0006663A08DE18D401A81B206E0A18D814211
:10280000A8D1D069B842A5D166632046FFF72AFF58
:10281000F8BDA08DE18D401A81B2E08D0028F7D07F
:102820000029F5D020680C3050E8002F22F4907277
:1028300040E80027002FF5D12068143050E8002F21
:1028400022F0010240E80027002FF5D184F8423041
:10285000256320680C3050E8002F00E006E022F0ED
:10286000100240E80023002BF3D1CDE705062BD55D
:10287000150629D594F841002128C9D1A068B0F5E2
:10288000805F01D12069B0B1206A411C21622168BA
:1028900000784860E08C401E0004000CE084B7D152
:1028A0002068C16821F08001C1602068C16841F0E2
:1028B0004001C160F8BD206A0088C0F3080048608C
:1028C000206A801C2062E5E74006F3D55006F1D56A
:1028D000CA68204622F04002CA6084F8413000F005
:1028E000D9F9F8BD653F000870B5040004D094F82C
:1028F0004100002510B106E0012070BD84F8405071
:10290000204600F023F8242084F841002068C168A4
:1029100021F40051C160204601F0B4FB2068016938
:1029200021F4904101612068416921F02A0141614F
:102930002068C16841F40051C1606564202084F8BA
:10294000410084F842006563002070BD2DE9F0432A
:1029500087B0064614216846FDF76AFC8848DFF810
:102960001CC233688649103802250327854A002493
:102970004FF00808634520D10B6843F400230B6037
:10298000096801F400210591016841F0040101602A
:10299000006802AB00F004000590B802CDE9000524
:1029A00083E8900169461046FEF78AFA0022114634
:1029B0003420FEF7E1FD342038E0DFF8CCC1DFF849
:1029C000CC91634537D10B6843F480130B600968E1
:1029D00001F480110591016841F004010160016872
:1029E00001F004010591016841F0080101600068EF
:1029F00002AB00F0080005904FF48050CDE90005CF
:102A000083E8900169461046FEF75AFA0420CDE9A2
:102A1000000502AB694683E890014846FEF750FA8C
:102A2000002211463520FEF7A7FD3520FEF796FD62
:102A300007B0BDE8F083DFF858C10722634553D1E2
:102A40004F49091D0B6843F010030B60096801F042
:102A500010010591016841F00101016000680294D4
:102A600000F0010005904FF4C060CDE90005CDE90C
:102A7000037269464748FEF723FA484D46484FF02F
:102A800000672860C5E901744FF48068C5E9034810
:102A90006C61AC61EC612C6228466C62FEF794F9C3
:102AA00008B1FDF762FFF563AE633C4D3A4860350F
:102AB0007830E5E802074020A5E81101374845F8DD
:102AC00014496030AC61EC612C626C62FEF77CF9F9
:102AD00008B1FDF74AFFB563002211462520AE6319
:102AE000FEF74AFD2520A1E72D4EB34220D10B6809
:102AF00043F400330B60096801F40031059101686B
:102B000041F0080101600068029400F0080005909F
:102B10006020CDE90005CDE9037269464846FEF71D
:102B2000CFF9002211462620FEF726FD26207DE75C
:102B30001C4EB3427FF47CAF0B6843F480230B60E0
:102B4000096801F480210591016841F008010160E4
:102B50000068029400F0080005904FF44070CDE941
:102B60000005CDE9037269464846FEF7A9F900223F
:102B700011462720FEF700FD272057E7004C0040B4
:102B8000403802400008024000500040000C024063
:102B90000010014000000240406402405C08002038
:102BA000004400400048004090F84230202B01D003
:102BB0000220704721B11AB10023036301F0E8BA83
:102BC0000120704710B50068074988420AD10122E8
:102BD00006490748FFF7E8FF04480078BDE81040C1
:102BE00002F0A6BA10BD000000440040040100201D
:102BF000CC0700202DE9F843044690F841009846A0
:102C000016460D46202802D00220BDE8F88385B183
:102C10007EB100206064212084F84100FEF756FA5E
:102C2000A6848146E684A0682027B0F5805F02D0A4
:102C300003E00120E9E7206910B12E4600250EE0EF
:102C400000260CE08021204601F0BDFAA8B9C6B1EB
:102C500016F8010B21684860E08C401EE084E08C8F
:102C60004B464FF00002CDF800800028EAD14FF02B
:102C70004001204601F0A7FA40B184F841700320DA
:102C8000C3E735F8020BC0F30800E3E784F84170AE
:102C90000020BAE77047FEE701684A69D24352054F
:102CA0000FD46FF480624A61002140F8301F202267
:102CB00042738173026942F00402026101730120D0
:102CC00070470020704700002DE9F8430446006873
:102CD0000D46DDE9089701689846164641F4807173
:102CE00001604B4600224FF001112046009700F092
:102CF0006BF848B120680068C00502D54FF4007039
:102D000020640320BDE8F883216805F0FE00086117
:102D10003B464A461549204600F09EF888B920688F
:102D20004169806900903A464946204600F0F2F831
:102D300048B1206C042804D12068016841F4007176
:102D400001600120DEE7F5B2B8F1010F09D021687A
:102D5000300A08613A464946204600F0DBF8002870
:102D6000E7D1206805610020CCE7000002000100E7
:102D700070B516460D4604461EE02046FFF78CFF50
:102D800008B1012070BD681C16D0FEF79FF9801BAA
:102D9000A84200D885B920684069C04340070BD5D8
:102DA000002044F8300F20216173A073216941F0A5
:102DB000200121612073E4E720684069C043400797
:102DC000DBD4002070BD00002DE9F047984617467F
:102DD0000D460446C1F30746DDF820902AE000BF07
:102DE000B8F1FF3F26D0FEF771F9A0EB090141458C
:102DF00002D8B8F1000F1DD12068012E16D08069CD
:102E000025EA00000004000C12D00020B84211D1C5
:102E1000002044F8300F20216173A073216941F034
:102E20002001216120730120BDE8F0874069E7E7B8
:102E30000120EBE72068012E0AD0806925EA000016
:102E40000004000C06D00020B842C9D00020EBE7F7
:102E50004069F3E70120F7E72DE9F0479846164669
:102E60000D4604464FF000094FF0200AC1F3074712
:102E700023E020684069C043400515D420680168FC
:102E800041F40071016021686FF480604861C4F80A
:102E9000309084F83DA084F83E90216C41F004010C
:102EA000216484F83C9021E0701C06D0FEF70EF9F6
:102EB000A0EB0800B04203D816B1012F1FD021E0CB
:102EC0002068012F15D0806925EA00000004000C5D
:102ED00018D000BF44F8309F84F80DA084F80E90FD
:102EE000216941F02001216184F80C900120BDE8A6
:102EF000F087406925EA00000004000CEAD1206850
:102F0000406901E02068806925EA00000004000CA7
:102F1000AFD1ECE770B516460D4604461EE02046DC
:102F2000FFF7BAFE08B1012070BD681C16D0FEF78D
:102F3000CDF8801BA84200D885B920684069C043FD
:102F400000060BD5002044F8300F20216173A073D8
:102F5000216941F0200121612073E4E72068406984
:102F6000C0430006DBD4002070BD00007FB5002404
:102F700015480094019402941249039401604FF49F
:102F80008031C0E901140461047680F820400F49C3
:102F9000C0E90A140125C561C46080F8304045616C
:102FA000FDF78CFD08B1FDF7E0FCCDE90045694671
:102FB00005480294FDF7DCFC002801D0FDF7D5FCA4
:102FC0007FBD000000220140280300200100000F07
:102FD0000D4808B5016841F48001016000680022D5
:102FE00000F48000009011463A20FEF7C5FA3A201E
:102FF000FEF7B4FA002211464620FEF7BDFABDE8FE
:1030000008404620FEF7AABA303802402DE9F04FBA
:1030100087B014216846FDF70BF948480024016881
:1030200041F010010160016801F010010591016893
:1030300041F004010160016801F00401059101689B
:1030400041F020010160016801F020010591016853
:1030500041F080010160016801F080010591016883
:1030600041F001010160016801F001010591016871
:1030700041F002010160016801F00201059101685F
:1030800041F040010160016801F0400105910168D3
:1030900041F0080101600068DFF8A49000F008002A
:1030A0000590002210214846FEF70AF840F6FF7608
:1030B000002231462348FEF703F8DFF88CA04FF4D6
:1030C0008047002239465046FDF7FAFFDFF87CB012
:1030D0004FF47F48002241465846FDF7F1FF10208B
:1030E00000900125CDE90154694648460394FDF757
:1030F000E7FE0096CDE90154694612480394FDF7B6
:10310000DFFE0097CDE90154694650460394FDF770
:10311000D7FECDF80080CDE90154694658460394A6
:10312000FDF7CEFE4FF470408DE83100694605484A
:10313000FDF7C6FE07B0BDE8F08F00003038024052
:10314000000002400018024000100240000402404B
:103150000D4810B50B4901600C49416000214FF446
:1031600080428160C0E9031241618161C1610162F5
:10317000FDF7B2FF002803D0BDE81040FDF7F5BB16
:1031800010BD00000054004070030020A086010024
:103190000D4810B50B4901600C49416000214FF406
:1031A00080428160C0E9031241618161C1610162B5
:1031B000FDF792FF002803D0BDE81040FDF7D5BB16
:1031C00010BD000000580040C4030020A08601008C
:1031D0000D4810B50B4901600C49416000214FF4C6
:1031E00080428160C0E9031241618161C161016275
:1031F000FDF772FF002803D0BDE81040FDF7B5BB16
:1032000010BD0000005C004018040020A0860100F2
:1032100010B58AB0002427480494059406940794B6
:103220000894099400940194029421490394C0E9FC
:1032300000144FF6FF71C0E90241046144618461EA
:10324000FEF7CCFC08B1FDF790FB4FF480500490E2
:1032500004A91848FEF7CCFD08B1FDF786FB154818
:10326000FEF7D2FF08B1FDF780FB089408A91148CA
:103270000994FEF76BFC08B1FDF777FB0120CDE95F
:1032800000400294082269460A480394FEF72AFF88
:1032900008B1FDF76AFB022001900C22694605483F
:1032A000FEF720FF002801D0FDF75FFB0AB010BD3C
:1032B000000001406C04002010B58CB02421684649
:1032C000FCF7B6FF0024154809944FF080410A949A
:1032D000C0E90014611EC0E9024104618461032059
:1032E000CDE900040120CDE902040494CDE90540B4
:1032F0000794694609480894FEF7E8FD08B1FDF710
:1033000034FB099409A905480A94FEF71FFC00281C
:1033100001D0FDF72AFB0CB010BD0000B404002062
:1033200010B58EB000240794089409940A940B9465
:103330001C2168460C94FCF77BFF2A482849016051
:103340005321C0E901144FF47A71C0E90314846178
:10335000FEF744FC08B1FDF708FB4FF480500790DE
:1033600007A92048FEF744FD08B1FDF7FEFA1D4805
:10337000FFF7E3F808B1FDF7F8FA0B940BA9194829
:103380000C94FEF7E3FB08B1FDF7EFFA6020CDE9FE
:10339000000402940022694612480494FFF767F87B
:1033A00008B1FDF7E2FA042269460E48FFF75FF81C
:1033B00008B1FDF7DAFA082269460A48FFF757F81C
:1033C00008B1FDF7D2FA0C2269460648FFF74FF81C
:1033D00008B1FDF7CAFA0348FEF7DCFF0EB010BDD6
:1033E00000040040FC04002010B58EB000240794B7
:1033F000089409940A940B941C2168460C94FCF7D9
:1034000017FF2A482849C0E900144FF6FF71C0E9A8
:10341000024104618461FEF7E1FB08B1FDF7A5FA02
:103420004FF48050079007A92048FEF7E1FC08B14F
:10343000FDF79BFA1D48FFF780F808B1FDF795FAF4
:103440000B940BA919480C94FEF780FB08B1FDF70B
:103450008CFA6020CDE900040294002269461348EA
:103460000494FFF704F808B1FDF77FFA04226946D7
:103470000E48FEF7FCFF08B1FDF777FA082269460F
:103480000A48FEF7F4FF08B1FDF76FFA0C2269460F
:103490000648FEF7ECFF08B1FDF767FA0348FEF7B0
:1034A00079FF0EB010BD0000000800404405002068
:1034B00010B586B000241648009401940294039439
:1034C00004941249059401605321C0E90114632159
:1034D000C0E903148461FEF781FB08B1FDF745FAEA
:1034E0004FF48050009069460948FEF781FC08B10E
:1034F000FDF73BFA049404A905480594FEF726FB62
:10350000002801D0FDF731FA06B010BD000C0040D4
:103510008C0500201CB500240E4800940C49019431
:10352000C0E900144FF6FF71C0E902418461FEF763
:1035300055FB08B1FDF719FA009469460548019456
:10354000FEF704FB002801D0FDF70FFA1CBD0000B8
:1035500000100040D40500201CB500240E48009443
:103560000C490194C0E900144FF6FF71C0E9024113
:103570008461FEF733FB08B1FDF7F7F90094694663
:1035800005480194FEF7E2FA002801D0FDF7EDF9B5
:103590001CBD0000001400401C06002010B58CB0BB
:1035A00024216846FCF744FE002416480994144977
:1035B0000A94C0E900144FF6FF71C0E902410461AA
:1035C000446184610120CDE90004CDE90204049442
:1035D000CDE90540079469460A480894FEF776FC51
:1035E00008B1FDF7C2F9099409A906480A94FEF743
:1035F000ADFA002801D0FDF7B8F90CB010BD0000FD
:10360000000401406406002010B58CB0002407942B
:10361000089409941C2168460A94FCF709FE1D4889
:103620001B49C0E900144FF6FF71C0E90241046173
:103630008461FEF7D3FA08B1FDF797F94FF4805093
:10364000079007A91348FEF7D3FB08B1FDF78DF9E2
:103650001048FEF772FF08B1FDF787F96020CDE949
:1036600000040294002269460A480494FEF7FFFE13
:1036700008B1FDF77AF9042269460648FEF7F7FE1D
:1036800008B1FDF772F90348FEF784FE0CB010BDD7
:1036900000400140AC0600200C4810B50A4901600A
:1036A0004FF4E1314160002181600C22C160C0E92A
:1036B00004128161C161FFF717F9002803D0BDE84A
:1036C0001040FDF752B910BD004C0040F406002038
:1036D0000C4810B50A4901604FF4E1314160002106
:1036E00081600C22C160C0E904128161C161FFF7F1
:1036F000FBF8002803D0BDE81040FDF736B910BD37
:10370000005000403C0700200C4810B50A490160F9
:103710004FF416514160002181600C22C160C0E964
:1037200004128161C161FFF7DFF8002803D0BDE812
:103730001040FDF71AB910BD0010014084070020A9
:103740000C4810B50A4901604FF416514160002140
:1037500081600C22C160C0E904128161C161FFF780
:10376000C3F8002803D0BDE81040FDF7FEB810BD37
:1037700000440040CC0700200C4810B50A49016005
:103780004FF416514160002181600C22C160C0E9F4
:1037900004128161C161FFF7A7F8002803D0BDE8DA
:1037A0001040FDF7E2B810BD0048004014080020AA
:1037B000FEE7000010B5022A07D30021102326A23D
:1037C000084600F006F9002010BD401A2649B7EE61
:1037D000000A44F62064D1ED040A30EE601A00EECF
:1037E000100A01F13000B8EEC00A50F8221021EEA4
:1037F000000A01EE101AB8EEC11A00EE810ABDEE01
:10380000C00A10EE101A40F82210184850F8223062
:103810000B4440F82230A34202DC6442A34201DAA6
:1038200040F8224000EE101A114B50F82200B8EE7A
:10383000C00AD3ED000A20EE800A00EE900A0D487F
:10384000F8EEE00A90ED001A01EE200ABDEEC00A83
:1038500010EE100A10BD0000737065656470696435
:10386000206572720000000020000020FC00002093
:10387000DC000020D8000020FEE770B5002404F131
:10388000B000C0B200F0C0F8002000F0BDF8102079
:1038900000F0BAF80025002000F0C8F86D1CEDB269
:1038A000802DF8D3641CE4B2082CE8D370BD10B5A9
:1038B000C820FDF7F3FABDE8104000F06BBD10B56D
:1038C0000446B031C8B200F09FF8102040EA14104E
:1038D00000F09AF804F00F00BDE8104000F094B832
:1038E0002DE9F041203A00240D468046D6B27F28CB
:1038F00003D900208D1C8046EDB2102B29460FD035
:10390000FFF7DDFF164906EB460001EB4005285D99
:1039100000F08CF8641CE4B2062CF8D3BDE8F0810A
:10392000FFF7CDFF0F4F00BF04EB0610385C00F02F
:103930007DF8641CE4B2082CF6D36D1CE9B2404655
:10394000FFF7BDFF5FF0000404EB06103844007A77
:1039500000F06CF8641CE4B2082CF5D3DEE700003C
:103960001C520008445400082DE9F05F0026DDF8E1
:1039700028901D4692468B46804634464FEA5907AA
:1039800023E0281B401EC1B20A2001F003FBBAFB52
:10399000F0F00A21B0FBF1F201FB120026B9691E1A
:1039A0008C4201DA38B101263030C2B207FB048004
:1039B000C0B24B4604E007FB0480C0B24B46202255
:1039C0005946FFF78DFF641CE4B2AC42D9D3BDE881
:1039D000F09F2DE9F041984617460E460446002513
:1039E0000DE0434631462046FFF77AFF0834E4B243
:1039F000782C02D90024B61CF6B26D1CEDB27A5DAB
:103A0000002AEED1BDE8F08101B584B001214FF468
:103A1000807204A88DE807000B4600227821024836
:103A2000FDF71EFC05B000BD7003002001B584B099
:103A300001214FF4807204A88DE807000B46402254
:103A400078210248FDF70CFC05B000BD7003002092
:103A500070477047FDF728BD30B593B030216846F8
:103A6000FCF7E6FB14210CA8FCF7E2FB1D4800253F
:103A7000016841F080510160006800F080501190B1
:103A80001948016841F4804101600068022400F493
:103A9000804011900120039010200490009406941F
:103AA0000820CDE90750A820CDE9090404200B9097
:103AB0006846FDF77FFE08B172B6FEE70CA90F203D
:103AC00081E831004FF4A0500F904FF480501090D7
:103AD00005210CA8FDF782FD002801D072B6FEE793
:103AE00013B030BD40380240007000400248016809
:103AF00041F470010160704788ED00E00148FEF775
:103B0000B1BB0000B40400200148FEF7ABBB0000CD
:103B1000FC0400200148FEF7A5BB0000440500207E
:103B20000148FEF79FBB00001C060020F0B50268AC
:103B3000274B284D284E294F294C4FF0804C984256
:103B400009D0604507D0A84205D0B04203D0B842A2
:103B500001D0A04204D122F0700E4A6842EA0E025F
:103B600098421BD0604519D0A84217D0B04215D05A
:103B7000B84213D0A04211D01A4DA8420ED01A4D0F
:103B8000A8420BD0194DA84208D0194DA84205D023
:103B9000184DA84202D0184DA84203D122F4407516
:103BA000CA682A434D6922F080022A438D68C562A3
:103BB0000D688562984201D0A04201D10969016374
:103BC000016841F004010160012141610260F0BD22
:103BD000000001400004004000080040000C0040CC
:103BE0000004014000400140004401400048014001
:103BF00000180040001C00400020004010B501F0FB
:103C00001F030121046A99408C430462016A9A40AF
:103C10001143016210BD10B5846842EA032224F406
:103C20007F440A432243826010BD826822F0700202
:103C30000A4342F00701816070470000F0B5036A53
:103C4000026A22F00102026242688469124E24F084
:103C500073050C682C4323F002058B682B430D4D34
:103C6000A84201D0B04205D123F00807CB683B43FE
:103C700023F00403A84201D0B04205D14D6922F4DB
:103C8000407215438A692A434260846149684163EE
:103C90000362F0BD0000014000040140F0B5026A7B
:103CA000036A23F010030362436884690D6824F4F7
:103CB000E64444EA05248D6822F0200242EA051217
:103CC0000F4D104EA84201D0B04206D1CF6822F06D
:103CD000800242EA071222F04002A84201D0B0421C
:103CE00007D14D6923F4406343EA85038D6943EAB4
:103CF000850343608461496881630262F0BD00000E
:103D00000000014000040140F0B5026A036A23F498
:103D1000807303624368C46922F4007224F073055F
:103D20000C68124E2C438D6842EA05220E4DA842C3
:103D300001D0B04206D1CF6822F4006242EA0722E5
:103D400022F48062A84201D0B04207D14D6923F429
:103D5000405343EA05138D6943EA05134360C46188
:103D60004968C1630262F0BD0000014000040140E7
:103D700030B5046A026A22F4805202624268C36962
:103D80000D6823F4E64343EA05238D6824F40054C8
:103D900044EA0534084DA84202D0084DA84204D197
:103DA0004D6922F4804242EA85124260C36149684B
:103DB0000164046230BD00000000014000040140C5
:103DC00010B5036A046A24F001040462846924F0D3
:103DD000F00444EA021423F00A020A4384610262F6
:103DE00010BD000070B5056A046A24F00104046285
:103DF0008469154EB04214D0B0F1804F11D0134EEB
:103E0000B0420ED0124EB0420BD0124EB04208D08B
:103E1000114EB04205D0114EB04202D0104EB04209
:103E200003D124F00304144301E044F001041A0711
:103E300024F0F00444EA126225F00A0301F00A01BA
:103E400019438261016270BD00000140000400401E
:103E500000080040000C0040000401400040014008
:103E60000018004010B5036A046A24F010040462CC
:103E7000846923F0A00324F4704444EA023243EA44
:103E800001118261016210BD30B5046A056A25F036
:103E900010050562856925F4407545EA022222F481
:103EA00070454FF6FF7202EA033224F0A0032A4362
:103EB000A02404EA011119438261016230BD0000AF
:103EC000F8B51E48FEF7D0FB1D4800241D4D0178B3
:103ED0004FF47A73A52902D1C1795A2909D01AA0C1
:103EE00003220068009069461448FEF783FE2C7098
:103EF000F8BD164E164A317821B1032907D004299E
:103F00000ED00FE001213170407810700AE0107877
:103F1000012801D0022801D104200DE02C7001E01D
:103F2000407840B10BA00322006800906946034826
:103F3000FEF760FEF8BD05203070EFE7F4060020C4
:103F4000D0000020BC000020A5005A00BD000020C9
:103F5000F4000020A5115A000148FEF785BB0000BF
:103F60003C07002010B5806B0021C185FEF77BFB6C
:103F700010BD01680C3151E8002F22F4907241E825
:103F80000023002BF5D10168143151E8002F22F0F5
:103F9000010241E80023002BF5D1016B012909D171
:103FA00001680C3151E8002F22F0100241E8002393
:103FB000002BF5D1202180F84210002101637047C9
:103FC00008B590F84210222901D0022008BD82686D
:103FD0004FF480539A4201D1016921B1816A9A421A
:103FE0001BD04AB10AE00268816A5268C2F3080233
:103FF0000A80816A891C08E0026972B1026852680D
:1040000002F07F020A70816A491C8162C18D491EDB
:104010000904090CC18503D01BE002685268F1E76E
:104020000168CA6822F02002CA600168CA6822F4E6
:104030008072CA6001684A6922F001024A61202147
:1040400080F8421000214163026B012A03D0FEF781
:10405000B9FD002008BD016301680C3151E8002F53
:1040600022F0100241E80023002BF5D101680A6814
:10407000D20602D50A6849680091818DFEF7F2FAEE
:10408000E7E7000070B5044600680169E26821F4C2
:104090004051114301612169A068E26908436169E7
:1040A000114308432168CA6849F20C639A430243EA
:1040B000CA6020684169A26921F4407111434161DD
:1040C00031492068884202D03049884202D1FDF748
:1040D0002FFB01E0FDF71CFBE26900231921642599
:1040E0003226B2F5004F626828D0A0FB0101930F81
:1040F0009200FCF765F80146B0FBF5F06FF018028E
:10410000504301EB800006EB0010B0FBF5F000F02F
:10411000F002B1FBF5F002EB0012B1FBF5F06FF02D
:104120001803584301EB800006EB0010B0FBF5F0DC
:1041300000F00F0021681044886070BDA0FB0101F1
:1041400092185B41FCF73CF80146B0FBF5F0020128
:10415000B1FBF5F06FF01803584301EB800006EB5C
:10416000C000B0FBF5F000F0F80002EB4002B1FB3C
:10417000F5F0584301EB800006EBC000B0FBF5F012
:1041800000F00700D6E700000010014000140140D5
:1041900081628285C28500214164222180F842101B
:1041A000016921B10168CA6842F48072CA6001687D
:1041B0004A6942F001024A610068C16841F0200189
:1041C000C160002070472DE9F843984617460D4618
:1041D0000446089E24E0701C22D0FCF777FFA0EB79
:1041E0000800B0421AD8CEB12068C168490717D577
:1041F000802D15D0402D13D00168C94309070FD475
:1042000001680025406800902046FFF7B2FE0820B4
:10421000606484F840500120BDE8F8830320FBE788
:104220002068006835EA000004D00020B842D2D0EF
:104230000020F1E70120F9E710B54548FEF714FA30
:10424000052244494248FEF7AFFC4248424C0178FF
:1042500012294ED2DFE801F04D09131D27313B43EF
:104260004E594D4D4D4D4D4D65710379C278817854
:10427000407800F04DFDBDEEC00A384864E0037997
:10428000C2788178407800F043FDBDEEC00A344822
:104290005AE00379C2788178407800F039FDBDEEAC
:1042A000C00A304850E00379C2788178407800F045
:1042B0002FFDBDEEC00A2C4846E00379C278817814
:1042C000407800F025FDBDEEC00A28483CE00379A7
:1042D000C2788178407800F01BFD254834E00379EE
:1042E000C2788178407800F013FDBDEEC00A84EDFD
:1042F000010A10BD0379C2788178407800F008FD8A
:10430000BDEEC00A84ED020A10BD0379C27881783F
:10431000407800F0FDFCBCEEC00A10EE100A2070E0
:1043200010BD0379C2788178407800F0F1FCBCEED2
:10433000C00A10EE100A607010BD0379C27881784F
:10434000407800F0E5FC0B4880ED000A10BD00004D
:1043500084070020D000002008010020AC000020CD
:10436000B0000020B4000020B8000020F8000020B9
:10437000CC000020E00000200148FEF775B90000E5
:10438000CC0700200148FEF76FB900001408002098
:10439000FEE70000FEB50024094F4FF480750126AA
:1043A0003819CDE90006012300227821029505483D
:1043B000FCF756FF641CE4B21B2CF1D3FEBD0000D9
:1043C00000000020700300200FB4054B10B503A9B6
:1043D000044A029800F0EAF810BC5DF814FB0000F3
:1043E000294D0008240100200907090E002804DBDC
:1043F00000F1E02080F80014704700F00F0000F199
:10440000E02080F8141D704702E008C8121F08C1A0
:10441000002AFAD170477047002001E001C1121F45
:10442000002AFBD1704700002DE9FF5F82B0002118
:10443000DDE90430020DDDF840B0034318D044F646
:104440001050A2F2FF3242431514119801281FD0D8
:10445000A5EB0B00401C5FEA000A4FF000064E4F30
:10446000DFF83891B046504615D5CAF1000413E084
:10447000119801244AA3012801D16FEA0B01029887
:10448000119AC0E90031C0E9024206B0BDE8F09FD0
:10449000CBF10000DFE704460021404A491842EB17
:1044A0000450CDE9001012E0E00707D032463B4649
:1044B00040464946FBF7B6FF8046894632463B46B2
:1044C00010461946FBF7AEFF06460F466410002C57
:1044D000EAD1DDE90401DDE90023BAF1000F06DAD3
:1044E000FBF7A0FF42464B46FBF79CFF05E0FCF7BD
:1044F0000BF842464B46FCF707F804460E460022EE
:10450000284BFCF789F803D84FF0FF30014607E04D
:104510000022254B20463146FBF7DDFEFCF763F811
:10452000102409E0002C0ADB0A220023FBF748FED6
:10453000039B30321A55641E50EA0102F2D1641C0A
:10454000039AC4F111031444119A012A03D00122E1
:1045500008430DD10AE0084304D000204FF0110BAE
:10456000119072E7A3EB0B056D1E0DE05B4504DDBA
:104570004FF0000205F1010504E003DA4FF00002FC
:10458000A5F10105002AECD002981199C0E9023189
:10459000C0E9004579E70000000014400000F03F4A
:1045A000300000000000F0430000E03F2DE9FF4F25
:1045B00095B09B468946064600250FE2252877D10F
:1045C00000242746F84A0121059400E0044316F828
:1045D000013F203B01FA03F01042F7D130782A283E
:1045E00011D06FF02F033078A0F13002092A16D8CD
:1045F000059A44F0020402EB820203EB42021044EB
:10460000761C0590EFE759F8042B0592002A03DA8F
:10461000504244F40054059044F00204761C307873
:104620002E2816D116F8010F44F004042A280DD0C4
:104630006FF02F023078A0F13003092B09D807EB77
:10464000870302EB4303C718761CF3E759F8047B92
:10465000761C30786C280FD006DC4C2817D06828E0
:104660000DD06A2814D104E0742810D07A280FD114
:104670000DE044F400140AE044F4801401E044F432
:1046800040147278824202D104F58014761C761CA4
:10469000307866280BD013DC582877D009DC002846
:1046A00075D04528F6D04628F4D047281AD19DE188
:1046B00018E0632835D0642879D0652812D195E1B7
:1046C000702873D008DC6728F1D069286FD06E2875
:1046D0000DD06F2806D1B5E073282CD0752875D081
:1046E000782874D05A46179990476D1C75E1C4F329
:1046F0000250022809D003280DD0D9F80010042850
:104700000DD00D6009F1040967E1D9F80010EA172E
:10471000C1E90052F6E7D9F800100D80F2E70D70FC
:10472000F0E719F8041B8DF8001000208DF8010047
:10473000EA46012003E059F804AB4FF0FF3061076F
:104740004FF0000102D40DE008F101018846B942A2
:104750000FDA8045F8DB1AF808100029F4D108E0D8
:1047600008F1010188468142FADB1AF80810002995
:10477000F6D105985B46A0EB080721463846179A04
:1047800000F094FA284400EB080507E04DE029E129
:104790000DE01AF8010B5A4617999047B8F1010835
:1047A000F7D25B4621463846179A13E142E00A22C7
:1047B0000092C4F302524FF0000A022A08D059F8BE
:1047C00004CB032A4FEAEC710AD00DE029E02AE07D
:1047D00009F1070121F00702F2E802C1914609E060
:1047E0000FFA8CFC4FEAEC71042A03D14FFA8CFCCF
:1047F0004FEAEC71002907DA0A460021DCF1000CCF
:1048000061EB02012D2202E0220504D52B228DF856
:104810000420012203E0E20701D02022F7E79046BE
:1048200059E00A2102E010220DE010214FF0000AA9
:1048300000910BE010224FF0000A44F00404082716
:10484000009203E008224FF0000A0092C4F30252E3
:10485000022A05D059F804CB0021032A08D009E028
:1048600009F1070121F00702F2E802C1914605E0D3
:104870001FFA8CFC042A01D10CF0FF0C4FF0000849
:10488000220728D5702806D0009B83F0100353EA36
:104890000A0305D00EE040228DF80420012208E032
:1048A0005CEA010206D030228DF804208DF8050064
:1048B00002229046009B83F0080353EA0A030AD1C0
:1048C0005CEA010201D1620705D530228DF804208F
:1048D0004FF001087F1E582804D034A003900EA882
:1048E00002900DE036A0F9E753466046009AFBF7C8
:1048F00067FC84460398825C0298401E0290027016
:104900005CEA0100F0D1029806A9081A00F1200A19
:10491000600702D524F4803400E00127574502DD0A
:10492000A7EB0A0000E0002000EB0A0100900598C8
:104930004144401A0590E00306D45B462146179A8D
:10494000059800F0B3F90544002706E001A85A468F
:10495000C05D179990476D1C7F1C4745F6DBE0034F
:104960000CD55B462146179A059800F09FF905443F
:1049700004E030205A46179990476D1C0099481E54
:1049800000900029F5DC08E0029802995A46007868
:10499000491C0291179990476D1CBAF10001AAF1C8
:1049A000010AF1DC65E100000928010030313233F1
:1049B000343536373839616263646566000000005B
:1049C0003031323334353637383941424344454645
:1049D0000000000000F058F90544761C30780028EB
:1049E0007FF4ECAD19B02846BDE8F08F620700D423
:1049F000062709F1070222F0070CFCE80223E14632
:104A000003F000485FEA080C02D00FF2702C0DE0B2
:104A10005FEA045C02D50FF2682C07E05FEAC47C11
:104A200002D00FF2602C01E0AFF2700C4FF0FF38B3
:104A300023F00043CDF850C065280CD006DC452893
:104A400009D046281DD047283DD13DE0662818D022
:104A500067287ED138E00021112F01DB112000E012
:104A6000781CCDE9000106A90EA8FFF7DDFCDDE901
:104A70000F010E9A03910021009207F1010A04919F
:104A80004DE04FF000400097CDE9011006A90EA8B7
:104A9000FFF7CAFCDDE90F0203920E9B1199002279
:104AA000DDF80CA00093049211B9791C00EB010A07
:104AB000B7EB0A0004D4C0F1FF3007F1010A0490FB
:104AC000AAEB0700019044E0012F00DA0127002142
:104AD000112F01DD112000E03846CDE9000106A9C3
:104AE0000EA8FFF7A1FCDDE90F010E9A039100214A
:104AF00004910092BA4621070CD40399514500DA7B
:104B00008A46BAF1010F05DD009AAAF10101515C54
:104B1000302908D0B84202DA10F1040F06DA012178
:104B2000CDE9011015E0AAF10101E9E7002805DC53
:104B3000049901440491AAEB000102E0411C514593
:104B400000DD8A460499401A401C01904FF0004055
:104B50000290200704D40198504501DBCDF8048071
:104B600000208DF84F0002980DF14F07B0F1004F73
:104B700025D02B200E9002984FF0020800280CDA66
:104B8000404202902D200E9007E00A210298FBF788
:104B90006DFB3031029007F8011DB8F10001A8F15A
:104BA0000108F2DC02980028EFD1791E0E980870F7
:104BB000307800F0200040F0450007F8020D12A800
:104BC000C01B00F107081498007800B1012000EB29
:104BD0000A01019801EBE07105984144401A401E1A
:104BE0000590E00306D45B462146179A059800F02D
:104BF0005DF805441498007818B15A461799904703
:104C00006D1CE00324D55B462146179A059800F0F9
:104C10004DF805441CE00498002807DBDDE903019A
:104C2000884203DD0098405C179901E01799302015
:104C30005A469047049805F10105401C04900198DC
:104C4000401E019004D12E205A46179990476D1CA2
:104C5000BAF10001AAF1010ADDDC05E017F8010B49
:104C60005A46179990476D1CB8F10001A8F1010848
:104C7000F4DC5B462146179A0598ABE62D00000050
:104C80002B000000200000002DE9F0410446002523
:104C90001E461746880404D405E039462020B04754
:104CA0006D1C641EF9D52846BDE8F0812DE9F04160
:104CB000044600251E469046C80301D5302700E073
:104CC0002027880404D505E041463846B0476D1CCE
:104CD000641EF9D52846BDE8F081000030EE600A78
:104CE0000849DFED090A10EE100A884202DD30EEB5
:104CF000600A704710EE100A04498842F9D930EE74
:104D0000200A7047000034430000B443000034C35D
:104D100010B560F3070461F30F2462F3174463F3E3
:104D20001F6400EE104A10BD13B54FF0FF3301228F
:104D300069460248FDF75EFF00981CBD840700200D
:104D400010B54FF47A7304685A429C4201DD036047
:104D500002E0944200DA02600868984201DD0B60CC
:104D600010BD9042FCDA0A6010BD00002DED028BF0
:104D70008CB0FCF7A1FBFEF76FFEFEF747F9FEF7DC
:104D800027F9FEF7F3F8FEF7E3F9FEF701FAFEF76D
:104D90001FFAFEF73DFAFEF78FFAFEF7C1FAFEF7AB
:104DA00023FBFEF7FBFBFEF777FCFEF791FCFEF71B
:104DB000ABFCFEF7C5FCFEF727FCFEF7ABFBFEF7EE
:104DC00077FBFEF7D9FCFEF7C7FBFEF770FDFEF799
:104DD00054FD0021102330A20846FEF7FAFD002101
:104DE0003048FDF7D9FB04212E48FDF7D5FB0821FB
:104DF0002C48FDF7D1FB0C212A48FDF7CDFB3C21C7
:104E00002948FDF727F93C212848FDF723F900211F
:104E1000084600F065F800F0EDF85F21012000F091
:104E200009F92348FCF7A4FFFCF750F9DFF8849058
:104E3000214F9FED228B4FF01008CDF80080052305
:104E400002210020D9F80020FEF78EFD97ED011A0F
:104E5000D7ED020A97ED030AFBF710FD0446B86888
:104E6000FBF7F1F905460E46F868FBF7ECF906AAE0
:104E70000A9482E863008DED048B01238DED028B93
:104E80008DED008B1A4619460EA0FFF79DFA2146BC
:104E9000484200F065F8D0E76F6C65642072656188
:104EA00064790000FC040020B404002064060020A3
:104EB0008C05002014010020C0000020000000002C
:104EC0000000F03F25642C25642C25642C25662CDD
:104ED00025662C25662C25662C25662C25640A0063
:104EE00073B501A96846FFF72BFF4FF400710098D6
:104EF0004D10194C002805DD00222046FCF7E0F893
:104F0000012204E001222046FCF7DAF800222946BB
:104F10002046FCF7D5F80098FBF717FC0F4D2968E1
:104F200048634FF4806101984E00002805DD01229E
:104F30002046FCF7C5F8002204E000222046FCF7DA
:104F4000BFF8012231462046FCF7BAF80198FBF77A
:104F5000FCFB296888637CBD00040240FC0400203F
:104F600070B50E46034600F01DF8094C00221846A5
:104F70002168FEF71FFC0546012230462168FEF736
:104F800019FC01462846BDE87040FFF7A9BF0000A4
:104F9000EC0000200246012000E05043491EC9B247
:104FA000FBD270470A4800B502680A490978521ACC
:104FB0000A2A0BD30160084800F016F8074940425E
:104FC0000860074800F010F80649086000BD0000BE
:104FD0002001002020000020B4040020EC0000206C
:104FE00064060020F00000200168486A002200B238
:104FF0004A62704710B50E4C002208212046FCF78B
:105000005FF8002220212046FCF75AF84FF49D510A
:10501000012000F04FF8002201212046FCF750F853
:1050200020460022BDE810400421FCF749B80000EA
:10503000001802402DE9F0411C4F1D4E0C466FF048
:10504000620501280AD002281FD101220821384612
:10505000FCF736F8002C1ADD012219E00122114676
:105060003846FCF72DF8002C01DD002200E001227B
:1050700002213846FCF724F83460632C01DD6324F8
:1050800002E0AC4200DA2C463460BDE8F081002238
:1050900010213846FCF714F87460632C01DD63249A
:1050A00002E0AC4200DA2C467460EEE700180240E1
:1050B000B40000202DE9F04100251C4E0C460128CB
:1050C00002D002281BD10BE0012211463046FBF72B
:1050D000F7FF002C01DD002200E0012202210AE09E
:1050E000012208213046FBF7EBFF002C01DD0122F5
:1050F00000E0002210213046FBF7E2FF25460024A5
:1051000040F632070AE004213046FBF7D1FF00BF2A
:1051100000BF384600BF401EFCD2641C2846FBF787
:1051200014FBB4EB400FEEDBBDE8F0810018024049
:1051300030B5384A384953781370C854A1F5807196
:10514000C8545B1CDBB253700C780020552C5ED128
:105150000B2B5DD300242346CD5C5B1C2C44E4B2B6
:105160000A2BF9DB8B7AA34251D14B78503B0A2BA7
:105170004DD2DFE803F0050D151D252D353B4147C8
:1051800051F8023FC2F802304968C2F806103EE00A
:1051900051F8023FC2F80A304968C2F80E1036E0F2
:1051A00051F8023FC2F812304968C2F816102EE0DA
:1051B00051F8023FC2F81A304968C2F81E1026E0C2
:1051C00051F8023FC2F822304968C2F826101EE0AA
:1051D00051F8023FC2F82A304968C2F82E1016E092
:1051E00051F8023F53634968916310E051F8023F60
:1051F000D363496811640AE051F8023F5364496877
:10520000916404E051F8023FD3644968116550701D
:1052100030BD0000580000202802002000000000DF
:1052200000000000002F000000000700070000142D
:105230007F147F1400242A7F2A120062640813233B
:1052400000364955225000000503000000001C22D2
:105250004100000041221C000014083E0814000810
:10526000083E0808000000A06000000808080808C0
:10527000000060600000002010080402003E514958
:10528000453E0000427F40000042615149460021F6
:1052900041454B31001814127F1000274545453910
:1052A000003C4A494930000171090503003649496B
:1052B000493600064949291E000036360000000024
:1052C000563600000008142241000014141414146F
:1052D0000000412214080002015109060032495918
:1052E000513E007C1211127C007F49494936003E34
:1052F00041414122007F4141221C007F49494941EF
:10530000007F09090901003E4149497A007F0808E8
:10531000087F0000417F4100002040413F01007FA5
:1053200008142241007F40404040007F020C027F71
:10533000007F0408107F003E4141413E007F090983
:105340000906003E4151215E007F091929460046A9
:10535000494949310001017F0101003F4040403F80
:10536000001F2040201F003F4038403F00631408CA
:1053700014630007087008070061514945430000A5
:105380007F41410000552A552A55000041417F00C8
:1053900000040201020400404040404000000102BD
:1053A0000400002054545478007F484444380038A6
:1053B0004444442000384444487F0038545454182E
:1053C00000087E0901020018A4A4A47C007F080440
:1053D00004780000447D4000004080847D00007F10
:1053E000102844000000417F4000007C041804782D
:1053F000007C0804047800384444443800FC242429
:1054000024180018242418FC007C08040408004810
:105410005454542000043F444020003C4040207C31
:10542000001C2040201C003C4030403C0044281020
:105430002844001CA0A0A07C004464544C441414D4
:10544000141414140000000000000000000000000C
:1054500000000000000000F8000000000000003321
:105460003000000000100C06100C060000000000C8
:105470000000000040C07840C0784000043F0404B1
:105480003F040400007088FC08300000001820FF72
:10549000211E0000F008F000E018000000211C03AD
:1054A0001E211E0000F00888700000001E21232429
:1054B0001927211010160E00000000000000000047
:1054C00000000000000000E01804020000000007D7
:1054D0001820400000020418E000000000402018DE
:1054E00007000000404080F0804040000202010FB1
:1054F00001020200000000F0000000000101011F95
:1055000001010100000000000000000080B07000F8
:105510000000000000000000000000000001010188
:105520000101010100000000000000000030300017
:1055300000000000000000008060180400601806F1
:105540000100000000E010080810E000000F10202B
:1055500020100F00001010F8000000000020203F75
:1055600020200000007008080888700000302824FF
:1055700022213000003008888848300000182020A0
:1055800020110E000000C02010F8000000070424C5
:10559000243F240000F8088888080800001921200A
:1055A00020110E0000E0108888180000000F112064
:1055B00020110E0000380808C83808000000003F1D
:1055C000000000000070880808887000001C22217C
:1055D00021221C0000E010080810E0000000312229
:1055E00022110F00000000C0C000000000000030C9
:1055F000300000000000008000000000000080601B
:10560000000000000000804020100800000102049B
:105610000810200040404040404040000404040482
:10562000040404000008102040800000002010083E
:1056300004020100007048080808F0000000003073
:1056400036010000C030C828E810E0000718272401
:1056500023140B000000C038E0000000203C2302AF
:105660000227382008F8888888700000203F202012
:1056700020110E00C0300808080838000718202044
:105680002010080008F808080810E000203F20203B
:1056900020100F0008F88888E8081000203F20201C
:1056A0002320180008F88888E8081000203F200010
:1056B00003000000C0300808083800000718202048
:1056C000221E020008F808000008F808203F210107
:1056D00001213F20000808F8080800000020203FB2
:1056E0002020000000000808F8080800C080808022
:1056F0007F00000008F888C028180800203F20011B
:105700002638200008F8080000000000203F202074
:105710002020300008F8F800F8F80800203F003F8B
:10572000003F200008F830C00008F808203F2000A3
:1057300007183F00E01008080810E0000F102020B4
:1057400020100F0008F808080808F000203F210189
:1057500001010000E01008080810E0000F182424E0
:1057600038504F0008F8888888887000203F200053
:10577000030C302000708808080838000038202109
:1057800021221C00180808F8080818000000203F13
:105790002000000008F808000008F808001F20207A
:1057A00020201F000878880000C83808000007384B
:1057B0000E010000F80800F80008F800033C07009C
:1057C000073C0300081868808068180820302C0304
:1057D000032C30200838C800C83808000000203FDB
:1057E0002000000010080808C838080020382621CA
:1057F00020201800000000FE020202000000007FCE
:1058000040404000000C30C00000000000000001DB
:105810000638C00000020202FE00000000404040C6
:105820007F000000000004020202040000000000EB
:105830000000000000000000000000008080808068
:105840008080808000020204000000000000000050
:1058500000000000000080808080000000192422E9
:1058600022223F2008F8008080000000003F112025
:1058700020110E000000008080800000000E11202A
:1058800020201100000000808088F800000E112008
:1058900020103F200000808080800000001F222216
:1058A00022221300008080F0888888180020203F82
:1058B000202000000000808080808000006B949495
:1058C0009493600008F8008080800000203F210051
:1058D00000203F2000809898000000000020203F1A
:1058E00020200000000000809898000000C0808008
:1058F000807F000008F8000080808000203F2402A4
:105900002D302000000808F8000000000020203F93
:10591000202000008080808080808000203F200048
:105920003F20003F8080008080800000203F2100D9
:1059300000203F200000808080800000001F202089
:1059400020201F00808000808000000080FFA120B8
:1059500020110E000000008080808000000E1120C9
:1059600020A0FF80808080008080800020203F2158
:10597000200001000000808080808000003324240B
:1059800024241900008080E0808000000000001FB7
:10599000202000008080000000808000001F202068
:1059A00020103F20808080000080808000010E3029
:1059B0000806010080800080008080800F300C038A
:1059C0000C300F0000808000808080000020312E8D
:1059D0000E312000808080000080808080818E7069
:1059E0001806010000808080808080000021302C1B
:1059F0002221300000000000807C02020000000034
:105A0000003F40400002027C800000000040403F18
:105A10000000000000000000FF0000000000000087
:105A2000FF0000000000041464040CB402024233BE
:105A30000200000000000000000000000000000064
:105A40000000000040412111090503FF0305091171
:105A500021414000000000000000000000000000A4
:105A6000000000001010D0FF900010919690F09070
:105A700094931000000000000000000000000000EF
:105A800000000000040300FF000104040404FF04FC
:105A900004040400000000000000000000000000FA
:105AA00000000000008060F80704E4A4A4BFA4A4E0
:105AB000E4040000000000000000000000000000FE
:105AC00000000000010000FF40407F4A4A4A4A4A65
:105AD0007F404000000000000000000000000000C7
