:020000040800F2
:10000000F00C00209D01000877360008232B000823
:10001000753600087108000839410008000000002A
:10002000000000000000000000000000EB370008A6
:100030000909000800000000E9370008ED37000852
:10004000B7010008B7010008B7010008B7010008B0
:10005000B7010008B7010008B7010008B7010008A0
:10006000B7010008B7010008B7010008B701000890
:10007000B7010008B7010008B7010008B701000880
:10008000B7010008B7010008B7010008B701000870
:10009000B7010008B7010008B7010008B701000860
:1000A000B701000895380008B7010008B70100083B
:1000B000A1380008AD380008B9380008B7010008B9
:1000C000B7010008B7010008B7010008B701000830
:1000D000B701000819400008214100082D4100081F
:1000E000B7010008B7010008B7010008B701000810
:1000F000B7010008B7010008B7010008B701000800
:10010000B7010008B7010008C5380008B7010008AA
:100110002D3D0008393D000849390008A93900087B
:10012000B7010008B701000875080008B70100080A
:10013000B7010008B7010008B7010008B7010008BF
:10014000B7010008B7010008B7010008B7010008AF
:10015000B7010008B701000881080008B7010008CE
:10016000B7010008B7010008B7010008B70100088F
:10017000B7010008B7010008B7010008000000003F
:10018000B7010008B7010008DFF80CD000F0A2FAB0
:1001900000480047614D0008F00C002006488047E9
:1001A00006480047FEE7FEE7FEE7FEE7FEE7FEE75C
:1001B000FEE7FEE7FEE7FEE7853800088901000854
:1001C0002DE9F05F0546002092469B46884606468C
:1001D000814640241BE0284641464746224600F01F
:1001E00064F953465A46C01A914110D31146184635
:1001F000224600F04BF92D1A67EB01084F462246C4
:100200000120002100F042F917EB00094E41201EA9
:10021000A4F10104DFDC484631462A464346BDE8E6
:10022000F09FD2B201E000F8012B491EFBD27047CB
:100230000022F6E710B513460A4604461946FFF7B2
:10024000F0FF204610BD2DE9FE4F81EA030404F0C3
:10025000004421F0004100944FF0000B23F00043D4
:1002600050EA01045ED052EA03045BD0C3F30A549F
:10027000C1F30A552C44A4F2F3340194A0FB0254B8
:10028000C1F3130141F48011C3F3130343F480134A
:1002900001FB024400FB034E840A970A44EA81549E
:1002A00047EA8357A4FB076802958D0A05FB07857B
:1002B0004FEA932C04FB0C542705029D4FEA065885
:1002C00047EA1637B5EB08056EEB070C870E920E62
:1002D00047EA811742EA8312A7FB0201B6EB0B0142
:1002E00064EB00042B0D43EA0C335E1844EB1C5006
:1002F000DA465146E7FB0201C5F313044FEA0B331C
:1003000043EA14534FEA0432019C43EA0603A4F182
:100310000C040294009CCDE900B400F0E5F803B0B1
:10032000BDE8F08F00200146F9E72DE9F04D81EAA4
:10033000030404F0004B21F0004514464FF0000A7E
:1003400023F0004150EA050220D054EA01021DD0FA
:10035000C5F30A570246C5F31303C1F31300C1F3F3
:100360000A5640F4801543F48013A7EB0608101BCF
:10037000D64608F2FD3873EB050002D308F10108F8
:1003800001E092185B41B8F1000F03DA002001464A
:10039000BDE8F08D00204FF48011064684460EE043
:1003A000171B73EB050705D3121B63EB050306430D
:1003B0004CEA010C49084FEA300092185B4150EAC0
:1003C0000107EDD152EA030012D082EA040083EA69
:1003D0000501084305D0101BAB4106D201220023C2
:1003E00006E000224FF0004302E06FF001025310DC
:1003F0001AEB06004CEB085110EB0A0041EB0B0125
:10040000BDE8F04D00F061B80EB540F23341029105
:100410000021CDE900110A460B4600F065F803B053
:1004200000BD70B5C1F30A5201F000450024C1F3CC
:10043000130140F2FF3341F480119A4201DA0020A7
:1004400070BD40F233439A42A2F2334203DC52427F
:1004500000F02BF800E090402C43F1D0404270BDFA
:1004600030B50B46014600202022012409E021FA84
:1004700002F59D4205D303FA02F5491B04FA02F581
:100480002844151EA2F10102F1DC30BD202A04DB54
:10049000203A00FA02F1002070479140C2F1200397
:1004A00020FA03F3194390407047202A04DB203AD6
:1004B00021FA02F00021704721FA02F3D040C2F184
:1004C0002002914008431946704710B5141E73F17D
:1004D000000408DA401C41F1000192185B411A4304
:1004E00001D120F0010010BD2DE9F04D92469B4650
:1004F00011B1B1FA81F202E0B0FA80F220329046F6
:10050000FFF7C4FF04460F4640EA0A0041EA0B0128
:1005100053465A46084313D0114653EA010019D0F6
:10052000C8F140025046FFF7C0FF05460E46504650
:1005300059464246FFF7AAFF084305D0012004E0D0
:1005400020463946BDE8F08D0020054346EAE076B6
:100550002C4337430A986305E40AA0EB0800002205
:10056000FD0A44EA47540A3002D500200146E9E773
:10057000010510196941DDE9084500196941BDE827
:10058000F04DA2E72DE9FE4F804681EA0300C00F3F
:100590000C46009021F0004123F00045B8EB02002A
:1005A000A94105D24046214690461C460B460246CC
:1005B00023F00040104347D0270DC7F30A00C3F3D0
:1005C0000A510290401A019040286BDAC3F31300DD
:1005D00040F4801B0098924620B10023D2EB030A1E
:1005E00063EB0B0B01985946C0F140025046FFF7F0
:1005F0004DFF06460D4650465946019A00F07CF8DC
:1006000010EB08006141002487EA115284EAE77385
:100610001A4340D0009A62B3019A012A4FEA075266
:1006200015DC001B61EB02014FF0004202EA0752A9
:10063000CDE90042001C41F5801132462B46FFF700
:1006400053FF03B0BDE8F08F40462146F9E7001B99
:1006500061EB0201001C41F5801300185B4120187A
:10066000A2F5001747EB030140EAD570B6196D41BA
:1006700011E06D084FEA360645EAC0754FEA0752A9
:10068000001B61EB0201001C41F5801149084FEA93
:1006900030000019514132462B4603B0BDE8F04FFF
:1006A000FFF713BF0098012240000023D0EB0202A5
:1006B00063EBE073009821464FEAE074B8EB00006A
:1006C00061EB0401E9E783F000435BE781F000415F
:1006D00058E70000064C074D06E0E06840F00103D3
:1006E00094E8070098471034AC42F6D3FFF750FD6A
:1006F000B85B0008D85B0008202A06DBCB17203A3D
:1007000041FA02F043EAE07306E041FA02F3D04016
:10071000C2F1200291400843194670470EB5C10F3F
:1007200080EAE0700844CA07002140F233438DE8B4
:100730000E000A460B46FFF7D7FE03B000BD0028A7
:1007400000DC404270470000464910B54A6822F478
:1007500040324A604A6843681A434A6001684A68FE
:1007600022F480724A6001684A68036942EA0322FF
:100770004A6001684A6822F040724A6001684A682B
:1007800083681A434A6001688A6822F400628A60BA
:1007900001688A68C3681A438A60816A6FF0706270
:1007A000D14201688A6822F070628A6001688A68B2
:1007B0000CD0836A1A438A6001688A6822F040522A
:1007C0008A6001688A68C36A1A4301E022F04052D5
:1007D0008A6001688A6822F002028A6001688A6879
:1007E000037E42EA43028A6090F8201000290168E3
:1007F0004A680FD042F400624A6001684A6822F4F5
:1008000060424A6001684A68174C436A04EB43330C
:100810001A4301E022F400624A600168CA6A22F4C5
:100820007002CA620168CA6A838B104C04EB0353DE
:100830001A43CA6201688A6822F400728A600168F9
:100840008A6890F8303042EA43228A6001688A68F8
:1008500022F480628A6001688A68406942EA8020E6
:10086000886010BD0023014000E0FFFF0000F0FFA2
:10087000FEE70000014800F0A7B9000030080020A2
:10088000014800F0A1B90000900800200168182379
:10089000CAB2103AB2FBF3F2054B6FF30901032A17
:1008A0009B5CC36500D9091D81650846704700003F
:1008B0008C5A000810B5014600208B698A6A4FF0F7
:1008C000C07453B1B3F5005F15D072B1012A0CD0DA
:1008D000022A0AD0032A09D104E01AB1012A06D05B
:1008E000022A03D1C96AC90100D5012010BDC96A15
:1008F000A142FAD010BD002AF7D0012AF2D0022A74
:10090000F3D0032AF3D010BD704772B6FEE70000A3
:1009100078B50024009490F83C20012A19D00122D7
:1009200080F83C200A6807230568092A13D9EE6875
:100930000A3A02EB420293409E43EE600B788A68CB
:100940000A3B03EB43039A400368DD682A43DA60FD
:1009500010E0022078BD2E6902EB420293409E43D4
:100960002E610B788A6803EB43039A4003681D6984
:100970002A431A614A681F23072A13D205686E6B3F
:10098000521E02EB820293409E436E630B790A88EB
:100990005B1E92B203EB83039A4003685D6B2A43AC
:1009A0005A6327E005680D2A12D22E6BD21F02EB84
:1009B000820293409E432E630B790A88DB1F92B21A
:1009C00003EB83039A4003681D6B2A431A6311E00B
:1009D000EE6A0D3A02EB820293409E43EE620B797F
:1009E0000A880D3B92B203EB83039A400368DD6AE9
:1009F0002A43DA62164B0568144A9D4206D10D68F7
:100A0000122D03D1556845F48005556005689D4257
:100A100018D10B68102B01D0112B13D1536843F45C
:100A200000035360096810290CD10A490A4A096871
:100A3000B1FBF2F101EB8101490000E0491E009198
:100A40000029FBD180F83C40002078BD0023014004
:100A5000002001401C00002040420F0070B504003F
:100A60004FF0000503D0206C002610B107E00120F4
:100A700070BD204600F01CF8666484F83C60206C71
:100A8000C00610D4206C20F4885040F0020020648E
:100A90002046FFF759FE6664206C20F0020040F00B
:100AA0000100206400E0012584F83C60284670BD08
:100AB00010B586B0044614216846FFF7B9FB11490A
:100AC000206888421CD110480021026842F48062EC
:100AD0000260006800F4806005900B4814380268DA
:100AE00042F001020260006800F0010005900F2052
:100AF00000900320CDE901016946044800F0B0F9F7
:100B000006B010BD002201404438024000000240FF
:100B10002DE9F0410446876D00F0A8FA064694F8E6
:100B200035000025022806D08020606584F8345006
:100B30000120BDE8F0812068016821F01601016004
:100B40002068416921F080014161206C08B9A06CE6
:100B500020B12068016821F0080101602068016867
:100B600021F0010101600CE000F080FA801B0528F3
:100B700007D920206065032084F8350084F83450BC
:100B8000D7E720680068C007EED194F85C103F20DA
:100B90008840B860012084F8350084F83450002083
:100BA000C7E790F83510022903D080214165012064
:100BB0007047052180F835100068016821F00101B7
:100BC00001600020704700002DE9F84304464FF013
:100BD0000009CDF8009063484FF41651A56D0068E8
:100BE000B0FBF1F72E6894F85C10082000FA01F1D0
:100BF00031420FD021680A6852070BD50A6822F0EB
:100C000004020A6094F85C108840A860606D40F0AF
:100C10000100606594F85C104FF0010808FA01F0DB
:100C2000304208D021684969090604D5A860606D82
:100C300040F00200606594F85C1004208840304267
:100C400008D021680968890704D5A860606D40F064
:100C50000400606594F85C1010208840304218D081
:100C600021680968090714D5A8602068016849034C
:100C700004D50068000308D5A16C07E00168C90528
:100C800003D4016821F008010160216C09B12046FC
:100C9000884794F85C1020208840304231D0216889
:100CA0000968C9062DD5A86094F835000528206884
:100CB000016806D0490347D5006800031DD4616C64
:100CC0001CE021F0160101602068416921F08001DB
:100CD0004161206C08B9A06C20B12068016821F046
:100CE0000801016094F85C103F208840A86084F8F7
:100CF000358084F83490216D1FE0E16B09B1204606
:100D00008847606D00282BD0606DC00714D0052087
:100D100084F835002068016821F001010160009825
:100D2000401C0090B84203D820680068C007F6D184
:100D300084F8358084F83490E16C002910D001B03B
:100D40002046BDE8F04308470168C905D5D40168CD
:100D500021F01001016084F8358084F83490CCE7EC
:100D6000BDE8F8831C0000202DE9F041044600F0A6
:100D70007DF906465CB1022084F83500002584F830
:100D800034502068016821F0010101600DE001206C
:100D9000BDE8F08100F06AF9801B052805D9202004
:100DA0006065032084F83500F2E720680068C0071A
:100DB000F0D12268116820480140D4E901031843AA
:100DC000D4E903363343184363691843A3691843CE
:100DD000E3691843236A18430843616A042903D16D
:100DE000D4E90B1319430843106020684069666A10
:100DF00020F0070130460E43012704280CD1A06AD9
:100E00000643E06A40B12046FFF754FD20B1402080
:100E1000606584F83570BAE7206846612046FFF7C0
:100E200035FD94F85C203F2191408160656584F830
:100E300035700020ACE700003F8010F070B504462C
:100E400000F014F90546601C02D004480078044400
:100E500000F00CF9401BA042FAD370BDA0000020A6
:100E60002DE9F84FDFF8BCA10022012503264FF041
:100E70000F090AF1040BAAF1040E00BF0B6805FA72
:100E800002F42340A34270D10F7907F00307012F2A
:100E900001D0022F16D187684FEA420806FA08FCF3
:100EA00027EA0C07D1F80CC00CFA08FC4CEA070C36
:100EB000C0F808C04768A7430C79C4F300149440F5
:100EC0003C4344600C79E443A4070AD0C4684FEA69
:100ED000420C06FA0CF7BC438F6807FA0CF727435D
:100EE000C7600C7904F00304022C12D1D40800EB83
:100EF000840CDCF820405707FF0E09FA07F824EAB3
:100F00000804D1F8108008FA07F848EA0408CCF879
:100F1000208004684FEA420C06FA0CF7BC430F79B4
:100F200007F0030707FA0CF7274307604C6814F42F
:100F3000403F70D03C4C276847F4804727602468C6
:100F400022F0030704F480440094384C07EB040CAF
:100F5000DCF8084897074FEA177809FA08F7BC4306
:100F6000334FB84202D1002724E054E0314FB84259
:100F700001D101271EE0304FB84201D1022719E00C
:100F80002E4FB84201D1032714E02D4FB84201D1B2
:100F900004270FE02B4FB84201D105270AE02A4F62
:100FA000B84201D1062705E0284FB84201D10727F2
:100FB00000E0082707FA08F72743CCF80878DAF8A2
:100FC00000405746D1F804C09C435FEACC2C00D5C2
:100FD0001C433C60DBF800405F46D1F804C09C43F2
:100FE0005FEA8C2C00D51C433C60DEF8004077465D
:100FF000D1F804C09C435FEA8C3C00D51C433C60A4
:10100000084F083F3C68D1F804C09C435FEACC3CE1
:1010100000D51C433C60521C102AFFF42FAFBDE8E2
:10102000F88F0000083C0140443802400030014085
:10103000000002400004024000080240000C024090
:10104000001002400014024000180240001C024040
:10105000426921EA02030A4043EA02418161704782
:101060000AB1816170470904FBE70000014880680C
:1010700070470000A000002070B5040025D094F84F
:101080003D00002520B984F83C50204600F050F97E
:10109000242084F83D002068016821F001010160EE
:1010A0002068016841F4004101602068016821F472
:1010B0000041016000F0FCFA4D4A6168914201D89C
:1010C0004C4900E04C49884201D2012070BD4B4997
:1010D0002368B0FBF1F15E6826F03F060E435E60C8
:1010E0006368934206D94FF4967359434FF47A7369
:1010F000B1FBF3F12368491C1E6A26F03F06314319
:1011000019626168914210D84900401EB0FBF1F2AB
:10111000521CC2F30B02042A01D2042022E0B0FBCD
:10112000F1F0401CC0F30B001CE0A268F2B301EB2D
:10113000C10303EB0116431EB3FBF6F35B1C43F440
:1011400080431B0549D092B301EBC10202EB0111B0
:10115000401EB0FBF1F0401CC0F30B0040F4804097
:1011600040F400402168CA694CF6FF739A4310436B
:10117000C861D4E9071001432068026822F0C00268
:1011800011430160D4E9030101432068826848F2F9
:10119000FF339A4311438160D4E905010843216874
:1011A000CA6822F0FF021043C86001E00EE016E0BA
:1011B0002068016841F0010101602564202084F865
:1011C0003D00256384F83E50002070BD01EB4106D0
:1011D000431EB3FBF6F35B1CB3E70120C2E701EB50
:1011E0004101401EB0FBF1F0401CC0F30B00B7E71B
:1011F000A086010080841E0000093D0040420F00CF
:101200002DE9FF4F83B09A46DDE9119793460446D6
:10121000DDF84080FFF72AFF054694F83D002028BE
:101220007FD11923012240492046009501F012FD8B
:10123000002876D194F83C00012872D0012084F86F
:101240003C0020680168C90703D1016841F0010131
:1012500001602068016821F400610160212084F8A8
:101260003D00402084F83E0000262664C4F8248017
:10127000A4F82A90608D20852C48E062CDE90075A5
:1012800053465A462046049901F064FC70B930E098
:101290002A463946204601F083FD58B1206C0428C7
:1012A00004D12068016841F400710160012007B099
:1012B000BDE8F08F606A216800780861606A401CB0
:1012C0006062218D491E89B22185628D521E628520
:1012D00022685369DB435B070BD469B10078106166
:1012E000606A401C6062208D401E2085608D401E1B
:1012F0006085208D0028CBD12A463946204601F052
:101300007DFC0028CAD154F83D0B016841F40071FE
:101310000160202004F81E09E67766770020C6E702
:10132000FFE70220C3E70000020010000000FFFFFB
:101330002DE9F04186B0044614216846FEF778FF97
:1013400022683A4C384B00213848122603250427DE
:1013500010349A4219D1026842F002020260006819
:1013600002AA00F00200059082E8A200C020CDE9A8
:10137000000669462E48FFF773FD206840F4001010
:101380002060206800F400101AE02A4B9A421BD11A
:10139000026842F020020260006802AA00F0200009
:1013A0000590CDE9005682E8A20069462248FFF781
:1013B00057FD206840F480002060206800F4800021
:1013C000059006B0BDE8F0811C4B9A42F9D18846E1
:1013D000016841F004010160016801F00401059118
:1013E000016841F0010101600068694600F00100F8
:1013F000059050158DE84101CDE903571048FFF7DE
:101400002FFD4FF480708DE84101CDE90357694607
:101410000C48FFF725FD206840F40000206020689C
:1014200000F40000CCE700000054004030380240D7
:10143000000402400058004000140240005C0040DC
:10144000000802400000024002488168027811440E
:1014500081607047A00000200B4810B5016841F47E
:1014600000710160016841F480610160016841F42C
:1014700080710160032000F06FF80F2000F006F883
:1014800000F024F8002010BD003C024070B50D4D66
:1014900004464FF47A712878B1FBF0F00A490968E4
:1014A000B1FBF0F000F00CFB48B9102C07D2002281
:1014B0002146501E00F030F800206C6070BD012005
:1014C00070BD0000A00000201C0000200A4808B5E4
:1014D000016841F480410160006800F480400090A0
:1014E0000548001F016841F080510160006800F06C
:1014F0008050009008BD000044380240002809DBFD
:1015000000F01F02012191404009800000F1E0201D
:10151000C0F8001170470000F0B40E4B1B680C4679
:10152000C3F30223C3F10705042D00D90425191DB7
:10153000072901D2002300E0DB1E012606FA05F18F
:10154000491E214099409E40761E16403143F0BC12
:1015500002F036BE0CED00E0064900F00702086814
:101560004FF6FF03184040EA0220034A1043086088
:10157000704700000CED00E00000FA052DE9F0478F
:101580000E46050065D0DFF81481D8F80000F7B2E8
:1015900000F00700B04207D288F80070D8F80000C9
:1015A00000F00700B04254D128683D4C810712D5A5
:1015B000400703D5206840F4E050206028780007F9
:1015C00003D5206840F4604020602068A96820F0BE
:1015D000F000084320602878C0072DD030496868A3
:1015E0000839012812D0022813D0032811D0096825
:1015F000890700292DDA216821F0030101432160C8
:10160000FFF734FD814641F2883A0EE0096889030C
:10161000EFE709688901ECE7FFF728FDA0EB090176
:10162000514502D90320BDE8F0872068696800F0C1
:101630000C00B0EB810FEFD1D8F80010404601F05C
:101640000701B14207D90770006800F00700B042F7
:1016500001D00120E7E72878400705D52068E96830
:1016600020F4E050084320602878000706D5206861
:10167000296920F4604040EAC100206000F038F899
:101680002168084AC1F30311515CC840064908604B
:1016900006480068FFF7FAFE0020C4E7003C02405D
:1016A00008380240745A00081C000020A4000020E2
:1016B0000448054900680968044AC1F38221515C65
:1016C000C84070471C00002008380240845A0008B7
:1016D0000448054900680968044AC1F34231515C75
:1016E000C84070471C00002008380240845A000897
:1016F000154810B5006810F00C02144813D01449B6
:10170000042A0FD0082A0ED10F4C241F2268236808
:1017100002F03F025B0207D52068C0F38810A0FBEF
:10172000010106E0084610BD2168C1F38811A1FB44
:1017300000010023FEF744FD2168C1F30141491C6B
:101740004900B0FBF1F010BD083802400024F4005D
:1017500040787D012DE9F84F04006ED02078DFF845
:101760004C93C007A9F104054AD009F104000168AF
:10177000C1F38101012908D00068C0F3810002286B
:101780000AD1D9F80000400206D52868800337D571
:1017900060680028E1D033E06068B0F5803F10D089
:1017A000B0F5A02F286810D020F480302860286879
:1017B00020F4802028606068A8B1FFF757FC064637
:1017C0000DE0286840F48030F4E740F48020286081
:1017D000F7E700BFFFF74AFC801B642873D828682E
:1017E0008003F7D50CE0FFF741FC064605E000BF9B
:1017F000FFF73CFC801B6428F0D828688003F7D4EE
:101800002078DFF8AC8280074FF0000A3ED5A74869
:10181000001D016811F00C0F08D00068C0F38100B2
:1018200002280BD1D9F80000400207D428688007AD
:1018300016D5E068012800D112E033E1E068B8B1C4
:101840000120C8F80000FFF711FC064605E000BFC4
:10185000FFF70CFC801B0228C0D828688007F7D54A
:101860002868216920F0F80040EAC10028600DE0F6
:10187000C8F800A0FFF7FAFB064604E0FFF7F6FB06
:10188000801B02281FD828688007F7D4207800071B
:1018900022D5864F87486169703771B10121016097
:1018A000FFF7E4FB064604E0FFF7E0FB801B02289D
:1018B00009D838688007F7D50EE0C0F800A0FFF718
:1018C000D5FB064605E082E0FFF7D0FB801B02282F
:1018D0007DD838688007F7D42078400768D5DFF8CE
:1018E000CCB100270BF13C0BDBF80000C0000BD49F
:1018F000DBF8001041F08051CBF80010DBF800005D
:10190000012700F0805000906B4E3068C00510D465
:10191000306840F480703060FFF7A8FB009005E06D
:10192000FFF7A4FB0099401A022850D83068C00580
:10193000F6D55E4EA0686C3601280FD005283068B9
:1019400010D020F001003060306820F004003060DA
:10195000A068B8B1FFF78AFB00900FE0306840F054
:101960000100F4E740F004003060F7E7FFF77EFB8A
:101970000099411A41F28830814266D83068800768
:10198000F4D50EE0FFF772FB009007E0FFF76EFB67
:101990000099411A41F28830814256D83068800758
:1019A000F4D42FB1DBF8001021F08051CBF80010F7
:1019B000A069C8B33D49091D0968C1F38101022925
:1019C0004AD00228504607D0C8F8600000E03CE04A
:1019D000FFF74CFB04463BE04746C8F86000FFF7C2
:1019E00045FB064605E000BFFFF740FB801B0228D1
:1019F0002BD828688001F7D4D4E907010843A16AED
:101A00002E4A490802EB0141626A41EA8211084309
:101A100094F82C1040EA0161C9F8001001203866E2
:101A2000FFF724FB044606E03EE000BFFFF71EFB85
:101A3000001B022809D828688001F7D534E000BFD0
:101A4000FFF714FB001B022802D90320BDE8F88F22
:101A500028688001F4D427E00128F7D0D9F80000E5
:101A6000E26900F4800191421CD1226A00F03F013A
:101A7000914217D147F6C071626A0140B1EB821FF3
:101A800010D1A26A4FF0FF3300F4403103EB520251
:101A9000B1EB024F06D194F82C1000F07060B0EB5F
:101AA000016F01D00120D1E70020CFE704380240C8
:101AB00000004742800E4742007000400000FFFFD8
:101AC00010B5401EB0F1807F01D3012010BD4FF052
:101AD000E02460610F21601702F072FB0020A0611A
:101AE00007202061002010BD7047704770B590F846
:101AF0003C20012A32D0012480F83C40022280F8A8
:101B00003D2003685A689D6822F070060A683243D7
:101B10005A60134B02689A4214D0B2F1804F11D030
:101B2000104B9A420ED0104B9A420BD00F4B9A4258
:101B300008D00F4B9A4205D00E4B9A4202D00E4B62
:101B40009A4204D1496825F080031943916080F8D6
:101B50003D40002180F83C10084670BD022070BD59
:101B6000000001400004004000080040000C00405C
:101B700000040140004001400018004010B504007E
:101B800003D094F83D0010B107E0012010BD002003
:101B900084F83C00204600F01FF8022084F83D0045
:101BA000211D206801F006FF012084F8460084F81A
:101BB0003E0084F83F0084F8400084F8410084F837
:101BC000420084F8430084F8440084F8450084F817
:101BD0003D00002010BD000010B586B00446142161
:101BE0006846FEF725FB504B226800204F499A4279
:101BF00024D10A6842F001020A60096801F001017B
:101C000005914A4914390A6842F010020A600968CD
:101C100001F010010591591400910221CDE9011044
:101C200003900120049069464148FFF719F900220A
:101C300011461920FFF770FC192012E03B483D4B7C
:101C4000001F9A4211D1016841F002010160006851
:101C5000002200F00200059011461D20FFF75CFCF9
:101C60001D20FFF74BFC06B010BD334B9A420ED13E
:101C7000016841F0040101600068002200F00400E6
:101C8000059011461E20FFF747FC1E20E9E72B4B6D
:101C90009A420ED1016841F00801016000680022FB
:101CA00000F00800059011463220FFF735FC322085
:101CB000D7E7234B9A420ED1016841F01001016031
:101CC0000068002200F01000059011463620FFF752
:101CD00023FC3620C5E71B4B9A420ED1016841F028
:101CE000200101600068002200F0200005901146EC
:101CF0003720FFF711FC3720B3E71348824207D1A2
:101D0000086840F480300860086800F4803009E01A
:101D10000E488242A7D1086840F480200860086815
:101D200000F4802005909EE7000001404438024006
:101D3000001002400004004000080040000C004079
:101D400000100040001400400040014000480140E5
:101D500090F83D10012901D001207047022180F840
:101D60003D100168CA6842F00102CA60006811496A
:101D7000884214D0B0F1804F11D00F4988420ED064
:101D80000E4988420BD00E49884208D00D4988423E
:101D900005D00D49884202D00C49884204D181689F
:101DA00001F00701062903D0016841F0010101603B
:101DB000002070470000014000040040000800407F
:101DC000000C0040000401400040014000180040A9
:101DD00070B5044690F83C000025012817D0012674
:101DE00084F83C60022084F83D002068826822F07C
:101DF000770222F47F4282600868502838D00DDCD8
:101E000020284FD005DC90B3102811D14AE00220E1
:101E100070BD302846D040280AD13BE060282FD042
:101E200070280DD0B0F5805F03D0B0F5005F12D000
:101E3000012584F83D60002084F83C00284670BDF0
:101E4000CB68D1E90121206801F01CFE206881687F
:101E500041F0770109E0CB68D1E90121206801F068
:101E600011FE2068816841F480418160E1E719E05A
:101E7000CA684968206801F0D9FE5021206806E050
:101E8000CA684968206801F023FF6021206801F0DA
:101E900003FECEE7CA684968206801F0C7FE40210A
:101EA0002068F4E7226801461046F0E72DE9F0418A
:101EB0000D46040003D094F83D0018B108E001205D
:101EC000BDE8F081002084F83C00204600F040F896
:101ED000022084F83D002068816844F207029143A3
:101EE0008160211D206801F065FD2268906891697C
:101EF000166A2B68AF69034340F20330814341EA1D
:101F00000721A868EF6908434FF6FC418843E96858
:101F100040EA0720014328692F6A000140EA0730A0
:101F2000084369686D6926F0AA0646EA0515294343
:101F300093602268906154F8460B0162012004F816
:101F40001F09E0752076E0762077A0750020B7E7BE
:101F500070B586B0044614216846FEF769F9216819
:101F600000242F480225B1F1804F21D02D4A914203
:101F70001CD12B4914310A6842F002020A60096838
:101F800001F002010591016841F00401016000685F
:101F9000694600F004000590C0200090CDE901548E
:101FA0000320CDE903402048FEF75AFF06B070BD7C
:101FB0001B4910310A6842F001020A60096801F009
:101FC00001010591016841F001010160016801F022
:101FD00001010591016841F00201016000680126DC
:101FE00000F00200059020200090CDE90154CDE9D9
:101FF000034669460D48FEF733FF08200090CDE9FF
:102000000154CDE9034669460948FEF729FF00223D
:1020100011461C20FFF780FA1C20FFF76FFAC5E776
:102020003038024000040140000802400000024035
:102030000004024070472DE9F041054690F83C004D
:1020400000260C46012810D0012085F83C0072B112
:10205000042A1CD0082A2CD00C2A50D0012600209B
:1020600085F83C003046BDE8F0810220FBE7D4E96A
:102070000012E368286801F0EBFD2868816921F00F
:102080000C01816128688169A26811430FE0D4E9DD
:102090000012E368286801F02DFE2868816921F4A8
:1020A0004061816128688169A26841EA02218161F9
:1020B000D5E72868D4E9002C277B036A016A21F45C
:1020C00080710162C16923F4206321F0030141EAB8
:1020D0000C0121F0F00C39074FF420674CEA116134
:1020E00007EA02221A43C16102622868C16921F02D
:1020F0000C01C1612868C169A26811432BE02868FE
:10210000D4E90021E768036AD0F820C02CF4805C91
:10211000C0F820C0D0F81CC023F420432CF4407C2D
:102120004CEA012121F4704C4FF6FF7101EA0731AE
:102130004FF4204741EA0C0107EA02321A43C16119
:1021400002622868C16921F44061C1612868C169DF
:10215000A26841EA0221C16181E710B5040003D001
:1021600094F83D0010B107E0012010BD002084F874
:102170003C00204600F01EF8022084F83D00211D9E
:10218000206801F017FC012084F8460084F83E0026
:1021900084F83F0084F8400084F8410084F842004D
:1021A00084F8430084F8440084F8450084F83D0036
:1021B000002010BD70472DE9F04104460068C66854
:1021C00005694FF00007A90713D5B10711D5F91E0E
:1021D000016101202077206880698007204602D0B5
:1021E000FFF728FF04E000F0EBF8204600F07DF94F
:1021F0002777680716D5700714D521686FF004009B
:102200000861022020772068806910F4407F204612
:1022100002D0FFF70FFF04E000F0D2F8204600F0F4
:1022200064F92777280715D5300713D521686FF093
:1022300008000861042020772068C06980072046D4
:1022400002D0FFF7F7FE04E000F0BAF8204600F0F5
:102250004CF92777E80616D5F00614D521686FF0FB
:1022600010000861082020772068C06910F4407FC2
:10227000204602D0FFF7DEFE04E000F0A1F8204681
:1022800000F033F92777E80708D0F00706D0216877
:102290006FF001000861204600F028F9280608D5F3
:1022A000300606D521686FF0800008612046FFF7F0
:1022B0001BFC680608D5700606D521686FF0400043
:1022C0000861204600F013F9A8060AD5B00608D523
:1022D00021686FF0200008612046BDE8F041FFF75B
:1022E00004BCBDE8F081000070B586B0044614213E
:1022F0006846FDF79DFF2A4A2168002429480225E7
:10230000032691421FD1016841F00101016001687B
:1023100001F001010591016841F0020101600068CE
:10232000694600F002000590C0200090CDE90154FC
:102330001D48CDE90345FEF793FD0096CDE9015414
:1023400069461A4811E01A4A914215D1016841F0D4
:10235000080101600068694600F0080005904FF42C
:1023600070400090CDE901541248CDE9034500BF0B
:10237000FEF776FD06B070BD0F4A9142FAD10168B2
:1023800041F0100101600068694600F010000590FE
:1023900060200090CDE90154CDE903460748E7E706
:1023A00000040040303802400000024000040240B7
:1023B00000080040000C02400040014000100240B4
:1023C000704770B5044690F83C0000260D46012881
:1023D0000FD0012084F83C006AB1042A1DD0082ADD
:1023E0002FD00C2A3FD00126002084F83C00304634
:1023F00070BD022070BD206801F056FB2068816925
:1024000041F0080181612068816921F00401816146
:10241000206881692A69114311E0206801F074FB8A
:102420002068816941F4006181612068816921F43B
:1024300080618161206881692A6941EA02218161A4
:10244000D2E7206801F096FB2068C16941F00801DD
:10245000C1612068C16921F00401C1612068C169BE
:102460002A69114311E0206801F0B8FB2068C169B6
:1024700041F40061C1612068C16921F48061C161DA
:102480002068C1692A6941EA0221C161ACE710B53F
:10249000040003D094F83D0010B107E0012010BD06
:1024A000002084F83C00204600F01EF8022084F84A
:1024B0003D00211D206801F07DFA012084F84600CE
:1024C00084F83E0084F83F0084F8400084F841001E
:1024D00084F8420084F8430084F8440084F84500FE
:1024E00084F83D00002010BD70477047704770476A
:1024F00070477047F8B5016804460868CA684B69B8
:1025000010F00F0F4FF0000559D003F0010602F450
:102510009077374365D0C10705D0D10503D5616CED
:1025200041F001016164410705D5D90703D0616C11
:1025300041F002016164810705D5D90703D0616CC0
:1025400041F004016164010707D502F02001314325
:1025500003D0616C41F008016164616C00293AD0DC
:10256000800604D5900602D5204601F019FC2068AB
:102570004069616CC0F38010090700D460B3204645
:1025800001F0E7FB20684069400621D5206814303F
:1025900050E8001F21F0400140E80012002AF5D168
:1025A000E06BA8B172490165E06BFEF7FAFA00280A
:1025B00011D0E06B016D01B0BDE8F0400847830623
:1025C0000FD593060DD52046BDE8F84001F0E8BBD5
:1025D0002046FFF78EFFF8BD2046FFF78AFF6564AF
:1025E000F8BD266B2023012E7ED1C6067CD5D606EB
:1025F0007AD508684868009048694FF0020640069E
:102600004DD5E26B106840684FF480770004000CF1
:102610003AD0A18D814237D9E085D069B8422DD01A
:1026200020680C3050E8001F21F4807140E800124F
:10263000002AF5D12068143050E8001F21F0010174
:1026400040E80012002AF5D12068143050E8001F3D
:1026500021F0400140E80012002AF5D184F8423010
:10266000256320680C3050E8001F21F0100140E87D
:102670000012002AF5D1E06BFEF74AFA6663A08DDE
:10268000E18D401A81B206E0A18D8142A8D1D069C6
:10269000B842A5D166632046FFF72AFFF8BDA08D9A
:1026A000E18D401A81B2E08D0028F7D00029F5D0E5
:1026B00020680C3050E8002F22F4907240E8002788
:1026C000002FF5D12068143050E8002F22F00102CD
:1026D00040E80027002FF5D184F8423025632068B8
:1026E0000C3050E8002F00E006E022F0100240E835
:1026F0000023002BF3D1CDE705062BD5150629D5F0
:1027000094F841002128C9D1A068B0F5805F01D1BB
:102710002069B0B1206A411C2162216800784860BC
:10272000E08C401E0004000CE084B7D12068C16832
:1027300021F08001C1602068C16841F04001C160A2
:10274000F8BD206A0088C0F308004860206A801C39
:102750002062E5E74006F3D55006F1D5CA68204669
:1027600022F04002CA6084F8413000F0D9F9F8BD87
:10277000453D000870B5040004D094F841000025E0
:1027800010B106E0012070BD84F84050204600F0F2
:1027900023F8242084F841002068C16821F4005106
:1027A000C160204601F05EFB2068016921F4904180
:1027B00001612068416921F02A0141612068C168F6
:1027C00041F40051C1606564202084F8410084F820
:1027D00042006563002070BD2DE9F04387B00646D6
:1027E00014216846FDF724FD8848DFF81CC23368D1
:1027F0008649103802250327854A00244FF008082F
:10280000634520D10B6843F400230B60096801F491
:1028100000210591016841F004010160006802ABEC
:1028200000F004000590B802CDE9000583E89001AE
:1028300069461046FEF714FB002211463420FEF7CD
:102840006BFE342038E0DFF8CCC1DFF8CC91634573
:1028500037D10B6843F480130B60096801F48011D1
:102860000591016841F004010160016801F0040173
:102870000591016841F008010160006802AB00F0B9
:10288000080005904FF48050CDE9000583E89001E1
:1028900069461046FEF7E4FA0420CDE9000502ABD4
:1028A000694683E890014846FEF7DAFA00221146AD
:1028B0003520FEF731FE3520FEF720FE07B0BDE8DB
:1028C000F083DFF858C10722634553D14F49091DF2
:1028D0000B6843F010030B60096801F010010591CB
:1028E000016841F0010101600068029400F00100FC
:1028F00005904FF4C060CDE90005CDE9037269464B
:102900004748FEF7ADFA484D46484FF0006728604B
:10291000C5E901744FF48068C5E903486C61AC6196
:10292000EC612C6228466C62FEF71EFA08B1FDF7D6
:10293000ECFFF563AE633C4D3A4860357830E5E82E
:1029400002074020A5E81101374845F814496030D6
:10295000AC61EC612C626C62FEF706FA08B1FDF71F
:10296000D4FFB563002211462520AE63FEF7D4FDE7
:102970002520A1E72D4EB34220D10B6843F400334C
:102980000B60096801F400310591016841F008010C
:1029900001600068029400F0080005906020CDE915
:1029A0000005CDE9037269464846FEF759FA002250
:1029B00011462620FEF7B0FD26207DE71C4EB342CF
:1029C0007FF47CAF0B6843F480230B60096801F44B
:1029D00080210591016841F00801016000680294BE
:1029E00000F0080005904FF44070CDE90005CDE9F6
:1029F000037269464846FEF733FA00221146272043
:102A0000FEF78AFD272057E7004C0040403802407F
:102A10000008024000500040000C0240001001403D
:102A200000000240406402403008002000440040A2
:102A30000048004090F84230202B01D0022070471F
:102A400021B11AB10023036301F092BA012070474B
:102A500010B50068074988420AD101220649074893
:102A6000FFF7E8FF04480078BDE8104002F0A8BA7C
:102A700010BD00000044004093000020A00700208B
:102A80002DE9F843044690F84100984616460D4655
:102A9000202802D00220BDE8F88385B17EB1002055
:102AA0006064212084F84100FEF7E0FAA6848146A4
:102AB000E684A0682027B0F5805F02D003E0012003
:102AC000E9E7206910B12E4600250EE000260CE053
:102AD0008021204601F067FAA8B9C6B116F8010BAB
:102AE00021684860E08C401EE084E08C4B464FF04B
:102AF0000002CDF800800028EAD14FF040012046C6
:102B000001F051FA40B184F841700320C3E735F871
:102B1000020BC0F30800E3E784F841700020BAE735
:102B20007047FEE701684A69D24352050FD46FF43B
:102B300080624A61002140F8301F20224273817375
:102B4000026942F004020261017301207047002013
:102B5000704700002DE9F843044600680D46DDE9A2
:102B6000089701689846164641F4807101604B460B
:102B700000224FF001112046009700F06BF848B199
:102B800020680068C00502D54FF40070206403205F
:102B9000BDE8F883216805F0FE0008613B464A461F
:102BA0001549204600F09EF888B92068416980697F
:102BB00000903A464946204600F0F2F848B1206CB1
:102BC000042804D12068016841F4007101600120EB
:102BD000DEE7F5B2B8F1010F09D02168300A0861CB
:102BE0003A464946204600F0DBF80028E7D1206845
:102BF00005610020CCE700000200010070B5164618
:102C00000D4604461EE02046FFF78CFF08B1012068
:102C100070BD681C16D0FEF729FA801BA84200D8A8
:102C200085B920684069C04340070BD5002044F8AF
:102C3000300F20216173A073216941F020012161CF
:102C40002073E4E720684069C0434007DBD40020DC
:102C500070BD00002DE9F047984617460D46044622
:102C6000C1F30746DDF820902AE000BFB8F1FF3F2E
:102C700026D0FEF7FBF9A0EB0901414502D8B8F1D7
:102C8000000F1DD12068012E16D0806925EA0000B2
:102C90000004000C12D00020B84211D1002044F8EA
:102CA000300F20216173A073216941F0200121615F
:102CB00020730120BDE8F0874069E7E70120EBE7DA
:102CC0002068012E0AD0806925EA00000004000C6B
:102CD00006D00020B842C9D00020EBE74069F3E7F6
:102CE0000120F7E72DE9F047984616460D460446C1
:102CF0004FF000094FF0200AC1F3074723E0206896
:102D00004069C043400515D42068016841F4007152
:102D1000016021686FF480604861C4F8309084F8E5
:102D20003DA084F83E90216C41F00401216484F8B8
:102D30003C9021E0701C06D0FEF798F9A0EB08004B
:102D4000B04203D816B1012F1FD021E02068012F17
:102D500015D0806925EA00000004000C18D000BFDF
:102D600044F8309F84F80DA084F80E90216941F05A
:102D70002001216184F80C900120BDE8F0874069B2
:102D800025EA00000004000CEAD12068406901E057
:102D90002068806925EA00000004000CAFD1ECE750
:102DA00070B516460D4604461EE02046FFF7BAFEF3
:102DB00008B1012070BD681C16D0FEF757F9801BC2
:102DC000A84200D885B920684069C04300060BD5E9
:102DD000002044F8300F20216173A073216941F075
:102DE000200121612073E4E720684069C0430006A8
:102DF000DBD4002070BD00007FB50024154800948E
:102E0000019402941249039401604FF48031C0E9A7
:102E100001140461047680F820400F49C0E90A14C7
:102E20000125C561C46080F830404561FDF716FE9C
:102E300008B1FDF76AFDCDE90045694605480294F1
:102E4000FDF766FD002801D0FDF75FFD7FBD0000A6
:102E500000220140B40200200100000F0D4808B517
:102E6000016841F4800101600068002200F48000E4
:102E7000009011463A20FEF74FFB3A20FEF73EFB4A
:102E8000002211464620FEF747FBBDE808404620D9
:102E9000FEF734BB303802402DE9F04F87B01421E3
:102EA0006846FDF7C5F948480024016841F0100163
:102EB0000160016801F010010591016841F0040111
:102EC0000160016801F004010591016841F02001F1
:102ED0000160016801F020010591016841F0800165
:102EE0000160016801F080010591016841F0010174
:102EF0000160016801F001010591016841F00201E2
:102F00000160016801F002010591016841F0400192
:102F10000160016801F040010591016841F008017C
:102F200001600068DFF8A49000F00800059000221E
:102F300010214846FEF794F840F6FF76002231460D
:102F40002348FEF78DF8DFF88CA04FF4804700226D
:102F500039465046FEF784F8DFF87CB04FF47F48DE
:102F6000002241465846FEF77BF8102000900125CC
:102F7000CDE90154694648460394FDF771FF009678
:102F8000CDE90154694612480394FDF769FF0097A3
:102F9000CDE90154694650460394FDF761FFCDF831
:102FA0000080CDE90154694658460394FDF758FF67
:102FB0004FF470408DE8310069460548FDF750FF39
:102FC00007B0BDE8F08F000030380240000002403A
:102FD0000018024000100240000402400D4810B5E5
:102FE0000B4901600C49416000214FF4804281602F
:102FF000C0E9031241618161C1610162FEF73CF8E1
:10300000002803D0BDE81040FDF77FBC10BD0000D4
:1030100000540040FC020020A08601000D4810B5BD
:103020000B4901600C49416000214FF480428160EE
:10303000C0E9031241618161C1610162FEF71CF8C0
:10304000002803D0BDE81040FDF75FBC10BD0000B4
:103050000058004050030020A08601000D4810B524
:103060000B4901600C49416000214FF480428160AE
:10307000C0E9031241618161C1610162FDF7FCFF9A
:10308000002803D0BDE81040FDF73FBC10BD000094
:10309000005C0040A4030020A08601000B4810B58E
:1030A0000949016000214FF6FF724160C0E9021238
:1030B00001618161FEF762FD002803D0BDE8104088
:1030C000FDF723BC10BD0000004801408006002031
:1030D00010B58AB0002427480494059406940794F8
:1030E0000894099400940194029421490394C0E93E
:1030F00000144FF6FF71C0E902410461446184612C
:10310000FEF73CFD08B1FDF700FC4FF48050049041
:1031100004A91848FEF75CFE08B1FDF7F6FB154858
:10312000FFF71BF808B1FDF7F0FB089408A9114858
:103130000994FEF7DBFC08B1FDF7E7FB0120CDE9C0
:1031400000400294082269460A480394FEF773FF80
:1031500008B1FDF7DAFB022001900C226946054810
:10316000FEF769FF002801D0FDF7CFFB0AB010BDC4
:1031700000000140F803002010B58CB024216846FF
:10318000FDF756F80024154809944FF080410A9441
:10319000C0E90014611EC0E902410461846103209A
:1031A000CDE900040120CDE902040494CDE90540F5
:1031B0000794694609480894FEF778FE08B1FDF7C0
:1031C000A4FB099409A905480A94FEF78FFC00287E
:1031D00001D0FDF79AFB0CB010BD000040040020A8
:1031E00010B58EB000240794089409940A940B94A7
:1031F0001C2168460C94FDF71BF82A4828490160F9
:103200005321C0E901144FF47A71C0E903148461B9
:10321000FEF7B4FC08B1FDF778FB4FF4805007903F
:1032200007A92048FEF7D4FD08B1FDF76EFB1D4845
:10323000FFF72DF908B1FDF768FB0B940BA91948AE
:103240000C94FEF753FC08B1FDF75FFB6020CDE95D
:10325000000402940022694612480494FFF7B1F872
:1032600008B1FDF752FB042269460E48FFF7A9F8A2
:1032700008B1FDF74AFB082269460A48FFF7A1F8A2
:1032800008B1FDF742FB0C2269460648FFF799F8A2
:1032900008B1FDF73AFB0348FFF726F80EB010BD62
:1032A000000400408804002010B58EB0002407946C
:1032B000089409940A940B941C2168460C94FCF71A
:1032C000B7FF2A482849C0E900144FF6FF71C0E94A
:1032D000024104618461FEF751FC08B1FDF715FB62
:1032E0004FF48050079007A92048FEF771FD08B100
:1032F000FDF70BFB1D48FFF7CAF808B1FDF705FB0A
:103300000B940BA919480C94FEF7F0FB08B1FDF7DC
:10331000FCFA6020CDE900040294002269461348BB
:103320000494FFF74EF808B1FDF7EFFA042269465E
:103330000E48FFF746F808B1FDF7E7FA082269469C
:103340000A48FFF73EF808B1FDF7DFFA0C2269469C
:103350000648FFF736F808B1FDF7D7FA0348FEF73D
:10336000C3FF0EB010BD000000080040D0040020D4
:1033700010B586B000241748009401940294039479
:1033800004941349059401605321C0E90114632199
:10339000C0E9031480218161FEF7F0FB08B1FDF75D
:1033A000B4FA4FF48050009069460A48FEF710FDC9
:1033B00008B1FDF7AAFA049404A906480594FEF79B
:1033C00095FB002801D0FDF7A0FA06B010BD000063
:1033D000000C0040180500201CB500240E48009485
:1033E0000C49019401605321C0E9011463218461F7
:1033F000C160FEF7C3FB08B1FDF787FA0094694688
:1034000005480194FEF772FB002801D0FDF77DFA14
:103410001CBD000000100040600500201CB5002409
:103420000E4800940C490194C0E900144FF6FF7156
:10343000C0E902418461FEF7A1FB08B1FDF765FA1E
:103440000094694605480194FEF750FB002801D01E
:10345000FDF75BFA1CBD000000140040A805002029
:1034600010B58CB024216846FCF7E2FE0024164813
:10347000099414490A94C0E900144FF6FF71C0E999
:1034800002410461446184610120CDE90004CDE979
:1034900002040494CDE90540079469460A4808945B
:1034A000FEF704FD08B1FDF730FA099409A90648B2
:1034B0000A94FEF71BFB002801D0FDF726FA0CB09A
:1034C00010BD000000040140F005002010B58CB0D4
:1034D00000240794089409941C2168460A94FCF778
:1034E000A7FE1D481B49C0E900144FF6FF71C0E953
:1034F000024104618461FEF741FB08B1FDF705FA62
:103500004FF48050079007A91348FEF761FC08B1FB
:10351000FDF7FBF91048FEF7BAFF08B1FDF7F5F922
:103520006020CDE900040294002269460A48049410
:10353000FEF747FF08B1FDF7E8F90422694606489F
:10354000FEF73FFF08B1FDF7E0F90348FEF7CCFEB8
:103550000CB010BD00400140380600200C4810B5EA
:103560000A4901604FF4E1314160002181600C2281
:10357000C160C0E904128161C161FFF7FBF8002856
:1035800003D0BDE81040FDF7C0B910BD004C0040AD
:10359000C80600200C4810B50A4901604FF4E1311B
:1035A0004160002181600C22C160C0E90412816188
:1035B000C161FFF7DFF8002803D0BDE81040FDF738
:1035C000A4B910BD00500040100700200C4810B5F1
:1035D0000A4901604FF416514160002181600C22BC
:1035E000C160C0E904128161C161FFF7C3F800281E
:1035F00003D0BDE81040FDF788B910BD00100140B0
:10360000580700200C4810B50A4901604FF41651C4
:103610004160002181600C22C160C0E90412816117
:10362000C161FFF7A7F8002803D0BDE81040FDF7FF
:103630006CB910BD00440040A00700200C4810B534
:103640000A4901604FF416514160002181600C224B
:10365000C160C0E904128161C161FFF78BF80028E5
:1036600003D0BDE81040FDF750B910BD0048004040
:10367000E8070020FEE7FEE770B5002404F1B00083
:10368000C0B200F08DF8002000F08AF8102000F0A1
:1036900087F80025002000F095F86D1CEDB2802D14
:1036A000F8D3641CE4B2082CE8D370BD10B5C82070
:1036B000FDF7C4FBBDE8104000F040BD10B5044666
:1036C000B031C8B200F06CF8102040EA141000F0DD
:1036D00067F804F00F00BDE8104000F061B800008A
:1036E0002DE9F041203A00240D468046D6B27F28CD
:1036F00003D900208D1C8046EDB2102B29460FD037
:10370000FFF7DCFF164906EB460001EB4005285D9C
:1037100000F058F8641CE4B2062CF8D3BDE8F08140
:10372000FFF7CCFF0F4F00BF04EB0610385C00F032
:1037300049F8641CE4B2082CF6D36D1CE9B240468B
:10374000FFF7BCFF5FF0000404EB06103844007A7A
:1037500000F038F8641CE4B2082CF5D3DEE7000072
:10376000AC500008D45200082DE9F04198461746A5
:103770000E46044600250DE0434631462046FFF73D
:10378000AFFF0834E4B2782C02D90024B61CF6B29C
:103790006D1CEDB27A5D002AEED1BDE8F08100002B
:1037A00001B584B001214FF4807204A88DE80700B0
:1037B0000B46002278210248FDF722FD05B000BD2E
:1037C000FC02002001B584B001214FF4807204A8EE
:1037D0008DE807000B46402278210248FDF710FDD6
:1037E00005B000BDFC02002070477047FDF72CBEFD
:1037F00030B593B030216846FCF71AFD14210CA8AF
:10380000FCF716FD1D480025016841F0805101605C
:10381000006800F0805011901948016841F480411F
:1038200001600068022400F48040119001200390A0
:1038300010200490009406940820CDE90750A82099
:10384000CDE9090404200B906846FDF783FF08B119
:1038500072B6FEE70CA90F2081E831004FF4A050AA
:103860000F904FF48050109005210CA8FDF786FEB4
:10387000002801D072B6FEE713B030BD40380240D8
:10388000007000400248016841F470010160704717
:1038900088ED00E00148FEF78EBC0000F803002030
:1038A0000148FEF788BC0000400400200148FEF7F4
:1038B00082BC0000880400200148FEF77CBC0000A8
:1038C000D004002070B51A48FEF775FC19491A4D4E
:1038D0001A4C0878401C08702868D8B1184E04218A
:1038E0003046FDF7B5FB2868A0B104213046FDF74E
:1038F000AFFB14480068002802DC2968002902DDBB
:103900002068401C05E0002801DB002902DA20685D
:10391000401E2060206840F25461884203DA42F67B
:10392000EA11C84201DC002000E02868286070BD70
:10393000180500208C0000207C000020840000205E
:10394000001802407400002010B51148FEF733FC47
:103950001049114C0878401C08702068002815D0C8
:1039600020210E48FDF774FB0D4801680D48002921
:1039700002DC2268002A02DD0168491C05E00029FA
:1039800001DB002A02DA0168491E016010BD000057
:10399000600500208D0000208000002000180240FB
:1039A00078000020880000200148FEF704BC0000D9
:1039B000A8050020F0B50268274B284D284E294F56
:1039C000294C4FF0804C984209D0604507D0A8425E
:1039D00005D0B04203D0B84201D0A04204D122F0B9
:1039E000700E4A6842EA0E0298421BD0604519D018
:1039F000A84217D0B04215D0B84213D0A04211D07F
:103A00001A4DA8420ED01A4DA8420BD0194DA8420B
:103A100008D0194DA84205D0184DA84202D0184D23
:103A2000A84203D122F44075CA682A434D6922F0A6
:103A300080022A438D68C5620D688562984201D074
:103A4000A04201D109690163016841F004010160EC
:103A5000012141610260F0BD00000140000400400E
:103A600000080040000C00400004014000400140FC
:103A7000004401400048014000180040001C004084
:103A80000020004010B5846842EA032224F47F44F9
:103A90000A432243826010BD826822F070020A430A
:103AA00042F0070181607047F0B5036A026A22F0B4
:103AB0000102026242688469124E24F073050C68A8
:103AC0002C4323F002058B682B430D4DA84201D0F7
:103AD000B04205D123F00807CB683B4323F0040331
:103AE000A84201D0B04205D14D6922F4407215437D
:103AF0008A692A4342608461496841630362F0BD78
:103B00000000014000040140F0B5026A036A23F09E
:103B100010030362436884690D6824F4E64444EAB0
:103B200005248D6822F0200242EA05120F4D104E46
:103B3000A84201D0B04206D1CF6822F0800242EA0A
:103B4000071222F04002A84201D0B04207D14D69CD
:103B500023F4406343EA85038D6943EA85034360A8
:103B60008461496881630262F0BD00000000014089
:103B700000040140F0B5026A036A23F48073036213
:103B80004368C46922F4007224F073050C68124E75
:103B90002C438D6842EA05220E4DA84201D0B04266
:103BA00006D1CF6822F4006242EA072222F4806242
:103BB000A84201D0B04207D14D6923F4405343EAF3
:103BC00005138D6943EA05134360C4614968C16305
:103BD0000262F0BD000001400004014030B5046AFB
:103BE000026A22F4805202624268C3690D6823F4BB
:103BF000E64343EA05238D6824F4005444EA05347F
:103C0000084DA84202D0084DA84204D14D6922F4C3
:103C1000804242EA85124260C361496801640462DD
:103C200030BD0000000001400004014010B5036AEF
:103C3000046A24F001040462846924F0F00444EA74
:103C4000021423F00A020A438461026210BD0000DC
:103C500070B5056A046A24F0010404628469154E93
:103C6000B04214D0B0F1804F11D0134EB0420ED0FC
:103C7000124EB0420BD0124EB04208D0114EB0429C
:103C800005D0114EB04202D0104EB04203D124F004
:103C90000304144301E044F001041A0724F0F00483
:103CA00044EA126225F00A0301F00A011943826115
:103CB000016270BD000001400004004000080040A7
:103CC000000C00400004014000400140001800408A
:103CD00010B5036A046A24F010040462846923F0B6
:103CE000A00324F4704444EA023243EA01118261E1
:103CF000016210BD30B5046A056A25F01005056241
:103D0000856925F4407545EA022222F470454FF694
:103D1000FF7202EA033224F0A0032A43A02404EA3B
:103D2000011119438261016230BD00000148FEF7B4
:103D3000E1BB0000C80600200148FEF7DBBB000025
:103D40001007002010B5806B0021C185FEF7D1FB64
:103D500010BD01680C3151E8002F22F4907241E847
:103D60000023002BF5D10168143151E8002F22F017
:103D7000010241E80023002BF5D1016B012909D193
:103D800001680C3151E8002F22F0100241E80023B5
:103D9000002BF5D1202180F84210002101637047EB
:103DA00008B590F84210222901D0022008BD82688F
:103DB0004FF480539A4201D1016921B1816A9A423C
:103DC0001BD04AB10AE00268816A5268C2F3080255
:103DD0000A80816A891C08E0026972B1026852682F
:103DE00002F07F020A70816A491C8162C18D491EFE
:103DF0000904090CC18503D01BE002685268F1E791
:103E00000168CA6822F02002CA600168CA6822F408
:103E10008072CA6001684A6922F001024A61202169
:103E200080F8421000214163026B012A03D0FEF7A3
:103E30000FFE002008BD016301680C3151E8002F1E
:103E400022F0100241E80023002BF5D101680A6836
:103E5000D20602D50A6849680091818DFEF748FBB9
:103E6000E7E7000070B5044600680169E26821F4E4
:103E70004051114301612169A068E2690843616909
:103E8000114308432168CA6849F20C639A4302430C
:103E9000CA6020684169A26921F4407111434161FF
:103EA00031492068884202D03049884202D1FDF76A
:103EB0000FFC01E0FDF7FCFBE269002319216425FA
:103EC0003226B2F5004F626828D0A0FB0101930FA3
:103ED0009200FCF775F90146B0FBF5F06FF018029F
:103EE000504301EB800006EB0010B0FBF5F000F052
:103EF000F002B1FBF5F002EB0012B1FBF5F06FF050
:103F00001803584301EB800006EB0010B0FBF5F0FE
:103F100000F00F0021681044886070BDA0FB010113
:103F200092185B41FCF74CF90146B0FBF5F0020139
:103F3000B1FBF5F06FF01803584301EB800006EB7E
:103F4000C000B0FBF5F000F0F80002EB4002B1FB5E
:103F5000F5F0584301EB800006EBC000B0FBF5F034
:103F600000F00700D6E700000010014000140140F7
:103F700081628285C28500214164222180F842103D
:103F8000016921B10168CA6842F48072CA6001689F
:103F90004A6942F001024A610068C16841F02001AB
:103FA000C160002070472DE9F843984617460D463A
:103FB0000446089E24E0701C22D0FDF757F8A0EBC1
:103FC0000800B0421AD8CEB12068C168490717D599
:103FD000802D15D0402D13D00168C94309070FD497
:103FE00001680025406800902046FFF7B2FE0820D7
:103FF000606484F840500120BDE8F8830320FBE7AB
:104000002068006835EA000004D00020B842D2D011
:104010000020F1E70120F9E710B53A48FEF76AFA07
:10402000052239493748FEF705FD3748374C0178F6
:10403000072944D013DC012923D002292BD00329DE
:1040400033D004290AD10379C2788178407800F00E
:1040500063FEBDEEC00A2E4880ED000A10BD08299F
:1040600038D0092941D01029F8D10379C278817854
:10407000407800F051FEBCEEC00A10EE100A6070ED
:1040800010BD0379C2788178407800F045FEBDEE1E
:10409000C00A2048E0E70379C2788178407800F0D0
:1040A0003BFEBDEEC00A1C48D6E70379C278817892
:1040B000407800F031FEBDEEC00A1848CCE7037925
:1040C000C2788178407800F027FEBDEEC00A84ED0A
:1040D000010A10BD0379C2788178407800F01CFE97
:1040E000BDEEC00A84ED020A10BD0379C278817862
:1040F000407800F011FEBCEEC00A10EE100A2070ED
:1041000010BD0000580700208E0000209400002001
:104110008000002074000020780000207C00002037
:104120000148FEF7E7B90000A00700200148FEF7AC
:10413000E1B90000E8070020FEE70000FEB500241A
:10414000094F4FF4807501263819CDE90006012387
:104150000022782102950548FDF752F8641CE4B26C
:104160001B2CF1D3FEBD000000000020FC0200204B
:104170000FB4054B10B503A9044A029800F022FDC4
:1041800010BC5DF814FB0000494D0008AC00002095
:1041900003B401984100009850EAC12018BF0420E0
:1041A0004A0D18BF40F0010040F2FF72B2EB515FC0
:1041B00008BF40F00200012808BF052002B0704788
:1041C0000907090E002804DB00F1E02080F8001444
:1041D000704700F00F0000F1E02080F8141D7047D8
:1041E00010B52F499FED2C1B2DED020B84B00598C7
:1041F00020F000408842D8BF9DED040B2DDD2949F9
:10420000884209D1049840B94FF0010000F0D4FC75
:1042100000F0A2FC06B010BD05DB9DED040B00F024
:104220008FFC06B010BD68469DED040B00F0A0F8B1
:1042300010F0030004BF9DED021B9DED000B0CD0A0
:1042400001280ED09DED021B9DED000B022817D01A
:10425000012000F0DDFB06B010BD00F0A5FA06B0AD
:1042600010BD9DED021B9DED000B012000F0D0FB69
:1042700051EC100B81F0004106B041EC100B10BD69
:1042800000F092FA51EC100B81F0004106B041ECC5
:10429000100B10BD00000000000000000000000036
:1042A000FB21E93F0000F07F10B52F499FED2C1B4B
:1042B0002DED020B84B0059820F000408842DCBF51
:1042C00000209DED040B32DD2849884209D1049875
:1042D00040B94FF0010000F06FFC00F03DFC06B06B
:1042E00010BD05DB9DED040B00F02AFC06B010BDEF
:1042F00068469DED040B00F03BF810F0030011D070
:10430000012818D09DED021B9DED000B02281AD04C
:1043100000F04AFA51EC100B81F0004106B041EC7C
:10432000100B10BD9DED021B9DED000B012000F058
:104330006FFB06B010BD9DED021B9DED000B00F064
:1043400033FA06B010BD012000F062FB51EC100BF7
:1043500081F0004106B041EC100B10BD00000000E0
:104360000000000000000000FB21E93F0000F07F9A
:104370002DE9F14F04462DED020B2DED088B8AB08F
:104380009FEDE70B80ED020B139EE74826F00045FA
:1043900085420ADC9DED120B002084ED000B0AB073
:1043A000BDEC088B03B0BDE8F08FE0489FEDE0ABBB
:1043B0009FEDE1BBA84247DDE14F9FEDE39B9FED01
:1043C000E48B9DED120B53EC1A2B51EC100B002ECD
:1043D0001CDDFCF778F941EC100BBD4208D053EC22
:1043E0001B2B51EC100BFCF76EF9C4E900010BE03C
:1043F00053EC192B51EC100BFCF765F953EC182B0F
:10440000FCF761F9C4E900010120C8E7FCF7BAF83C
:1044100041EC100BBD4208D053EC1B2B51EC100BA0
:10442000FCF7B0F8C4E900010BE053EC192B51EC98
:10443000100BFCF7A7F853EC182BFCF7A3F8C4E912
:1044400000014FF0FF30AAE7C348A84279DB9DED99
:10445000120B51EC100B00F06BFC41EC180B9FEDB4
:10446000C00B53EC102BFBF7EEFE9FEDBF1B53EC84
:10447000112BFCF787F8FBF7D4FF0746FCF74EF942
:1044800041EC190B53EC1A2BFBF7DDFE53EC182B08
:10449000FCF71CF941EC180B53EC1B2B51EC190BDE
:1044A000FBF7D1FEDFF8C8A241EC100B4FEA15581C
:1044B0000125FA4453EC102B51EC180BFCF703F9CF
:1044C000032DC4E900013DD0C1F30A5005EB4511AD
:1044D000A8EB00001139814234DA0AEB051BB0EE7B
:1044E00048AA9BED000BF0EE68AA53EC102B51ECA0
:1044F000190BFBF7A8FE41EC1B0B51EC1A0B53EC0C
:104500001B2BFCF7E0F841EC180B51EC1A0B53ECA9
:10451000182BFCF7D8F853EC1B2BFCF7D4F89BEDC9
:10452000020B41EC1A0B53EC102B51EC190BFBF75F
:104530008AFE53EC1A2BFCF7C6F841EC100B6D1CED
:10454000B8E70EE0002EA8BF3846BFF628AF94EDBE
:10455000000B51EC100B81F00041C4E900017842DE
:104560001DE7C6F3130040F4801EC6F30A50A0F204
:10457000F530471100F01F05C5F12000DDF848B007
:1045800008900020069007900520EC467949002D00
:1045900007EB0002794408BF51F8221009D051F806
:1045A000223001EB8201AB404A68089922FA01F1FE
:1045B0001943A1FB0E26A1FB0B131A449A4234BFE8
:1045C0000123002303EB06080CEB8003D3E901A6CB
:1045D0000E448E4234BF0121002192448A4411B11D
:1045E000924502D903E0924501D2012100E0002169
:1045F000C3E901A641444CF82010011EA0F10100BE
:10460000C4DC029800F10050850F0298DDE90367D1
:104610008000DDF81480FCF781F841EC1A0B30467D
:10462000FBF7F2FE9FED541B53EC112BFBF70BFE37
:1046300041EC1B0B3846FBF7E7FE9FED511B53EC9B
:10464000112BFBF700FE41EC180B4046FBF7DCFE9C
:104650009FED4D1B53EC112BFBF7F5FD41EC190BB6
:1046600051EC180B53EC192BFBF78CFF53EC1B2B65
:10467000FBF788FF53EC1A2BFBF784FFCDE9080109
:10468000002008909DED080B53EC1A2B51EC100BF9
:10469000FCF719F853EC1B2BFCF715F853EC182B0F
:1046A000FCF711F853EC192BFCF710F89FED381BB1
:1046B00053EC112BFBF7C7FD9FED370B41EC180BAB
:1046C00053EC102B9DED080B51EC100BFBF7BBFDD1
:1046D00053EC182BFBF756FF9FED310B41EC180BF9
:1046E00053EC102B9DED080B51EC100BFBF7ABFDC1
:1046F00053EC182BFBF746FF41EC100B139810F00E
:10470000004F06D06D4251EC100B81F0004141EC9E
:10471000100B284684ED000B41E60000000000006D
:104720000000000000000000FB21E93F7CD90240AE
:1047300000004054FB21F93F3163621A61B4D03D5F
:10474000FB21F93F000000000000601A61B4D03D79
:104750007370032E8A19A33BFB213941000000002E
:1047600083C8C96D305FE43F000000000000E03FF7
:104770001216000060150000000000000000103E4E
:10478000000000000000103C000000000000103A93
:10479000182D4454FB21F93D3326A611460B113C3C
:1047A00000000054FB21F93D10B52DED040B2DED5B
:1047B000088B82B0B0EE419AF0EE619A0B9820F02F
:1047C00000449FED4BABB4F1795F11DA9DED0A0B1C
:1047D00051EC100BFBF725FE002801BFB0EE4A0A92
:1047E000F0EE6A0A02B0BDEC088B04BF04B010BD45
:1047F0009DED0A0B53EC102B51EC100BFBF723FD36
:1048000041EC180B3C480621B0EE480AF0EE680A6D
:10481000784400F081F853EC182B51EC100BFBF7A7
:1048200012FD9DED0A0B41EC1B0B53EC192B51ECC7
:10483000100BFBF708FD41EC190B53EC1B2B51EC53
:10484000180BFBF700FD53EC192BFBF73CFF9FED1A
:104850002C0B41EC190B53EC102B51EC180BFBF704
:10486000F2FC41EC100B2848844210DA53EC192B6F
:1048700051EC100BFBF727FF53EC1A2BFBF726FF2D
:1048800041EC100B02B0BDEC088B04B010BD1F480A
:10489000A042BCBF9FED1E1B8DED001B06DBA4F5E7
:1048A00000100190002000909DED001B51EC100BBA
:1048B00053EC112BFBF707FF9DED000B41EC180BA0
:1048C00053EC102B51EC1A0BFBF7FDFE41EC1A0BCD
:1048D00053EC192B51EC180BFBF7F5FE53EC1A2B8C
:1048E000FBF7F4FE41EC100BCCE7000000000000E9
:1048F000000000000000F03F8412000000000000F3
:10490000000000000000E03F3333D33F0000E93FE8
:10491000000000000000D23F70B504462DED028B70
:104920004D1E00EBC500B0EE408AF0EE608A90EDBF
:10493000000B35F0060017D053EC182B51EC100B80
:10494000FBF781FC41EC100B6D1E04EBC50090EDF4
:10495000001B51EC100B53EC112BFBF713FE41EC39
:10496000100B35F00600E7D1022D36D0042D1CD0F7
:10497000062D1CBFBDEC028B70BD53EC182B51EC07
:10498000100BFBF760FC94ED0A1B53EC112BFBF7AB
:10499000F9FD53EC182BFBF756FC94ED081B53EC78
:1049A000112BFBF7EFFD41EC100B53EC182B51ECE6
:1049B000100BFBF748FC94ED061B53EC112BFBF797
:1049C000E1FD53EC182BFBF73EFC94ED040B53EC8C
:1049D000102BFBF7D7FD41EC100B53EC182B51ECCF
:1049E000100BFBF730FC94ED021B53EC112BFBF783
:1049F000C9FD53EC182BFBF726FC94ED001B53EC80
:104A0000112BFBF7BFFDBDEC028B41EC100B70BD11
:104A100031B504462DED040B2DED0A8BB0EE41BAF5
:104A2000F0EE61BA0B989DED0A0B20F00040B0F15A
:104A3000795F0DDA51EC100BFFF7AAFB042808BFD1
:104A400000F09AF89DED0A0BBDEC0A8B05B030BD65
:104A500053EC102B51EC100BFBF7F5FB41EC180B52
:104A60009DED0A0B53EC182B51EC100BFBF7EBFBF5
:104A700041EC190B2C48B0EE480AF0EE680A05210B
:104A80007844FFF749FF9FED2ACBB0EE40AAF0EE45
:104A900060AA9CB353EC1C2B51EC190BFBF7D3FB16
:104AA00041EC1C0B53EC1A2B51EC190BFBF7CBFB15
:104AB0009FED210B41EC190B53EC102B51EC1B0B10
:104AC000FBF7C1FB53EC192BFBF7FDFD53EC182B47
:104AD000FBF7B9FB53EC1B2BFBF7F5FD53EC1C2B41
:104AE000FBF7F1FD9DED0A1B53EC112BFBF7EEFDDF
:104AF000BDEC0A8B05B041EC100B30BDFFE753EC69
:104B00001A2B51EC180BFBF79EFB53EC1C2BFBF7FD
:104B100039FD53EC192BFBF796FB9DED0A1B53EC6B
:104B2000112BFBF72FFDE3E70C1100000000000044
:104B3000495555555555C5BF000000000000E03FE0
:104B400010B553EC102B51EC100BFBF71BFD41EC97
:104B5000100B10BD000000009FED050B10B553ECCD
:104B6000102B51EC100BFBF7E0FB41EC100B10BDD0
:104B700000000000000000009FED050B10B553EC95
:104B8000102B51EC100BFBF75EFB41EC100B10BD32
:104B9000000000000000001002E008C8121F08C159
:104BA000002AFAD170477047002001E001C1121FAE
:104BB000002AFBD1704700000149086070470000DF
:104BC000B00000202DE9FF4F89B09B460446002528
:104BD00006E025280BD05A460B999047641C6D1CA3
:104BE00020780028F5D10DB02846BDE8F08F0027C9
:104BF000B8460122474900E0074314F8013F203B33
:104C000002FA03F00842F7D120782E2819D114F8BF
:104C1000010F47F004072A280ED06FF02F022078EA
:104C2000A0F1300109290CD808EB880102EB410101
:104C300000EB0108641CF2E70A98641C50F8048B2E
:104C40000A9020780028CED0642808D0692806D0A1
:104C500075281ED05A460B9990476D1C58E00A994A
:104C60004FF00A0901C90A91002802DA40422D21B9
:104C700002E0390504D52B218DF82010012103E035
:104C8000F90704D02021F7E78A4608AE0DE000219D
:104C9000FAE70A994FF00A0901C90A91F7E749466C
:104CA000FBF7DEFB303106F8011D0028F7D1ADEB34
:104CB000060000F12009780701D44FF00108C8452B
:104CC00002DDA8EB090000E000208046002706E096
:104CD00008A85A46C05D0B9990476D1C7F1C57452C
:104CE000F6DB04E030205A460B9990476D1CB8F172
:104CF0000001A8F10108F5DC05E016F8010B5A46A1
:104D00000B9990476D1CB9F10001A9F10109F4DC80
:104D1000641C65E70928010010B560F3070461F31E
:104D20000F2462F3174463F31F6400EE104A10BDB2
:104D300082B0CDE9000121F0004001909DED000B13
:104D400002B051EC100B704713B54FF0FF33012246
:104D500069460248FDF794FE00981CBD58070020E4
:104D60002DED068B82B0FCF777FBFEF741FDFEF7D9
:104D700093F8FEF773F8FEF73FF8FEF72FF9FEF70A
:104D80004DF9FEF76BF9FEF7A3F9FEF7F5F9FEF71B
:104D900027FAFEF789FAFEF763FBFEF7DFFBFEF763
:104DA000F9FBFEF713FCFEF72DFCFEF78FFBFEF779
:104DB00013FBFEF7DDFAFEF741FCFEF72FFBFEF7D3
:104DC0006DF9FEF773FCFEF757FC0021102330A2AB
:104DD0000846FEF7C9FC3148FCF7BAFF3048FCF73B
:104DE000B7FF05222F493048FDF724FEFCF73EF9B6
:104DF0002C4F2E4E9FED2E8B9FED2F9B9FED30ABBA
:104E0000DFF8C480DFF8C490BF1E3068FBF7FCFAFF
:104E100053EC182BFBF717FA53EC192BFBF785FA19
:104E200041EC100BFFF740FA53EC1A2B51EC100B2E
:104E3000FBF709FAFBF7F5FA04463068FBF7E4FAEA
:104E400053EC182BFBF7FFF953EC192BFBF76DFA1A
:104E500041EC100BFFF7C4F953EC1A2B51EC100B7B
:104E6000FBF7F1F9FBF7DDFA05462146022000F0D9
:104E700037F82946012000F033F8787800903B7825
:104E8000D8F8002012A0D9F80010FFF771F9BCE79C
:104E90006F6C6564207265616479000018050020FC
:104EA000600500208E00002058070020A800002088
:104EB0001F85EB51B81E09400000000000408F40E4
:104EC00000000000000059408800002084000020FD
:104ED00025642C25642C25642C25640A0000000020
:104EE0002DE9F047324B334E0C4642F210776FF00B
:104EF000630501280BD0022836D1012208219946EA
:104F00001846FCF7ADF8002C30DD01222FE001221D
:104F1000114699461846FCF7A3F8002C01DD002243
:104F200000E0012202214846FCF79AF897FBF4F0D2
:104F3000FBF705FCDFF88080D8F80010C86297FB0B
:104F4000F4F0FBF7FCFBC8F80C0024B900220421A4
:104F50004846FCF785F83460642C01DD642402E0E7
:104F6000AC4200DA2C463460BDE8F0870022102104
:104F70004846FCF775F897FBF4F0B846FBF7DFFB03
:104F80000E4F3968C86298FBF4F0FBF7D8FBF86065
:104F900024B9002220214846FCF762F87460642C92
:104FA00001DD642402E0AC4200DA2C467460DBE7E9
:104FB000001802407C000020180500206005002039
:104FC00030B5384A384953781370C854A1F5807108
:104FD000C8545B1CDBB253700C780020552C5ED19A
:104FE0000B2B5DD300242346CD5C5B1C2C44E4B228
:104FF0000A2BF9DB8B7AA34251D14B78503B0A2B19
:105000004DD2DFE803F0050D151D252D353B414739
:1050100051F8023FC2F802304968C2F806103EE07B
:1050200051F8023FC2F80A304968C2F80E1036E063
:1050300051F8023FC2F812304968C2F816102EE04B
:1050400051F8023FC2F81A304968C2F81E1026E033
:1050500051F8023FC2F822304968C2F826101EE01B
:1050600051F8023FC2F82A304968C2F82E1016E003
:1050700051F8023F53634968916310E051F8023FD1
:10508000D363496811640AE051F8023F53644968E8
:10509000916404E051F8023FD3644968116550708F
:1050A00030BD000020000020B401002000000000FE
:1050B00000000000002F000000000700070000149F
:1050C0007F147F1400242A7F2A12006264081323AD
:1050D00000364955225000000503000000001C2244
:1050E0004100000041221C000014083E0814000882
:1050F000083E0808000000A0600000080808080832
:10510000000060600000002010080402003E5149C9
:10511000453E0000427F4000004261514946002167
:1051200041454B31001814127F1000274545453981
:10513000003C4A49493000017109050300364949DC
:10514000493600064949291E000036360000000095
:1051500056360000000814224100001414141414E0
:105160000000412214080002015109060032495989
:10517000513E007C1211127C007F49494936003EA5
:1051800041414122007F4141221C007F4949494160
:10519000007F09090901003E4149497A007F08085A
:1051A000087F0000417F4100002040413F01007F17
:1051B00008142241007F40404040007F020C027FE3
:1051C000007F0408107F003E4141413E007F0909F5
:1051D0000906003E4151215E007F0919294600461B
:1051E000494949310001017F0101003F4040403FF2
:1051F000001F2040201F003F4038403F006314083C
:105200001463000708700807006151494543000016
:105210007F41410000552A552A55000041417F0039
:10522000000402010204004040404040000001022E
:105230000400002054545478007F48444438003817
:105240004444442000384444487F0038545454189F
:1052500000087E0901020018A4A4A47C007F0804B1
:1052600004780000447D4000004080847D00007F81
:10527000102844000000417F4000007C041804789E
:10528000007C0804047800384444443800FC24249A
:1052900024180018242418FC007C08040408004882
:1052A0005454542000043F444020003C4040207CA3
:1052B000001C2040201C003C4030403C0044281092
:1052C0002844001CA0A0A07C004464544C44141446
:1052D000141414140000000000000000000000007E
:1052E00000000000000000F8000000000000003393
:1052F0003000000000100C06100C0600000000003A
:105300000000000040C07840C0784000043F040422
:105310003F040400007088FC08300000001820FFE3
:10532000211E0000F008F000E018000000211C031E
:105330001E211E0000F00888700000001E2123249A
:105340001927211010160E000000000000000000B8
:1053500000000000000000E0180402000000000748
:105360001820400000020418E0000000004020184F
:1053700007000000404080F0804040000202010F22
:1053800001020200000000F0000000000101011F06
:1053900001010100000000000000000080B070006A
:1053A00000000000000000000000000000010101FA
:1053B0000101010100000000000000000030300089
:1053C0000000000000000000806018040060180663
:1053D0000100000000E010080810E000000F10209D
:1053E00020100F00001010F8000000000020203FE7
:1053F0002020000000700808088870000030282471
:105400002221300000300888884830000018202011
:1054100020110E000000C02010F800000007042436
:10542000243F240000F8088888080800001921207B
:1054300020110E0000E0108888180000000F1120D5
:1054400020110E0000380808C83808000000003F8E
:10545000000000000070880808887000001C2221ED
:1054600021221C0000E010080810E000000031229A
:1054700022110F00000000C0C0000000000000303A
:10548000300000000000008000000000000080608C
:10549000000000000000804020100800000102040D
:1054A00008102000404040404040400004040404F4
:1054B00004040400000810204080000000201008B0
:1054C00004020100007048080808F00000000030E5
:1054D00036010000C030C828E810E0000718272473
:1054E00023140B000000C038E0000000203C230221
:1054F0000227382008F8888888700000203F202084
:1055000020110E00C03008080808380007182020B5
:105510002010080008F808080810E000203F2020AC
:1055200020100F0008F88888E8081000203F20208D
:105530002320180008F88888E8081000203F200081
:1055400003000000C03008080838000007182020B9
:10555000221E020008F808000008F808203F210178
:1055600001213F20000808F8080800000020203F23
:105570002020000000000808F8080800C080808093
:105580007F00000008F888C028180800203F20018C
:105590002638200008F8080000000000203F2020E6
:1055A0002020300008F8F800F8F80800203F003FFD
:1055B000003F200008F830C00008F808203F200015
:1055C00007183F00E01008080810E0000F10202026
:1055D00020100F0008F808080808F000203F2101FB
:1055E00001010000E01008080810E0000F18242452
:1055F00038504F0008F8888888887000203F2000C5
:10560000030C30200070880808083800003820217A
:1056100021221C00180808F8080818000000203F84
:105620002000000008F808000008F808001F2020EB
:1056300020201F000878880000C8380800000738BC
:105640000E010000F80800F80008F800033C07000D
:10565000073C0300081868808068180820302C0375
:10566000032C30200838C800C83808000000203F4C
:105670002000000010080808C8380800203826213B
:1056800020201800000000FE020202000000007F3F
:1056900040404000000C30C000000000000000014D
:1056A0000638C00000020202FE0000000040404038
:1056B0007F0000000000040202020400000000005D
:1056C00000000000000000000000000080808080DA
:1056D00080808080000202040000000000000000C2
:1056E000000000000000808080800000001924225B
:1056F00022223F2008F8008080000000003F112097
:1057000020110E000000008080800000000E11209B
:1057100020201100000000808088F800000E112079
:1057200020103F200000808080800000001F222287
:1057300022221300008080F0888888180020203FF3
:10574000202000000000808080808000006B949406
:105750009493600008F8008080800000203F2100C2
:1057600000203F2000809898000000000020203F8B
:1057700020200000000000809898000000C0808079
:10578000807F000008F8000080808000203F240215
:105790002D302000000808F8000000000020203F05
:1057A000202000008080808080808000203F2000BA
:1057B0003F20003F8080008080800000203F21004B
:1057C00000203F200000808080800000001F2020FB
:1057D00020201F00808000808000000080FFA1202A
:1057E00020110E000000008080808000000E11203B
:1057F00020A0FF80808080008080800020203F21CA
:10580000200001000000808080808000003324247C
:1058100024241900008080E0808000000000001F28
:10582000202000008080000000808000001F2020D9
:1058300020103F20808080000080808000010E309A
:105840000806010080800080008080800F300C03FB
:105850000C300F0000808000808080000020312EFE
:105860000E312000808080000080808080818E70DA
:105870001806010000808080808080000021302C8C
:105880002221300000000000807C020200000000A5
:10589000003F40400002027C800000000040403F8A
:1058A0000000000000000000FF00000000000000F9
:1058B000FF0000000000041464040CB40202423330
:1058C00002000000000000000000000000000000D6
:1058D0000000000040412111090503FF03050911E3
:1058E0002141400000000000000000000000000016
:1058F000000000001010D0FF900010919690F090E2
:105900009493100000000000000000000000000060
:1059100000000000040300FF000104040404FF046D
:10592000040404000000000000000000000000006B
:1059300000000000008060F80704E4A4A4BFA4A451
:10594000E40400000000000000000000000000006F
:1059500000000000010000FF40407F4A4A4A4A4AD6
:105960007F40400000000000000000000000000038
:10597000000000000000F888888888FF88888888F0
:10598000F80000000000000000000000000000001F
:105990000000000000001F080808087F8888888829
:1059A0009F80F000000000000000000000000000E8
:1059B000000000000000FE0282828282FA8282825F
:1059C00082820200000000000000000000000000D1
:1059D0000000000080601F40404040407F40404445
:1059E00058404000000000000000000000000000DF
:1059F00000000000008060F80704E4A4A4BFA4A491
:105A0000E4040000000000000000000000000000AE
:105A100000000000010000FF40407F4A4A4A4A4A15
:105A20007F40400000000000000000000000000077
:105A30000000000000000000000000000000000066
:105A40000000000000000000000000000000000056
:105A500000000000000036360000000000000000DA
:105A60000000000000000000000000000000000036
:105A7000000000000000000000000000010203041C
:105A800006070809000000000102030400061016C2
:105A900000061016000000004C5555555555A53F01
:105AA0007751C1166CC156BF9015CB19A001FA3EB3
:105AB000AD529C804F7E92BEC4B1B4BD9EEE213EDD
:105AC000D43888BEE9FAA8BD00004054FB21F93F54
:105AD0003163621A61B4D03D0000601A61B4D03DF8
