:020000040800F2
:10000000100D00209D010008F9370008132C00088E
:1000100031370008D10800085943000800000000EB
:100020000000000000000000000000006B39000824
:100030006909000800000000693900086D390008EE
:10004000B7010008B7010008B7010008B7010008B0
:10005000B7010008B7010008B7010008B7010008A0
:10006000B7010008B7010008B7010008B701000890
:10007000B7010008B7010008B7010008B701000880
:10008000B7010008B7010008B7010008B701000870
:10009000B7010008B7010008B7010008B701000860
:1000A000B7010008B7010008B7010008B701000850
:1000B000153A0008213A00082D3A0008B701000857
:1000C000B7010008B7010008B7010008B701000830
:1000D000B701000811420008414300084D430008E1
:1000E000B7010008B7010008B7010008B701000810
:1000F000B7010008B7010008B7010008B701000800
:10010000B7010008B7010008393A0008B701000834
:10011000993E0008313F0008B7010008F93A00088D
:10012000B7010008B7010008D5080008B7010008AA
:10013000B7010008B7010008B7010008B7010008BF
:10014000B7010008B7010008B7010008B7010008AF
:10015000B7010008B7010008E1080008B70100086E
:10016000B7010008B7010008B7010008B70100088F
:10017000B7010008B7010008B7010008000000003F
:10018000B7010008B7010008DFF80CD000F05CFAF6
:1001900000480047354D0008100D002006488047F4
:1001A00006480047FEE7FEE7FEE7FEE7FEE7FEE75C
:1001B000FEE7FEE7FEE7FEE7053A000889010008D2
:1001C0002DE9F05F0546002092469B46884606468C
:1001D000814640241BE0284641464746224600F01F
:1001E0006AF853465A46C01A914110D31146184630
:1001F000224600F051F82D1A67EB01084F462246BF
:100200000120002100F048F817EB00094E41201EA4
:10021000A4F10104DFDC484631462A464346BDE8E6
:10022000F09FD2B201E000F8012B491EFBD27047CB
:100230000022F6E710B513460A4604461946FFF7B2
:10024000F0FF204610BD00F0004230F000400AD020
:10025000C10D01F56071C0F3160042EA0151C208F8
:1002600040071143704700200146704730B50B46E8
:10027000014600202022012409E021FA02F59D42D6
:1002800005D303FA02F5491B04FA02F52844151EAA
:10029000A2F10102F1DC30BD202A04DB203A00FA91
:1002A00002F1002070479140C2F1200320FA03F3CD
:1002B000194390407047202A04DB203A21FA02F0CB
:1002C0000021704721FA02F3D040C2F12002914090
:1002D0000843194670472DE9FE4F804681EA030026
:1002E000C00F0C46009021F0004123F00045B8EB10
:1002F0000200A94105D24046214690461C460B46C5
:10030000024623F00040104347D0270DC7F30A00F0
:10031000C3F30A510290401A019040286BDAC3F3EC
:10032000130040F4801B0098924620B10023D2EBCA
:10033000030A63EB0B0B01985946C0F1400250468B
:10034000FFF7AAFF06460D4650465946019A00F0AF
:100350008DF910EB08006141002487EA115284EA0C
:10036000E7731A4340D0009A62B3019A012A4FEA18
:10037000075215DC001B61EB02014FF0004202EA5C
:100380000752CDE90042001C41F5801132462B4650
:1003900000F08DF903B0BDE8F08F40462146F9E743
:1003A000001B61EB0201001C41F5801300185B414A
:1003B0002018A2F5001747EB030140EAD570B619E3
:1003C0006D4111E06D084FEA360645EAC0754FEA07
:1003D0000752001B61EB0201001C41F58011490826
:1003E0004FEA30000019514132462B4603B0BDE8B8
:1003F000F04F00F04DB90098012240000023D0EBEF
:10040000020263EBE073009821464FEAE074B8EB18
:10041000000061EB0401E9E783F000435BE781F052
:10042000004158E72DE9FE4F81EA030404F000443F
:1004300021F0004100944FF0000B23F0004350EAFC
:1004400001045ED052EA03045BD0C3F30A54C1F343
:100450000A552C44A4F2F3340194A0FB0254C1F3D6
:10046000130141F48011C3F3130343F4801301FB20
:10047000024400FB034E840A970A44EA815447EA87
:100480008357A4FB076802958D0A05FB07854FEA91
:10049000932C04FB0C542705029D4FEA065847EAAB
:1004A0001637B5EB08056EEB070C870E920E47EA80
:1004B000811742EA8312A7FB0201B6EB0B0164EB42
:1004C00000042B0D43EA0C335E1844EB1C50DA4653
:1004D0005146E7FB0201C5F313044FEA0B3343EA2D
:1004E00014534FEA0432019C43EA0603A4F10C04BE
:1004F0000294009CCDE900B400F0D9F803B0BDE847
:10050000F08F00200146F9E72DE9F04D81EA030460
:1005100004F0004B21F0004514464FF0000A23F090
:10052000004150EA050220D054EA01021DD0C5F373
:100530000A570246C5F31303C1F31300C1F30A5669
:1005400040F4801543F48013A7EB0608101BD64631
:1005500008F2FD3873EB050002D308F1010801E051
:1005600092185B41B8F1000F03DA00200146BDE8A4
:10057000F08D00204FF48011064684460EE0171BD4
:1005800073EB050705D3121B63EB050306434CEA27
:10059000010C49084FEA300092185B4150EA01070C
:1005A000EDD152EA030012D082EA040083EA050189
:1005B000084305D0101BAB4106D20122002306E000
:1005C00000224FF0004302E06FF0010253101AEBDB
:1005D00006004CEB085110EB0A0041EB0B01BDE8A3
:1005E000F04D00F055B8C1F30A52C1F3130140F2C7
:1005F000FF3341F480119A4202DA0020014670472D
:1006000040F233439A42A2F2334202DC5242FFF7F5
:1006100052BEFFF741BE000030B5041E71F1000468
:1006200004DB4FF00044404264EB0101141E73F1FF
:10063000000405DB1C464FF00043524263EB040309
:10064000994208BF904230BD064C074D06E0E06875
:1006500040F0010394E8070098471034AC42F6D309
:10066000FFF796FD9C5A0008BC5A0008202A06DBBA
:10067000CB17203A41FA02F043EAE07306E041FA70
:1006800002F3D040C2F1200291400843194670475E
:1006900010B5141E73F1000408DA401C41F100018A
:1006A00092185B411A4301D120F0010010BD2DE9E1
:1006B000F04D92469B4611B1B1FA81F202E0B0FAD8
:1006C00080F220329046FFF7E7FD04460F4640EAED
:1006D0000A0041EA0B0153465A46084313D011461B
:1006E00053EA010019D0C8F140025046FFF7E3FD7C
:1006F00005460E46504659464246FFF7CDFD084393
:1007000005D0012004E020463946BDE8F08D0020E8
:10071000054346EAE0762C4337430A986305E40A2A
:10072000A0EB08000022FD0A44EA47540A3002D533
:1007300000200146E9E7010510196941DDE9084596
:1007400000196941BDE8F04DA2E7002800DC4042F5
:1007500070470000464910B54A6822F440324A60AA
:100760004A6843681A434A6001684A6822F4807202
:100770004A6001684A68036942EA03224A600168E4
:100780004A6822F040724A6001684A6883681A43E6
:100790004A6001688A6822F400628A6001688A6897
:1007A000C3681A438A60816A6FF07062D14201683F
:1007B0008A6822F070628A6001688A680CD0836A55
:1007C0001A438A6001688A6822F040528A60016890
:1007D0008A68C36A1A4301E022F040528A600168C5
:1007E0008A6822F002028A6001688A68037E42EA0F
:1007F00043028A6090F82010002901684A680FD0EF
:1008000042F400624A6001684A6822F460424A6029
:1008100001684A68174C436A04EB43331A4301E00A
:1008200022F400624A600168CA6A22F47002CA6255
:100830000168CA6A838B104C04EB03531A43CA62E3
:1008400001688A6822F400728A6001688A6890F8F8
:10085000303042EA43228A6001688A6822F480626A
:100860008A6001688A68406942EA8020886010BD19
:100870000023014000E0FFFF0000F0FF00B504F09E
:1008800011FA1048D0ED000A0F4820EE800AD0ED92
:10089000000A0E4800EEC10AD0ED020AB4EEE00AEA
:1008A000F1EE10FA06DCD0ED030AB4EEE00AF1EE48
:1008B00010FA01D2B0EE600ABDEEC00A10EE100AC6
:1008C00000BD0000D4000020D8000020200000203F
:1008D000FEE70000014800F0A7B900005008002022
:1008E000014800F0A1B90000B008002001681823F9
:1008F000CAB2103AB2FBF3F2054B6FF30901032AB7
:100900009B5CC36500D9091D8165084670470000DE
:10091000945A000810B5014600208B698A6A4FF08E
:10092000C07453B1B3F5005F15D072B1012A0CD079
:10093000022A0AD0032A09D104E01AB1012A06D0FA
:10094000022A03D1C96AC90100D5012010BDC96AB4
:10095000A142FAD010BD002AF7D0012AF2D0022A13
:10096000F3D0032AF3D010BD704772B6FEE7000043
:1009700078B50024009490F83C20012A19D0012277
:1009800080F83C200A6807230568092A13D9EE6815
:100990000A3A02EB420293409E43EE600B788A686B
:1009A0000A3B03EB43039A400368DD682A43DA609D
:1009B00010E0022078BD2E6902EB420293409E4374
:1009C0002E610B788A6803EB43039A4003681D6924
:1009D0002A431A614A681F23072A13D205686E6BDF
:1009E000521E02EB820293409E436E630B790A888B
:1009F0005B1E92B203EB83039A4003685D6B2A434C
:100A00005A6327E005680D2A12D22E6BD21F02EB23
:100A1000820293409E432E630B790A88DB1F92B2B9
:100A200003EB83039A4003681D6B2A431A6311E0AA
:100A3000EE6A0D3A02EB820293409E43EE620B791E
:100A40000A880D3B92B203EB83039A400368DD6A88
:100A50002A43DA62164B0568144A9D4206D10D6896
:100A6000122D03D1556845F48005556005689D42F7
:100A700018D10B68102B01D0112B13D1536843F4FC
:100A800000035360096810290CD10A490A4A096811
:100A9000B1FBF2F101EB8101490000E0491E009138
:100AA0000029FBD180F83C40002078BD00230140A4
:100AB000002001401C00002040420F0070B50400DF
:100AC0004FF0000503D0206C002610B107E0012094
:100AD00070BD204600F01CF8666484F83C60206C11
:100AE000C00610D4206C20F4885040F0020020642E
:100AF0002046FFF72FFE6664206C20F0020040F0D5
:100B00000100206400E0012584F83C60284670BDA7
:100B100010B586B0044614216846FFF789FB1149D9
:100B2000206888421CD110480021026842F480628B
:100B30000260006800F4806005900B481438026879
:100B400042F001020260006800F0010005900F20F1
:100B500000900320CDE901016946044800F0B0F996
:100B600006B010BD0022014044380240000002409F
:100B70002DE9F0410446876D00F0A0FA064694F88E
:100B800035000025022806D08020606584F83450A6
:100B90000120BDE8F0812068016821F016010160A4
:100BA0002068416921F080014161206C08B9A06C86
:100BB00020B12068016821F0080101602068016807
:100BC00021F0010101600CE000F078FA801B05289B
:100BD00007D920206065032084F8350084F834505C
:100BE000D7E720680068C007EED194F85C103F207A
:100BF0008840B860012084F8350084F83450002023
:100C0000C7E790F83510022903D080214165012003
:100C10007047052180F835100068016821F0010156
:100C200001600020704700002DE9F84304464FF0B2
:100C30000009CDF8009063484FF41651A56D006887
:100C4000B0FBF1F72E6894F85C10082000FA01F16F
:100C500031420FD021680A6852070BD50A6822F08A
:100C600004020A6094F85C108840A860606D40F04F
:100C70000100606594F85C104FF0010808FA01F07B
:100C8000304208D021684969090604D5A860606D22
:100C900040F00200606594F85C1004208840304207
:100CA00008D021680968890704D5A860606D40F004
:100CB0000400606594F85C1010208840304218D021
:100CC00021680968090714D5A860206801684903EC
:100CD00004D50068000308D5A16C07E00168C905C8
:100CE00003D4016821F008010160216C09B120469C
:100CF000884794F85C1020208840304231D0216829
:100D00000968C9062DD5A86094F835000528206823
:100D1000016806D0490347D5006800031DD4616C03
:100D20001CE021F0160101602068416921F080017A
:100D30004161206C08B9A06C20B12068016821F0E5
:100D40000801016094F85C103F208840A86084F896
:100D5000358084F83490216D1FE0E16B09B12046A5
:100D60008847606D00282BD0606DC00714D0052027
:100D700084F835002068016821F0010101600098C5
:100D8000401C0090B84203D820680068C007F6D124
:100D900084F8358084F83490E16C002910D001B0DB
:100DA0002046BDE8F04308470168C905D5D401686D
:100DB00021F01001016084F8358084F83490CCE78C
:100DC000BDE8F8831C0000202DE9F041044600F046
:100DD00075F906465CB1022084F83500002584F8D8
:100DE00034502068016821F0010101600DE001200C
:100DF000BDE8F08100F062F9801B052805D92020AC
:100E00006065032084F83500F2E720680068C007B9
:100E1000F0D12268116820480140D4E90103184349
:100E2000D4E903363343184363691843A36918436D
:100E3000E3691843236A18430843616A042903D10C
:100E4000D4E90B1319430843106020684069666AAF
:100E500020F0070130460E43012704280CD1A06A78
:100E60000643E06A40B12046FFF754FD20B1402020
:100E7000606584F83570BAE7206846612046FFF760
:100E800035FD94F85C203F2191408160656584F8D0
:100E900035700020ACE700003F8010F070B50446CC
:100EA00000F00CF90546601C02D0044800780444A8
:100EB00000F004F9401BA042FAD370BD0C010020E1
:100EC0002DE9F84FDFF8BCA10022012503264FF0E1
:100ED0000F090AF1040BAAF1040E00BF0B6805FA12
:100EE00002F42340A34270D10F7907F00307012FCA
:100EF00001D0022F16D187684FEA420806FA08FC93
:100F000027EA0C07D1F80CC00CFA08FC4CEA070CD5
:100F1000C0F808C04768A7430C79C4F30014944094
:100F20003C4344600C79E443A4070AD0C4684FEA08
:100F3000420C06FA0CF7BC438F6807FA0CF72743FC
:100F4000C7600C7904F00304022C12D1D40800EB22
:100F5000840CDCF820405707FF0E09FA07F824EA52
:100F60000804D1F8108008FA07F848EA0408CCF819
:100F7000208004684FEA420C06FA0CF7BC430F7954
:100F800007F0030707FA0CF7274307604C6814F4CF
:100F9000403F70D03C4C276847F480472760246866
:100FA00022F0030704F480440094384C07EB040C4F
:100FB000DCF8084897074FEA177809FA08F7BC43A6
:100FC000334FB84202D1002724E054E0314FB842F9
:100FD00001D101271EE0304FB84201D1022719E0AC
:100FE0002E4FB84201D1032714E02D4FB84201D152
:100FF00004270FE02B4FB84201D105270AE02A4F02
:10100000B84201D1062705E0284FB84201D1072791
:1010100000E0082707FA08F72743CCF80878DAF841
:1010200000405746D1F804C09C435FEACC2C00D561
:101030001C433C60DBF800405F46D1F804C09C4391
:101040005FEA8C2C00D51C433C60DEF800407746FC
:10105000D1F804C09C435FEA8C3C00D51C433C6043
:10106000084F083F3C68D1F804C09C435FEACC3C81
:1010700000D51C433C60521C102AFFF42FAFBDE882
:10108000F88F0000083C0140443802400030014025
:10109000000002400004024000080240000C024030
:1010A000001002400014024000180240001C0240E0
:1010B0000AB1816170470904FBE7000001488068BC
:1010C000704700000C01002070B5040025D094F892
:1010D0003D00002520B984F83C50204600F050F92E
:1010E000242084F83D002068016821F0010101609E
:1010F0002068016841F4004101602068016821F422
:101100000041016000F0FCFA4D4A6168914201D84B
:101110004C4900E04C49884201D2012070BD4B4946
:101120002368B0FBF1F15E6826F03F060E435E6077
:101130006368934206D94FF4967359434FF47A7318
:10114000B1FBF3F12368491C1E6A26F03F063143C8
:1011500019626168914210D84900401EB0FBF1F25B
:10116000521CC2F30B02042A01D2042022E0B0FB7D
:10117000F1F0401CC0F30B001CE0A268F2B301EBDD
:10118000C10303EB0116431EB3FBF6F35B1C43F4F0
:1011900080431B0549D092B301EBC10202EB011160
:1011A000401EB0FBF1F0401CC0F30B0040F4804047
:1011B00040F400402168CA694CF6FF739A4310431B
:1011C000C861D4E9071001432068026822F0C00218
:1011D00011430160D4E9030101432068826848F2A9
:1011E000FF339A4311438160D4E905010843216824
:1011F000CA6822F0FF021043C86001E00EE016E06A
:101200002068016841F0010101602564202084F814
:101210003D00256384F83E50002070BD01EB41067F
:10122000431EB3FBF6F35B1CB3E70120C2E701EBFF
:101230004101401EB0FBF1F0401CC0F30B00B7E7CA
:10124000A086010080841E0000093D0040420F007E
:101250002DE9FF4F83B09A46DDE911979346044686
:10126000DDF84080FFF72AFF054694F83D0020286E
:101270007FD11923012240492046009501F062FDEB
:10128000002876D194F83C00012872D0012084F81F
:101290003C0020680168C90703D1016841F00101E1
:1012A00001602068016821F400610160212084F858
:1012B0003D00402084F83E0000262664C4F82480C7
:1012C000A4F82A90608D20852C48E062CDE9007555
:1012D00053465A462046049901F0B4FC70B930E0F8
:1012E0002A463946204601F0D3FD58B1206C042827
:1012F00004D12068016841F400710160012007B049
:10130000BDE8F08F606A216800780861606A401C5F
:101310006062218D491E89B22185628D521E6285CF
:1013200022685369DB435B070BD469B10078106115
:10133000606A401C6062208D401E2085608D401ECA
:101340006085208D0028CBD12A463946204601F001
:10135000CDFC0028CAD154F83D0B016841F400715E
:101360000160202004F81E09E67766770020C6E7B2
:10137000FFE70220C3E70000020010000000FFFFAB
:101380002DE9F04186B0044614216846FEF750FF6F
:1013900022683A4C384B002138481226032504278E
:1013A00010349A4219D1026842F0020202600068C9
:1013B00002AA00F00200059082E8A200C020CDE958
:1013C000000669462E48FFF77BFD206840F40010B8
:1013D0002060206800F400101AE02A4B9A421BD1CA
:1013E000026842F020020260006802AA00F02000B9
:1013F0000590CDE9005682E8A20069462248FFF731
:101400005FFD206840F480002060206800F48000C8
:10141000059006B0BDE8F0811C4B9A42F9D1884690
:10142000016841F004010160016801F004010591C7
:10143000016841F0010101600068694600F00100A7
:10144000059050158DE84101CDE903571048FFF78D
:1014500037FD4FF480708DE84101CDE903576946AF
:101460000C48FFF72DFD206840F400002060206844
:1014700000F40000CCE70000005400403038024087
:10148000000402400058004000140240005C00408C
:1014900000080240000002400248816802781144BE
:1014A000816070470C0100200B4810B5016841F4C1
:1014B00000710160016841F480610160016841F4DC
:1014C00080710160032000F06FF80F2000F006F833
:1014D00000F024F8002010BD003C024070B50D4D16
:1014E00004464FF47A712878B1FBF0F00A49096894
:1014F000B1FBF0F000F00CFB48B9102C07D2002231
:101500002146501E00F030F800206C6070BD0120B4
:1015100070BD00000C0100201C0000200A4808B526
:10152000016841F480410160006800F4804000904F
:101530000548001F016841F080510160006800F01B
:101540008050009008BD000044380240002809DBAC
:1015500000F01F02012191404009800000F1E020CD
:10156000C0F8001170470000F0B40E4B1B680C4629
:10157000C3F30223C3F10705042D00D90425191D67
:10158000072901D2002300E0DB1E012606FA05F13F
:10159000491E214099409E40761E16403143F0BCC2
:1015A00002F006BF0CED00E0064900F007020868F3
:1015B0004FF6FF03184040EA0220034A1043086038
:1015C000704700000CED00E00000FA052DE9F0473F
:1015D0000E46050065D0DFF81481D8F80000F7B298
:1015E00000F00700B04207D288F80070D8F8000079
:1015F00000F00700B04254D128683D4C810712D555
:10160000400703D5206840F4E050206028780007A8
:1016100003D5206840F4604020602068A96820F06D
:10162000F000084320602878C0072DD03049686852
:101630000839012812D0022813D0032811D00968D4
:10164000890700292DDA216821F003010143216077
:10165000FFF734FD814641F2883A0EE009688903BC
:10166000EFE709688901ECE7FFF728FDA0EB090126
:10167000514502D90320BDE8F0872068696800F071
:101680000C00B0EB810FEFD1D8F80010404601F00C
:101690000701B14207D90770006800F00700B042A7
:1016A00001D00120E7E72878400705D52068E968E0
:1016B00020F4E050084320602878000706D5206811
:1016C000296920F4604040EAC100206000F038F849
:1016D0002168084AC1F30311515CC84006490860FB
:1016E00006480068FFF7FAFE0020C4E7003C02400D
:1016F000083802407C5A00081C000020100100201D
:101700000448054900680968044AC1F38221515C14
:10171000C84070471C000020083802408C5A00085E
:101720000448054900680968044AC1F34231515C24
:10173000C84070471C000020083802408C5A00083E
:10174000154810B5006810F00C02144813D0144965
:10175000042A0FD0082A0ED10F4C241F22682368B8
:1017600002F03F025B0207D52068C0F38810A0FB9F
:10177000010106E0084610BD2168C1F38811A1FBF4
:1017800000010023FEF71CFD2168C1F30141491C43
:101790004900B0FBF1F010BD083802400024F4000D
:1017A00040787D012DE9F84F04006ED02078DFF8F5
:1017B0004C93C007A9F104054AD009F1040001685F
:1017C000C1F38101012908D00068C0F3810002281B
:1017D0000AD1D9F80000400206D52868800337D521
:1017E00060680028E1D033E06068B0F5803F10D039
:1017F000B0F5A02F286810D020F480302860286829
:1018000020F4802028606068A8B1FFF757FC0646E6
:101810000DE0286840F48030F4E740F48020286030
:10182000F7E700BFFFF74AFC801B642873D82868DD
:101830008003F7D50CE0FFF741FC064605E000BF4A
:10184000FFF73CFC801B6428F0D828688003F7D49D
:101850002078DFF8AC8280074FF0000A3ED5A74819
:10186000001D016811F00C0F08D00068C0F3810062
:1018700002280BD1D9F80000400207D4286880075D
:1018800016D5E068012800D112E033E1E068B8B174
:101890000120C8F80000FFF711FC064605E000BF74
:1018A000FFF70CFC801B0228C0D828688007F7D5FA
:1018B0002868216920F0F80040EAC10028600DE0A6
:1018C000C8F800A0FFF7FAFB064604E0FFF7F6FBB6
:1018D000801B02281FD828688007F7D420780007CB
:1018E00022D5864F87486169703771B10121016047
:1018F000FFF7E4FB064604E0FFF7E0FB801B02284D
:1019000009D838688007F7D50EE0C0F800A0FFF7C7
:10191000D5FB064605E082E0FFF7D0FB801B0228DE
:101920007DD838688007F7D42078400768D5DFF87D
:10193000CCB100270BF13C0BDBF80000C0000BD44E
:10194000DBF8001041F08051CBF80010DBF800000C
:10195000012700F0805000906B4E3068C00510D415
:10196000306840F480703060FFF7A8FB009005E01D
:10197000FFF7A4FB0099401A022850D83068C00530
:10198000F6D55E4EA0686C3601280FD00528306869
:1019900010D020F001003060306820F0040030608A
:1019A000A068B8B1FFF78AFB00900FE0306840F004
:1019B0000100F4E740F004003060F7E7FFF77EFB3A
:1019C0000099411A41F28830814266D83068800718
:1019D000F4D50EE0FFF772FB009007E0FFF76EFB17
:1019E0000099411A41F28830814256D83068800708
:1019F000F4D42FB1DBF8001021F08051CBF80010A7
:101A0000A069C8B33D49091D0968C1F381010229D4
:101A10004AD00228504607D0C8F8600000E03CE0F9
:101A2000FFF74CFB04463BE04746C8F86000FFF771
:101A300045FB064605E000BFFFF740FB801B022880
:101A40002BD828688001F7D4D4E907010843A16A9C
:101A50002E4A490802EB0141626A41EA82110843B9
:101A600094F82C1040EA0161C9F800100120386692
:101A7000FFF724FB044606E03EE000BFFFF71EFB35
:101A8000001B022809D828688001F7D534E000BF80
:101A9000FFF714FB001B022802D90320BDE8F88FD2
:101AA00028688001F4D427E00128F7D0D9F8000095
:101AB000E26900F4800191421CD1226A00F03F01EA
:101AC000914217D147F6C071626A0140B1EB821FA3
:101AD00010D1A26A4FF0FF3300F4403103EB520201
:101AE000B1EB024F06D194F82C1000F07060B0EB0F
:101AF000016F01D00120D1E70020CFE70438024078
:101B000000004742800E4742007000400000FFFF87
:101B100010B5401EB0F1807F01D3012010BD4FF001
:101B2000E02460610F21601702F042FC0020A061F8
:101B300007202061002010BD7047704770B590F8F5
:101B40003C20012A32D0012480F83C40022280F857
:101B50003D2003685A689D6822F070060A68324387
:101B60005A60134B02689A4214D0B2F1804F11D0E0
:101B7000104B9A420ED0104B9A420BD00F4B9A4208
:101B800008D00F4B9A4205D00E4B9A4202D00E4B12
:101B90009A4204D1496825F080031943916080F886
:101BA0003D40002180F83C10084670BD022070BD09
:101BB000000001400004004000080040000C00400C
:101BC00000040140004001400018004010B504002E
:101BD00003D094F83D0010B107E0012010BD0020B3
:101BE00084F83C00204600F01FF8022084F83D00F5
:101BF000211D206801F086FF012084F8460084F84A
:101C00003E0084F83F0084F8400084F8410084F8E6
:101C1000420084F8430084F8440084F8450084F8C6
:101C20003D00002010BD000010B586B00446142110
:101C30006846FEF7FDFA444B21680020434A99426A
:101C40001FD1116841F001011160116801F001011B
:101C500005913E4914390A6842F010020A60096889
:101C600001F010010591591400910221CDE90110F4
:101C700003900120049069463548FFF721F906B02A
:101C800010BD3248334B001F99420ED1016841F01C
:101C9000020101600068002200F002000590114678
:101CA0001D20FFF761FC1D2010E02B4B994210D145
:101CB000016841F0040101600068002200F00400A6
:101CC000059011461E20FFF74FFC1E20FFF73EFC3B
:101CD000D5E7224B99420ED1016841F0080101601D
:101CE0000068002200F00800059011463220FFF73E
:101CF0003BFC3220EAE71A4B994207D1016841F0D8
:101D000010010160006800F010001BE0154B9942C3
:101D10000ED1016841F0200101600068002200F04E
:101D20002000059011463720FFF71EFC3720CDE735
:101D30000D488142A3D1106840F4803010601068D3
:101D400000F4803005909AE70000014044380240DA
:101D5000001002400004004000080040000C004059
:101D600000100040001400400040014070B50446DF
:101D700090F83C000025012817D0012684F83C602B
:101D8000022084F83D002068826822F0770222F465
:101D90007F4282600868502838D00DDC20284FD060
:101DA00005DC90B3102811D14AE0022070BD302824
:101DB00046D040280AD13BE060282FD070280DD0B3
:101DC000B0F5805F03D0B0F5005F12D0012584F834
:101DD0003D60002084F83C00284670BDCB68D1E906
:101DE0000121206801F003FF2068816841F077013C
:101DF00009E0CB68D1E90121206801F0F8FE2068F4
:101E0000816841F480418160E1E719E0CA6849686E
:101E1000206801F0C1FF5021206806E0CA684968C7
:101E2000206802F00BF86021206801F0EAFECEE79E
:101E3000CA684968206801F0AFFF40212068F4E7D4
:101E4000226801461046F0E72DE9F0410D460400F6
:101E500003D094F83D0018B108E00120BDE8F081FE
:101E6000002084F83C00204600F040F8022084F86E
:101E70003D002068816844F2070291438160211D82
:101E8000206801F03FFE226890689169166A2B680D
:101E9000AF69034340F20330814341EA0721A86858
:101EA000EF6908434FF6FC418843E96840EA0720A0
:101EB000014328692F6A000140EA07300843696836
:101EC0006D6926F0AA0646EA051529439360226843
:101ED000906154F8460B0162012004F81F09E07577
:101EE0002076E0762077A0750020B7E770B586B041
:101EF000044614216846FEF79BF9216800242F4808
:101F00000225B1F1804F21D02D4A91421CD12B499D
:101F100014310A6842F002020A60096801F0020105
:101F20000591016841F0040101600068694600F014
:101F300004000590C0200090CDE901540320CDE9B4
:101F400003402048FEF7BCFF06B070BD1B491031AE
:101F50000A6842F001020A60096801F00101059176
:101F6000016841F001010160016801F00101059182
:101F7000016841F0020101600068012600F00200E2
:101F8000059020200090CDE90154CDE90346694633
:101F90000D48FEF795FF08200090CDE90154CDE9EA
:101FA000034669460948FEF78BFF002211461C20B4
:101FB000FFF7DAFA1C20FFF7C9FAC5E7303802400C
:101FC00000040140000802400000024000040240FA
:101FD00070B590F83E60044690F83F5090F842305B
:101FE00090F84320022021B104290ED0012E1BD1EC
:101FF00014E0012E18D1012B16D184F83E0084F88C
:10200000420001220021206820E0012D0CD1012A8C
:102010000AD184F83F0084F8430014E0012D03D175
:10202000012B01D1012A01D0012070BD84F83E00AE
:1020300084F83F0084F8420084F843000122002124
:10204000206801F0C7FD01220421206801F0C2FDD3
:102050002068016841F001010160002070BD7047F7
:102060002DE9F041054690F83C0000260C46012879
:1020700010D0012085F83C0072B1042A1CD0082A37
:102080002CD00C2A50D00126002085F83C00304688
:10209000BDE8F0810220FBE7D4E90012E36828687C
:1020A00001F08CFE2868816921F00C0181612868AB
:1020B0008169A26811430FE0D4E90012E36828683F
:1020C00001F0CEFE2868816921F4406181612868B1
:1020D0008169A26841EA02218161D5E72868D4E9D3
:1020E000002C277B036A016A21F480710162C169B7
:1020F00023F4206321F0030141EA0C0121F0F00CEC
:1021000039074FF420674CEA116107EA02221A43AB
:10211000C16102622868C16921F00C01C1612868AF
:10212000C169A26811432BE02868D4E90021E7685F
:10213000036AD0F820C02CF4805CC0F820C0D0F82E
:102140001CC023F420432CF4407C4CEA012121F4F0
:10215000704C4FF6FF7101EA07314FF4204741EA16
:102160000C0107EA02321A43C16102622868C169A0
:1021700021F44061C1612868C169A26841EA022175
:10218000C16181E710B5040003D094F83D0010B19F
:1021900007E0012010BD002084F83C00204600F03C
:1021A0001EF8022084F83D00211D206801F0AAFCE1
:1021B000012084F8460084F83E0084F83F0084F84B
:1021C000400084F8410084F8420084F8430084F819
:1021D000440084F8450084F83D00002010BD70479D
:1021E0002DE9F04104460068C66805694FF0000714
:1021F000A90713D5B10711D5F91E01610120207778
:10220000206880698007204602D0FFF728FF04E09D
:1022100000F0EAF8204600F07CF92777680716D529
:10222000700714D521686FF0040008610220207740
:102230002068806910F4407F204602D0FFF70FFF2E
:1022400004E000F0D1F8204600F063F92777280772
:1022500015D5300713D521686FF0080008610420F8
:1022600020772068C0698007204602D0FFF7F7FE7C
:1022700004E000F0B9F8204600F04BF92777E806B3
:1022800016D5F00614D521686FF0100008610820FB
:1022900020772068C06910F4407F204602D0FFF705
:1022A000DEFE04E000F0A0F8204600F032F92777C7
:1022B000E80708D0F00706D021686FF00100086138
:1022C000204600F08BF9280608D5300606D521688F
:1022D0006FF0800008612046FFF72EFC680608D5E5
:1022E000700606D521686FF040000861204600F0B6
:1022F00076F9A8060AD5B00608D521686FF0200047
:1023000008612046BDE8F041FFF717BCBDE8F08149
:1023100070B586B0044614216846FDF789FF2A4A45
:102320002168002429480225032691421FD1016813
:1023300041F001010160016801F0010105910168AE
:1023400041F0020101600068694600F0020005905A
:10235000C0200090CDE901541D48CDE90345FEF7AA
:10236000AFFD0096CDE9015469461A4811E01A4ABA
:10237000914215D1016841F0080101600068694689
:1023800000F0080005904FF470400090CDE9015432
:102390001248CDE9034500BFFEF792FD06B070BDBF
:1023A0000F4A9142FAD1016841F0100101600068C2
:1023B000694600F01000059060200090CDE90154BE
:1023C000CDE903460748E7E7000400403038024003
:1023D000000002400004024000080040000C0240DF
:1023E0000040014000100240704770B5044690F86C
:1023F0003C0000260D4601280FD0012084F83C0047
:102400006AB1042A1DD0082A2FD00C2A3FD00126F9
:10241000002084F83C00304670BD022070BD20686A
:1024200001F0F8FB2068816941F0080181612068B2
:10243000816921F004018161206881692A69114361
:1024400011E0206801F016FC2068816941F4006108
:1024500081612068816921F48061816120688169DE
:102460002A6941EA02218161D2E7206801F038FC43
:102470002068C16941F00801C1612068C16921F08B
:102480000401C1612068C1692A69114311E0206813
:1024900001F05AFC2068C16941F40061C161206803
:1024A000C16921F48061C1612068C1692A6941EA7A
:1024B0000221C161ACE710B5040003D094F83D00DF
:1024C00010B107E0012010BD002084F83C00204638
:1024D00000F01EF8022084F83D00211D206801F064
:1024E00011FB012084F8460084F83E0084F83F0088
:1024F00084F8400084F8410084F8420084F84300E6
:1025000084F8440084F8450084F83D00002010BDA4
:102510007047704710B50446022249B104290ED015
:10252000082913D094F84100012816D0012010BDCD
:1025300094F83E000128F9D184F83E200FE094F889
:102540003F000128F2D184F83F2008E094F84000D1
:102550000128EBD184F8402001E084F841200122D9
:10256000206801F037FB16492068164A884201D0DE
:10257000904203D1436C43F4004343642068884293
:1025800013D0B0F1804F10D00F4988420DD00F49C1
:1025900088420AD00E49884207D0904205D00D49A2
:1025A000884202D00C49884204D1816801F00701B9
:1025B000062903D0016841F001010160002010BD2F
:1025C00000000140000401400004004000080040F9
:1025D000000C004000400140001800407047704768
:1025E00070477047F8B5016804460868CA684B69C7
:1025F00010F00F0F4FF0000559D003F0010602F460
:102600009077374365D0C10705D0D10503D5616CFC
:1026100041F001016164410705D5D90703D0616C20
:1026200041F002016164810705D5D90703D0616CCF
:1026300041F004016164010707D502F02001314334
:1026400003D0616C41F008016164616C00293AD0EB
:10265000800604D5900602D5204601F09DFC206836
:102660004069616CC0F38010090700D460B3204654
:1026700001F06BFC20684069400621D520681430C9
:1026800050E8001F21F0400140E80012002AF5D177
:10269000E06BA8B172490165E06BFEF7B2FA002861
:1026A00011D0E06B016D01B0BDE8F0400847830632
:1026B0000FD593060DD52046BDE8F84001F06CBC5F
:1026C0002046FFF78EFFF8BD2046FFF78AFF6564BE
:1026D000F8BD266B2023012E7ED1C6067CD5D606FA
:1026E0007AD508684868009048694FF002064006AD
:1026F0004DD5E26B106840684FF480770004000C01
:102700003AD0A18D814237D9E085D069B8422DD029
:1027100020680C3050E8001F21F4807140E800125E
:10272000002AF5D12068143050E8001F21F0010183
:1027300040E80012002AF5D12068143050E8001F4C
:1027400021F0400140E80012002AF5D184F842301F
:10275000256320680C3050E8001F21F0100140E88C
:102760000012002AF5D1E06BFEF702FA6663A08D35
:10277000E18D401A81B206E0A18D8142A8D1D069D5
:10278000B842A5D166632046FFF72AFFF8BDA08DA9
:10279000E18D401A81B2E08D0028F7D00029F5D0F4
:1027A00020680C3050E8002F22F4907240E8002797
:1027B000002FF5D12068143050E8002F22F00102DC
:1027C00040E80027002FF5D184F8423025632068C7
:1027D0000C3050E8002F00E006E022F0100240E844
:1027E0000023002BF3D1CDE705062BD5150629D5FF
:1027F00094F841002128C9D1A068B0F5805F01D1CB
:102800002069B0B1206A411C2162216800784860CB
:10281000E08C401E0004000CE084B7D12068C16841
:1028200021F08001C1602068C16841F04001C160B1
:10283000F8BD206A0088C0F308004860206A801C48
:102840002062E5E74006F3D55006F1D5CA68204678
:1028500022F04002CA6084F8413000F0D9F9F8BD96
:102860003D3F000870B5040004D094F841000025F5
:1028700010B106E0012070BD84F84050204600F001
:1028800023F8242084F841002068C16821F4005115
:10289000C160204601F0E2FB2068016921F490410B
:1028A00001612068416921F02A0141612068C16805
:1028B00041F40051C1606564202084F8410084F82F
:1028C00042006563002070BD2DE9F04387B00646E5
:1028D00014216846FDF7ACFC8848DFF81CC2336859
:1028E0008649103802250327854A00244FF008083E
:1028F000634520D10B6843F400230B60096801F4A1
:1029000000210591016841F004010160006802ABFB
:1029100000F004000590B802CDE9000583E89001BD
:1029200069461046FEF7CCFA002211463420FEF725
:102930001BFE342038E0DFF8CCC1DFF8CC916345D2
:1029400037D10B6843F480130B60096801F48011E0
:102950000591016841F004010160016801F0040182
:102960000591016841F008010160006802AB00F0C8
:10297000080005904FF48050CDE9000583E89001F0
:1029800069461046FEF79CFA0420CDE9000502AB2B
:10299000694683E890014846FEF792FA0022114604
:1029A0003520FEF7E1FD3520FEF7D0FD07B0BDE88C
:1029B000F083DFF858C10722634553D14F49091D01
:1029C0000B6843F010030B60096801F010010591DA
:1029D000016841F0010101600068029400F001000B
:1029E00005904FF4C060CDE90005CDE9037269465A
:1029F0004748FEF765FA484D46484FF000672860A3
:102A0000C5E901744FF48068C5E903486C61AC61A5
:102A1000EC612C6228466C62FEF7D6F908B1FDF72E
:102A2000A4FFF563AE633C4D3A4860357830E5E885
:102A300002074020A5E81101374845F814496030E5
:102A4000AC61EC612C626C62FEF7BEF908B1FDF777
:102A50008CFFB563002211462520AE63FEF784FD8E
:102A60002520A1E72D4EB34220D10B6843F400335B
:102A70000B60096801F400310591016841F008011B
:102A800001600068029400F0080005906020CDE924
:102A90000005CDE9037269464846FEF711FA0022A7
:102AA00011462620FEF760FD26207DE71C4EB3422E
:102AB0007FF47CAF0B6843F480230B60096801F45A
:102AC00080210591016841F00801016000680294CD
:102AD00000F0080005904FF44070CDE90005CDE905
:102AE000037269464846FEF7EBF90022114627209B
:102AF000FEF73AFD272057E7004C004040380240DF
:102B00000008024000500040000C0240001001404C
:102B10000000024040640240500800200044004091
:102B20000048004090F84230202B01D0022070472E
:102B300021B11AB10023036301F016BB01207047D5
:102B400010B50068074988420AD1012206490748A2
:102B5000FFF7E8FF04480078BDE8104002F034BAFF
:102B600010BD000000440040F4000020C007002019
:102B70002DE9F843044690F84100984616460D4664
:102B8000202802D00220BDE8F88385B17EB1002064
:102B90006064212084F84100FEF790FAA684814603
:102BA000E684A0682027B0F5805F02D003E0012012
:102BB000E9E7206910B12E4600250EE000260CE062
:102BC0008021204601F0EBFAA8B9C6B116F8010B36
:102BD00021684860E08C401EE084E08C4B464FF05A
:102BE0000002CDF800800028EAD14FF040012046D5
:102BF00001F0D5FA40B184F841700320C3E735F8FD
:102C0000020BC0F30800E3E784F841700020BAE744
:102C10007047FEE701684A69D24352050FD46FF44A
:102C200080624A61002140F8301F20224273817384
:102C3000026942F004020261017301207047002022
:102C4000704700002DE9F843044600680D46DDE9B1
:102C5000089701689846164641F4807101604B461A
:102C600000224FF001112046009700F06BF848B1A8
:102C700020680068C00502D54FF40070206403206E
:102C8000BDE8F883216805F0FE0008613B464A462E
:102C90001549204600F09EF888B92068416980698E
:102CA00000903A464946204600F0F2F848B1206CC0
:102CB000042804D12068016841F4007101600120FA
:102CC000DEE7F5B2B8F1010F09D02168300A0861DA
:102CD0003A464946204600F0DBF80028E7D1206854
:102CE00005610020CCE700000200010070B5164627
:102CF0000D4604461EE02046FFF78CFF08B1012078
:102D000070BD681C16D0FEF7D9F9801BA84200D808
:102D100085B920684069C04340070BD5002044F8BE
:102D2000300F20216173A073216941F020012161DE
:102D30002073E4E720684069C0434007DBD40020EB
:102D400070BD00002DE9F047984617460D46044631
:102D5000C1F30746DDF820902AE000BFB8F1FF3F3D
:102D600026D0FEF7ABF9A0EB0901414502D8B8F136
:102D7000000F1DD12068012E16D0806925EA0000C1
:102D80000004000C12D00020B84211D1002044F8F9
:102D9000300F20216173A073216941F0200121616E
:102DA00020730120BDE8F0874069E7E70120EBE7E9
:102DB0002068012E0AD0806925EA00000004000C7A
:102DC00006D00020B842C9D00020EBE74069F3E705
:102DD0000120F7E72DE9F047984616460D460446D0
:102DE0004FF000094FF0200AC1F3074723E02068A5
:102DF0004069C043400515D42068016841F4007162
:102E0000016021686FF480604861C4F8309084F8F4
:102E10003DA084F83E90216C41F00401216484F8C7
:102E20003C9021E0701C06D0FEF748F9A0EB0800AA
:102E3000B04203D816B1012F1FD021E02068012F26
:102E400015D0806925EA00000004000C18D000BFEE
:102E500044F8309F84F80DA084F80E90216941F069
:102E60002001216184F80C900120BDE8F0874069C1
:102E700025EA00000004000CEAD12068406901E066
:102E80002068806925EA00000004000CAFD1ECE75F
:102E900070B516460D4604461EE02046FFF7BAFE02
:102EA00008B1012070BD681C16D0FEF707F9801B21
:102EB000A84200D885B920684069C04300060BD5F8
:102EC000002044F8300F20216173A073216941F084
:102ED000200121612073E4E720684069C0430006B7
:102EE000DBD4002070BD00007FB50024154800949D
:102EF000019402941249039401604FF48031C0E9B7
:102F000001140461047680F820400F49C0E90A14D6
:102F10000125C561C46080F830404561FDF7CEFDF4
:102F200008B1FDF722FDCDE9004569460548029448
:102F3000FDF71EFD002801D0FDF717FD7FBD000045
:102F4000002201401C0300200100000F0D4808B5BD
:102F5000016841F4800101600068002200F48000F3
:102F6000009011463A20FEF7FFFA3A20FEF7EEFAFB
:102F7000002211464620FEF7F7FABDE80840462039
:102F8000FEF7E4BA303802402DE9F04F87B0142143
:102F90006846FDF74DF948480024016841F01001EA
:102FA0000160016801F010010591016841F0040120
:102FB0000160016801F004010591016841F0200100
:102FC0000160016801F020010591016841F0800174
:102FD0000160016801F080010591016841F0010183
:102FE0000160016801F001010591016841F00201F1
:102FF0000160016801F002010591016841F04001A2
:103000000160016801F040010591016841F008018B
:1030100001600068DFF8A49000F00800059000222D
:1030200010214846FEF744F840F6FF76002231466C
:103030002348FEF73DF8DFF88CA04FF480470022CC
:1030400039465046FEF734F8DFF87CB04FF47F483D
:10305000002241465846FEF72BF81020009001252B
:10306000CDE90154694648460394FDF729FF0096CF
:10307000CDE90154694612480394FDF721FF0097FA
:10308000CDE90154694650460394FDF719FFCDF888
:103090000080CDE90154694658460394FDF710FFBE
:1030A0004FF470408DE8310069460548FDF708FF90
:1030B00007B0BDE8F08F0000303802400000024049
:1030C0000018024000100240000402400D4810B5F4
:1030D0000B4901600C49416000214FF4804281603E
:1030E000C0E9031241618161C1610162FDF7ECFF3A
:1030F000002803D0BDE81040FDF737BC10BD00002C
:103100000054004064030020A08601000D4810B563
:103110000B4901600C49416000214FF480428160FD
:10312000C0E9031241618161C1610162FDF7CCFF19
:10313000002803D0BDE81040FDF717BC10BD00000B
:1031400000580040B8030020A08601000D4810B5CB
:103150000B4901600C49416000214FF480428160BD
:10316000C0E9031241618161C1610162FDF7ACFFF9
:10317000002803D0BDE81040FDF7F7BB10BD0000EC
:10318000005C00400C040020A086010010B58AB04D
:1031900000242748049405940694079408940994FD
:1031A00000940194029421490394C0E900144FF65D
:1031B000FF71C0E90241046144618461FEF706FDCC
:1031C00008B1FDF7D2FB4FF48050049004A91848D1
:1031D000FEF7CCFD08B1FDF7C8FB1548FEF7D2FF9E
:1031E00008B1FDF7C2FB089408A911480994FEF73D
:1031F000A5FC08B1FDF7B9FB0120CDE90040029420
:10320000082269460A480394FEF72AFF08B1FDF731
:10321000ACFB022001900C2269460548FEF720FF16
:10322000002801D0FDF7A1FB0AB010BD000001404D
:103230006004002010B58CB024216846FCF7F8FF2C
:103240000024154809944FF080410A94C0E9001405
:10325000611EC0E90241046184610320CDE90004DC
:103260000120CDE902040494CDE9054007946946A4
:1032700009480894FEF7E8FD08B1FDF776FB0994CC
:1032800009A905480A94FEF759FC002801D0FDF76A
:103290006CFB0CB010BD0000A804002010B58EB06F
:1032A00000240794089409940A940B941C216846FE
:1032B0000C94FCF7BDFF2A48284901605321C0E95E
:1032C00001144FF47A71C0E903148461FEF77EFCA7
:1032D00008B1FDF74AFB4FF48050079007A920483A
:1032E000FEF744FD08B1FDF740FB1D48FFF7E3F88A
:1032F00008B1FDF73AFB0B940BA919480C94FEF7A3
:103300001DFC08B1FDF731FB6020CDE900040294FB
:103310000022694612480494FFF767F808B1FDF7E8
:1033200024FB042269460E48FFF75FF808B1FDF759
:103330001CFB082269460A48FFF757F808B1FDF759
:1033400014FB0C2269460648FFF74FF808B1FDF759
:103350000CFB0348FEF7DCFF0EB010BD000400407C
:10336000F004002010B58EB000240794089409944E
:103370000A940B941C2168460C94FCF759FF2A48C8
:103380002849C0E900144FF6FF71C0E90241046109
:103390008461FEF71BFC08B1FDF7E7FA4FF480509B
:1033A000079007A92048FEF7E1FC08B1FDF7DDFA18
:1033B0001D48FFF780F808B1FDF7D7FA0B940BA969
:1033C00019480C94FEF7BAFB08B1FDF7CEFA60205D
:1033D000CDE9000402940022694613480494FFF7E3
:1033E00004F808B1FDF7C1FA042269460E48FEF759
:1033F000FCFF08B1FDF7B9FA082269460A48FEF752
:10340000F4FF08B1FDF7B1FA0C2269460648FEF751
:10341000ECFF08B1FDF7A9FA0348FEF779FF0EB0FB
:1034200010BD0000000800403805002010B586B02F
:1034300000241748009401940294039404941349BF
:103440000594016040F24731C0E901140921C0E947
:1034500003148461FEF7BAFB08B1FDF786FA4FF456
:103460008050009069460A48FEF780FC08B1FDF7DD
:103470007CFA049404A906480594FEF75FFB002833
:1034800001D0FDF772FA06B010BD0000000C00403C
:10349000800500201CB500240E4800940C490194BE
:1034A000C0E900144FF6FF71C0E902418461FEF7E4
:1034B0008DFB08B1FDF759FA00946946054801945F
:1034C000FEF73CFB002801D0FDF74FFA1CBD0000C1
:1034D00000100040C80500201CB500240E480094D0
:1034E0000C490194C0E900144FF6FF71C0E9024194
:1034F0008461FEF76BFB08B1FDF737FA009469466B
:1035000005480194FEF71AFB002801D0FDF72DFABB
:103510001CBD0000001400401006002010B58CB047
:1035200024216846FCF784FE0024164809941449B7
:103530000A94C0E900144FF6FF71C0E9024104612A
:10354000446184610120CDE90004CDE902040494C2
:10355000CDE90540079469460A480894FEF774FCD3
:1035600008B1FDF702FA099409A906480A94FEF782
:10357000E5FA002801D0FDF7F8F90CB010BD000005
:10358000000401405806002010B58CB000240794B8
:10359000089409941C2168460A94FCF749FE1D48CA
:1035A0001B49C0E900144FF6FF71C0E902410461F4
:1035B0008461FEF70BFB08B1FDF7D7F94FF480509B
:1035C000079007A91348FEF7D1FB08B1FDF7CDF925
:1035D0001048FEF770FF08B1FDF7C7F96020CDE98C
:1035E00000040294002269460A480494FEF7FDFE96
:1035F00008B1FDF7BAF9042269460648FEF7F5FE60
:1036000008B1FDF7B2F90348FEF782FE0CB010BD19
:1036100000400140A00600200C4810B50A49016096
:103620004FF4E1314160002181600C22C160C0E9AA
:1036300004128161C161FFF715F9002803D0BDE8CC
:103640001040FDF792B910BD004C0040E806002084
:103650000C4810B50A4901604FF4E1314160002186
:1036600081600C22C160C0E904128161C161FFF771
:10367000F9F8002803D0BDE81040FDF776B910BD79
:1036800000500040300700200C4810B50A49016086
:103690004FF416514160002181600C22C160C0E9E5
:1036A00004128161C161FFF7DDF8002803D0BDE895
:1036B0001040FDF75AB910BD0010014078070020F6
:1036C0000C4810B50A4901604FF4165141600021C1
:1036D00081600C22C160C0E904128161C161FFF701
:1036E000C1F8002803D0BDE81040FDF73EB910BD79
:1036F00000440040C00700200C4810B50A49016092
:103700004FF416514160002181600C22C160C0E974
:1037100004128161C161FFF7A5F8002803D0BDE85C
:103720001040FDF722B910BD0048004008080020F5
:10373000FEE7000010B5022A07D30021102326A2BD
:10374000084600F0D1F8002010BD401A2649B7EE17
:10375000000A44F62064D1ED040A30EE601A00EE4F
:10376000100A01F13000B8EEC00A50F8221021EE24
:10377000000A01EE101AB8EEC11A00EE810ABDEE81
:10378000C00A10EE101A40F82210184850F82230E3
:103790000B4440F82230A34202DC6442A34201DA27
:1037A00040F8224000EE101A114B50F82200B8EEFB
:1037B000C00AD3ED000A20EE800A00EE900A0D4800
:1037C000F8EEE00A90ED001A01EE200ABDEEC00A04
:1037D00010EE100A10BD00007370656564706964B6
:1037E000206572720000000020000020EC00002024
:1037F000CC000020C8000020FEE770B5002404F1D2
:10380000B000C0B200F08CF8002000F089F8102061
:1038100000F086F80025002000F094F86D1CEDB251
:10382000802DF8D3641CE4B2082CE8D370BD10B529
:10383000C820FDF733FBBDE8104000F08FBD10B588
:103840000446B031C8B200F06BF8102040EA141002
:1038500000F066F804F00F00BDE8104000F060B81A
:103860002DE9F041203A00240D468046D6B27F284B
:1038700003D900208D1C8046EDB2102B29460FD0B5
:10388000FFF7DDFF164906EB460001EB4005285D1A
:1038900000F058F8641CE4B2062CF8D3BDE8F081BF
:1038A000FFF7CDFF0F4F00BF04EB0610385C00F0B0
:1038B00049F8641CE4B2082CF6D36D1CE9B240460A
:1038C000FFF7BDFF5FF0000404EB06103844007AF8
:1038D00000F038F8641CE4B2082CF5D3DEE70000F1
:1038E000B4500008DC5200082DE9F0419846174614
:1038F0000E46044600250DE0434631462046FFF7BC
:10390000AFFF0834E4B2782C02D90024B61CF6B21A
:103910006D1CEDB27A5D002AEED1BDE8F0810000A9
:1039200001B584B001214FF4807204A88DE807002E
:103930000B46002278210248FDF78AFC05B000BD45
:103940006403002001B584B001214FF4807204A803
:103950008DE807000B46402278210248FDF778FCED
:1039600005B000BD6403002070477047FDF794BDAB
:1039700030B593B030216846FCF75AFC14210CA8EE
:10398000FCF756FC1D480025016841F0805101609C
:10399000006800F0805011901948016841F480419E
:1039A00001600068022400F480401190012003901F
:1039B00010200490009406940820CDE90750A82018
:1039C000CDE9090404200B906846FDF7EBFE08B131
:1039D00072B6FEE70CA90F2081E831004FF4A05029
:1039E0000F904FF48050109005210CA8FDF7EEFDCC
:1039F000002801D072B6FEE713B030BD4038024057
:103A0000007000400248016841F470010160704795
:103A100088ED00E00148FEF7E3BB0000A8040020A9
:103A20000148FEF7DDBB0000F00400200148FEF76E
:103A3000D7BB0000380500202DE9F0412A48FEF7E9
:103A4000CFFB2A4D2A4C002728680126401C2860FD
:103A5000A168DFF8A080B0EB410F13DC607801288B
:103A600008D16770012220214046FDF721FB206923
:103A7000401C2061607828B96670002220214046F1
:103A8000FDF716FB28686168B0EB410F13DC207866
:103A9000012808D12770012204214046FDF708FBC8
:103AA000E068401CE060207828B9267000220421DC
:103AB0004046FDF7FDFA2868652800D12E60A07801
:103AC00068B1002202214046FDF7F2FAE07840B1E9
:103AD00000224046BDE8F0411021FDF7E9BA01227D
:103AE000F0E70122F5E70000800500202400002017
:103AF000F8000020001802400148FEF771BB0000EA
:103B000010060020F0B50268274B284D284E294F9B
:103B1000294C4FF0804C984209D0604507D0A8420C
:103B200005D0B04203D0B84201D0A04204D122F067
:103B3000700E4A6842EA0E0298421BD0604519D0C6
:103B4000A84217D0B04215D0B84213D0A04211D02D
:103B50001A4DA8420ED01A4DA8420BD0194DA842BA
:103B600008D0194DA84205D0184DA84202D0184DD2
:103B7000A84203D122F44075CA682A434D6922F055
:103B800080022A438D68C5620D688562984201D023
:103B9000A04201D109690163016841F0040101609B
:103BA000012141610260F0BD0000014000040040BD
:103BB00000080040000C00400004014000400140AB
:103BC000004401400048014000180040001C004033
:103BD0000020004010B501F01F030121046A994044
:103BE0008C430462016A9A401143016210BD10B512
:103BF000846842EA032224F47F440A432243826019
:103C000010BD826822F070020A4342F00701816011
:103C100070470000F0B5036A026A22F001020262F6
:103C200042688469124E24F073050C682C4323F01B
:103C300002058B682B430D4DA84201D0B04205D13F
:103C400023F00807CB683B4323F00403A84201D0CC
:103C5000B04205D14D6922F4407215438A692A4366
:103C600042608461496841630362F0BD0000014025
:103C700000040140F0B5026A036A23F010030362F6
:103C8000436884690D6824F4E64444EA05248D6899
:103C900022F0200242EA05120F4D104EA84201D038
:103CA000B04206D1CF6822F0800242EA071222F029
:103CB0004002A84201D0B04207D14D6923F44063CD
:103CC00043EA85038D6943EA85034360846149685B
:103CD00081630262F0BD0000000001400004014069
:103CE000F0B5026A036A23F4807303624368C4690F
:103CF00022F4007224F073050C68124E2C438D6878
:103D000042EA05220E4DA84201D0B04206D1CF684A
:103D100022F4006242EA072222F48062A84201D023
:103D2000B04207D14D6923F4405343EA05138D692E
:103D300043EA05134360C4614968C1630262F0BD90
:103D4000000001400004014030B5046A026A22F418
:103D5000805202624268C3690D6823F4E64343EA75
:103D600005238D6824F4005444EA0534084DA84224
:103D700002D0084DA84204D14D6922F4804242EAA3
:103D800085124260C36149680164046230BD00006D
:103D9000000001400004014010B5036A046A24F0E9
:103DA00001040462846924F0F00444EA021423F05C
:103DB0000A020A438461026210BD000070B5056A00
:103DC000046A24F0010404628469154EB04214D0E0
:103DD000B0F1804F11D0134EB0420ED0124EB0420F
:103DE0000BD0124EB04208D0114EB04205D0114E49
:103DF000B04202D0104EB04203D124F00304144369
:103E000001E044F001041A0724F0F00444EA1262CD
:103E100025F00A0301F00A0119438261016270BDB5
:103E2000000001400004004000080040000C004079
:103E300000040140004001400018004010B5036A32
:103E4000046A24F010040462846923F0A00324F4BB
:103E5000704444EA023243EA01118261016210BDFA
:103E600030B5046A056A25F010050562856925F4F8
:103E7000407545EA022222F470454FF6FF7202EACD
:103E8000033224F0A0032A43A02404EA01111943B9
:103E90008261016230BD0000F8B51E48FEF7A2FB4A
:103EA0001D4800241D4D01784FF47A73A52902D1D5
:103EB000C1795A2909D01AA00322006800906946E6
:103EC0001448FEF755FE2C70F8BD164E164A317890
:103ED00021B1032907D004290ED00FE00121317050
:103EE000407810700AE01078012801D0022801D132
:103EF00004200DE02C7001E0407840B10BA00322BB
:103F00000068009069460348FEF732FEF8BD0520C0
:103F10003070EFE7E8060020C0000020AC00002071
:103F2000A5005A00AD000020E4000020A5115A00B1
:103F30000148FEF757BB00003007002010B5806B2A
:103F40000021C185FEF74DFB10BD01680C3151E821
:103F5000002F22F4907241E80023002BF5D1016874
:103F6000143151E8002F22F0010241E80023002B18
:103F7000F5D1016B012909D101680C3151E8002FFD
:103F800022F0100241E80023002BF5D1202180F817
:103F9000421000210163704708B590F842102229B1
:103FA00001D0022008BD82684FF480539A4201D1AB
:103FB000016921B1816A9A421BD04AB10AE00268C4
:103FC000816A5268C2F308020A80816A891C08E08B
:103FD000026972B10268526802F07F020A70816A57
:103FE000491C8162C18D491E0904090CC18503D099
:103FF0001BE002685268F1E70168CA6822F02002FB
:10400000CA600168CA6822F48072CA6001684A699D
:1040100022F001024A61202180F842100021416310
:10402000026B012A03D0FEF78BFD002008BD01635F
:1040300001680C3151E8002F22F0100241E8002302
:10404000002BF5D101680A68D20602D50A684968D2
:104050000091818DFEF7C4FAE7E7000070B50446D1
:1040600000680169E26821F440511143016121694E
:10407000A068E26908436169114308432168CA687E
:1040800049F20C639A430243CA6020684169A269FD
:1040900021F440711143416131492068884202D0C6
:1040A0003049884202D1FDF73BFB01E0FDF728FBD8
:1040B000E2690023192164253226B2F5004F6268B7
:1040C00028D0A0FB0101930F9200FCF779F801467C
:1040D000B0FBF5F06FF01802504301EB800006EBE7
:1040E0000010B0FBF5F000F0F002B1FBF5F002EBD0
:1040F0000012B1FBF5F06FF01803584301EB80009C
:1041000006EB0010B0FBF5F000F00F002168104442
:10411000886070BDA0FB010192185B41FCF750F86C
:104120000146B0FBF5F00201B1FBF5F06FF01803AA
:10413000584301EB800006EBC000B0FBF5F000F047
:10414000F80002EB4002B1FBF5F0584301EB8000B0
:1041500006EBC000B0FBF5F000F00700D6E700006A
:10416000001001400014014081628285C285002157
:104170004164222180F84210016921B10168CA68B6
:1041800042F48072CA6001684A6942F001024A61E1
:104190000068C16841F02001C160002070472DE92E
:1041A000F843984617460D460446089E24E0701CC6
:1041B00022D0FCF783FFA0EB0800B0421AD8CEB1A2
:1041C0002068C168490717D5802D15D0402D13D020
:1041D0000168C94309070FD40168002540680090B1
:1041E0002046FFF7B2FE0820606484F840500120AA
:1041F000BDE8F8830320FBE72068006835EA00008B
:1042000004D00020B842D2D00020F1E70120F9E725
:1042100010B54148FEF7E6F9052240493E48FEF751
:1042200081FC3E483E4C0178122946D2DFE801F07D
:10423000450911192129333B465145454545454519
:104240005D690379C2788178407800F045FD354892
:104250005EE00379C2788178407800F03DFD324815
:1042600056E00379C2788178407800F035FD2F4818
:104270004EE00379C2788178407800F02DFD2C481B
:1042800046E00379C2788178407800F025FDBDEEE4
:10429000C00A28483CE00379C2788178407800F071
:1042A0001BFD254834E00379C2788178407800F01E
:1042B00013FDBDEEC00A84ED010A10BD0379C2787A
:1042C0008178407800F008FDBDEEC00A84ED020A56
:1042D00010BD0379C2788178407800F0FDFCBCEE17
:1042E000C00A10EE100AA07010BD0379C278817860
:1042F000407800F0F1FCBCEEC00A10EE100AE0704D
:1043000010BD0379C2788178407800F0E5FC0B4855
:1043100080ED000A10BD000078070020C0000020DA
:10432000F8000020CC000020C8000020D4000020AD
:10433000D8000020E8000020BC000020D0000020B1
:104340000148FEF74FB90000C00700200148FEF702
:1043500049B9000008080020FEE70000FEB500246F
:10436000094F4FF4807501263819CDE90006012365
:104370000022782102950548FCF76AFF641CE4B22C
:104380001B2CF1D3FEBD00000000002064030020C0
:104390000FB4054B10B503A9044A029800F0EAF8DF
:1043A00010BC5DF814FB0000F14C0008180100205F
:1043B0000907090E002804DB00F1E02080F8001452
:1043C000704700F00F0000F1E02080F8141D7047E6
:1043D00002E008C8121F08C1002AFAD170477047CE
:1043E000002001E001C1121F002AFBD1704700002C
:1043F0002DE9FF5F82B00021DDE90430020DDDF818
:1044000040B0034318D044F61050A2F2FF324243AA
:104410001514119801281FD0A5EB0B00401C5FEA72
:10442000000A4FF000064E4FDFF83891B046504674
:1044300015D5CAF1000413E0119801244AA30128FC
:1044400001D16FEA0B010298119AC0E90031C0E96D
:10445000024206B0BDE8F09FCBF10000DFE7044662
:104460000021404A491842EB0450CDE9001012E007
:10447000E00707D032463B4640464946FBF7D2FFAD
:104480008046894632463B4610461946FBF7CAFF2E
:1044900006460F466410002CEAD1DDE90401DDE98F
:1044A0000023BAF1000F06DAFBF7BCFF42464B4689
:1044B000FBF7B8FF05E0FCF727F842464B46FCF750
:1044C00023F804460E460022284BFCF7A5F803D833
:1044D0004FF0FF30014607E00022254B20463146D1
:1044E000FBF7F9FEFCF77FF8102409E0002C0ADB4B
:1044F0000A220023FBF764FE039B30321A55641E28
:1045000050EA0102F2D1641C039AC4F1110314446D
:10451000119A012A03D0012208430DD10AE0084371
:1045200004D000204FF0110B119072E7A3EB0B05A4
:104530006D1E0DE05B4504DD4FF0000205F1010545
:1045400004E003DA4FF00002A5F10105002AECD0E7
:1045500002981199C0E90231C0E9004579E70000ED
:10456000000014400000F03F300000000000F04365
:104570000000E03F2DE9FF4F95B09B468946064677
:1045800000250FE2252877D100242746F84A01218B
:10459000059400E0044316F8013F203B01FA03F0C4
:1045A0001042F7D130782A2811D06FF02F033078DD
:1045B000A0F13002092A16D8059A44F0020402EB51
:1045C000820203EB42021044761C0590EFE759F893
:1045D000042B0592002A03DA504244F4005405905B
:1045E00044F00204761C30782E2816D116F8010FFC
:1045F00044F004042A280DD06FF02F023078A0F187
:104600003003092B09D807EB870302EB4303C718D4
:10461000761CF3E759F8047B761C30786C280FD0B1
:1046200006DC4C2817D068280DD06A2814D104E085
:10463000742810D07A280FD10DE044F400140AE059
:1046400044F4801401E044F440147278824202D1B0
:1046500004F58014761C761C307866280BD013DCA9
:10466000582877D009DC002875D04528F6D0462890
:10467000F4D047281AD19DE118E0632835D064288A
:1046800079D0652812D195E1702873D008DC6728AD
:10469000F1D069286FD06E280DD06F2806D1B5E013
:1046A00073282CD0752875D0782874D05A4617995D
:1046B00090476D1C75E1C4F30250022809D003280D
:1046C0000DD0D9F8001004280DD00D6009F10409AF
:1046D00067E1D9F80010EA17C1E90052F6E7D9F806
:1046E00000100D80F2E70D70F0E719F8041B8DF84B
:1046F000001000208DF80100EA46012003E059F87F
:1047000004AB4FF0FF3061074FF0000102D40DE021
:1047100008F101018846B9420FDA8045F8DB1AF842
:1047200008100029F4D108E008F10101884681420F
:10473000FADB1AF808100029F6D105985B46A0EBC1
:10474000080721463846179A00F094FA284400EBEF
:10475000080507E04DE029E10DE01AF8010B5A4683
:1047600017999047B8F10108F7D25B4621463846C1
:10477000179A13E142E00A220092C4F302524FF06A
:10478000000A022A08D059F804CB032A4FEAEC7138
:104790000AD00DE029E02AE009F1070121F0070223
:1047A000F2E802C1914609E00FFA8CFC4FEAEC7185
:1047B000042A03D14FFA8CFC4FEAEC71002907DA86
:1047C0000A460021DCF1000C61EB02012D2202E01F
:1047D000220504D52B228DF80420012203E0E207F4
:1047E00001D02022F7E7904659E00A2102E010228A
:1047F0000DE010214FF0000A00910BE010224FF065
:10480000000A44F004040827009203E008224FF055
:10481000000A0092C4F30252022A05D059F804CBD0
:104820000021032A08D009E009F1070121F007025D
:10483000F2E802C1914605E01FFA8CFC042A01D17E
:104840000CF0FF0C4FF00008220728D5702806D086
:10485000009B83F0100353EA0A0305D00EE04022C8
:104860008DF80420012208E05CEA010206D0302223
:104870008DF804208DF8050002229046009B83F0FD
:10488000080353EA0A030AD15CEA010201D1620774
:1048900005D530228DF804204FF001087F1E5828DE
:1048A00004D034A003900EA802900DE036A0F9E7E2
:1048B00053466046009AFBF783FC84460398825C6B
:1048C0000298401E029002705CEA0100F0D102984A
:1048D00006A9081A00F1200A600702D524F48034E2
:1048E00000E00127574502DDA7EB0A0000E00020A9
:1048F00000EB0A01009005984144401A0590E0033E
:1049000006D45B462146179A059800F0B3F9054492
:10491000002706E001A85A46C05D179990476D1C14
:104920007F1C4745F6DBE0030CD55B462146179A12
:10493000059800F09FF9054404E030205A46179985
:1049400090476D1C0099481E00900029F5DC08E096
:10495000029802995A460078491C0291179990478B
:104960006D1CBAF10001AAF1010AF1DC65E1000059
:104970000928010030313233343536373839616235
:1049800063646566000000003031323334353637F9
:1049900038394142434445460000000000F058F9D0
:1049A0000544761C307800287FF4ECAD19B0284619
:1049B000BDE8F08F620700D4062709F1070222F054
:1049C000070CFCE80223E14603F000485FEA080C0C
:1049D00002D00FF2702C0DE05FEA045C02D50FF2FA
:1049E000682C07E05FEAC47C02D00FF2602C01E083
:1049F000AFF2700C4FF0FF3823F00043CDF850C0F9
:104A000065280CD006DC452809D046281DD047284B
:104A10003DD13DE0662818D067287ED138E00021DE
:104A2000112F01DB112000E0781CCDE9000106A95F
:104A30000EA8FFF7DDFCDDE90F010E9A03910021BE
:104A4000009207F1010A04914DE04FF000400097F9
:104A5000CDE9011006A90EA8FFF7CAFCDDE90F0297
:104A600003920E9B11990022DDF80CA00093049292
:104A700011B9791C00EB010AB7EB0A0004D4C0F1AC
:104A8000FF3007F1010A0490AAEB0700019044E00F
:104A9000012F00DA01270021112F01DD112000E094
:104AA0003846CDE9000106A90EA8FFF7A1FCDDE913
:104AB0000F010E9A0391002104910092BA4621073A
:104AC0000CD40399514500DA8A46BAF1010F05DD8D
:104AD000009AAAF10101515C302908D0B84202DAEB
:104AE00010F1040F06DA0121CDE9011015E0AAF159
:104AF0000101E9E7002805DC049901440491AAEBCF
:104B0000000102E0411C514500DD8A460499401A2B
:104B1000401C01904FF000400290200704D40198FF
:104B2000504501DBCDF8048000208DF84F0002983D
:104B30000DF14F07B0F1004F25D02B200E900298B9
:104B40004FF0020800280CDA404202902D200E900F
:104B500007E00A210298FBF789FB3031029007F841
:104B6000011DB8F10001A8F10108F2DC029800284B
:104B7000EFD1791E0E980870307800F0200040F0D8
:104B8000450007F8020D12A8C01B00F10708149891
:104B9000007800B1012000EB0A01019801EBE071FF
:104BA00005984144401A401E0590E00306D45B4638
:104BB0002146179A059800F05DF80544149800788E
:104BC00018B15A46179990476D1CE00324D55B46EF
:104BD0002146179A059800F04DF805441CE004980A
:104BE000002807DBDDE90301884203DD0098405C13
:104BF000179901E0179930205A469047049805F11B
:104C00000105401C04900198401E019004D12E2003
:104C10005A46179990476D1CBAF10001AAF1010A92
:104C2000DDDC05E017F8010B5A46179990476D1C1B
:104C3000B8F10001A8F10108F4DC5B462146179A9F
:104C40000598ABE62D0000002B00000020000000BE
:104C50002DE9F041044600251E461746880404D479
:104C600005E039462020B0476D1C641EF9D5284662
:104C7000BDE8F0812DE9F041044600251E4690462E
:104C8000C80301D5302700E02027880404D505E0BB
:104C900041463846B0476D1C641EF9D52846BDE82C
:104CA000F081000030EE600A0849DFED090A10EEDD
:104CB000100A884202DD30EE600A704710EE100ADA
:104CC00004498842F9D930EE200A70470000344385
:104CD0000000B443000034C310B560F3070461F36F
:104CE0000F2462F3174463F31F6400EE104A10BDF3
:104CF00013B54FF0FF33012269460248FDF738FF34
:104D000000981CBD7807002010B54FF47A73046832
:104D10005A429C4201DD036002E0944200DA0260E4
:104D20000868984201DD0B6010BD9042FCDA0A6011
:104D300010BD00002DED028B8CB0FCF7B5FBFEF72B
:104D400017FEFEF721F9FEF701F9FEF7CDF8FEF7A1
:104D5000BDF9FEF7DBF9FEF7F9F9FEF717FAFEF7F2
:104D600069FAFEF79BFAFEF7FDFAFEF7D7FBFEF7AE
:104D700053FCFEF76DFCFEF787FCFEF7A1FCFEF787
:104D800003FCFEF787FBFEF751FBFEF7B5FCFEF7D1
:104D9000A3FBFEF74CFDFEF730FD00213748FDF781
:104DA000B9FB04213548FDF7B5FB08213348FDF771
:104DB000B1FB0C213148FDF7ADFB3C213048FDF73C
:104DC00007F93C212F48FDF703F90021084600F0C0
:104DD00079F82D4C012210212046FCF769F90122B7
:104DE00008212046FCF764F9012202212046FCF745
:104DF0005FF9012211462046FCF75AF901222349A6
:104E00002348FDF78FFEFCF759F9DFF88880224F21
:104E1000DFF888909FED228BB8F9040000EE100AAD
:104E2000F8EEC00AC7ED020AB9F9040000EE100A54
:104E3000B8EEC01A87ED011A97ED030AFBF71EFDC5
:104E40000446B868FBF7FFF905460E46F868FBF71D
:104E5000FAF906AA0A9482E863008DED048B012317
:104E60008DED028B8DED008B1A4619460EA0FFF7D3
:104E70008FFA2146484200F065F8CDE7F0040020A3
:104E8000A80400205806002000180240F40000206A
:104E9000C007002072000020B00000206A0000203F
:104EA000000000000000F03F25642C25642C2564E0
:104EB0002C25662C25662C25662C25662C25662C33
:104EC00025640A0073B501A96846FFF71DFF4FF47A
:104ED000007100984D10194C002805DD0022204675
:104EE000FCF7E6F8012204E001222046FCF7E0F896
:104EF000002229462046FCF7DBF80098FBF725FC4A
:104F00000F4D296848634FF4806101984E000028D6
:104F100005DD01222046FCF7CBF8002204E0002248
:104F20002046FCF7C5F8012231462046FCF7C0F8C0
:104F30000198FBF70AFC296888637CBD00040240E5
:104F4000F004002070B50E46034600F015F8094C39
:104F5000002218462168FEF7EDFB05460122304687
:104F60002168FEF7E7FB01462846BDE87040FFF7E1
:104F7000A9BF0000DC0000200A4800B502680A4909
:104F80000978521A0A2A0BD30160084800F016F873
:104F9000074940420860074800F010F806490860D9
:104FA00000BD00001401002020000020A804002003
:104FB000DC00002058060020E00000200168486A5C
:104FC000002200B24A62704730B5384A38495378F7
:104FD0001370C854A1F58071C8545B1CDBB25370C8
:104FE0000C780020552C5ED10B2B5DD3002423467A
:104FF000CD5C5B1C2C44E4B20A2BF9DB8B7AA34218
:1050000051D14B78503B0A2B4DD2DFE803F0050D10
:10501000151D252D353B414751F8023FC2F802309E
:105020004968C2F806103EE051F8023FC2F80A3063
:105030004968C2F80E1036E051F8023FC2F812304B
:105040004968C2F816102EE051F8023FC2F81A3033
:105050004968C2F81E1026E051F8023FC2F822301B
:105060004968C2F826101EE051F8023FC2F82A3003
:105070004968C2F82E1016E051F8023F53634968A0
:10508000916310E051F8023FD363496811640AE06C
:1050900051F8023F53644968916404E051F8023FBB
:1050A000D36449681165507030BD0000580000207D
:1050B0001C0200200000000000000000002F000083
:1050C00000000700070000147F147F1400242A7FCB
:1050D0002A1200626408132300364955225000004A
:1050E0000503000000001C224100000041221C00BA
:1050F0000014083E08140008083E0808000000A03C
:105100006000000808080808000060600000002037
:1051100010080402003E5149453E0000427F400015
:10512000004261514946002141454B31001814129B
:105130007F10002745454539003C4A494930000168
:105140007109050300364949493600064949291EB7
:105150000000363600000000563600000008142219
:105160004100001414141414000041221408000219
:105170000151090600324959513E007C1211127C3E
:10518000007F49494936003E41414122007F41416B
:10519000221C007F49494941007F09090901003E5D
:1051A0004149497A007F0808087F0000417F41009B
:1051B000002040413F01007F08142241007F404011
:1051C0004040007F020C027F007F0408107F003EF9
:1051D0004141413E007F09090906003E4151215EDF
:1051E000007F091929460046494949310001017FDC
:1051F0000101003F4040403F001F2040201F003F72
:105200004038403F00631408146300070870080723
:1052100000615149454300007F41410000552A5536
:105220002A55000041417F000004020102040040B1
:1052300040404040000001020400002054545478D3
:10524000007F4844443800384444442000384444F3
:10525000487F00385454541800087E090102001891
:10526000A4A4A47C007F080404780000447D4000CE
:10527000004080847D00007F102844000000417FB2
:105280004000007C04180478007C0804047800388E
:105290004444443800FC242424180018242418FC16
:1052A000007C0804040800485454542000043F447F
:1052B0004020003C4040207C001C2040201C003C42
:1052C0004030403C004428102844001CA0A0A07C92
:1052D000004464544C4414141414141400000000CA
:1052E000000000000000000000000000000000F8C6
:1052F00000000000000000333000000000100C0629
:10530000100C0600000000000000000040C07840C3
:10531000C0784000043F04043F040400007088FC8F
:1053200008300000001820FF211E0000F008F000E7
:10533000E018000000211C031E211E0000F0088858
:10534000700000001E2123241927211010160E00C2
:10535000000000000000000000000000000000E06D
:105360001804020000000007182040000002041882
:10537000E00000000040201807000000404080F0DE
:10538000804040000202010F01020200000000F014
:10539000000000000101011F0101010000000000E8
:1053A0000000000080B0700000000000000000005D
:1053B00000000000000101010101010100000000E6
:1053C000000000000030300000000000000000007D
:1053D00080601804006018060100000000E010085A
:1053E0000810E000000F102020100F00001010F82F
:1053F000000000000020203F20200000007008086E
:1054000008887000003028242221300000300888ED
:10541000884830000018202020110E000000C02015
:1054200010F8000000070424243F240000F8088836
:10543000880808000019212020110E0000E01088C3
:1054400088180000000F112020110E0000380808F5
:10545000C83808000000003F000000000070880805
:1054600008887000001C222121221C0000E0100886
:105470000810E0000000312222110F00000000C0DF
:10548000C00000000000003030000000000000807C
:10549000000000000000806000000000000080406C
:1054A0002010080000010204081020004040404085
:1054B00040404000040404040404040000081020D8
:1054C000408000000020100804020100007048081D
:1054D0000808F0000000003036010000C030C82885
:1054E000E810E0000718272423140B000000C03840
:1054F000E0000000203C23020227382008F88888BA
:1055000088700000203F202020110E00C0300808C5
:1055100008083800071820202010080008F808089C
:105520000810E000203F202020100F0008F8888895
:10553000E8081000203F20202320180008F8888861
:10554000E8081000203F200003000000C0300808D9
:105550000838000007182020221E020008F8080062
:105560000008F808203F210101213F20000808F829
:10557000080800000020203F20200000000008084C
:10558000F8080800C08080807F00000008F888C00C
:1055900028180800203F20012638200008F80800BD
:1055A00000000000203F20202020300008F8F800F4
:1055B000F8F80800203F003F003F200008F830C006
:1055C0000008F808203F200007183F00E0100808F6
:1055D0000810E0000F10202020100F0008F8080825
:1055E0000808F000203F210101010000E010080838
:1055F0000810E0000F18242438504F0008F888885D
:1056000088887000203F2000030C3020007088083C
:10561000080838000038202121221C00180808F84A
:10562000080818000000203F2000000008F80800CB
:105630000008F808001F202020201F00087888009C
:1056400000C83808000007380E010000F80800F80C
:105650000008F800033C0700073C030008186880B6
:105660008068180820302C03032C30200838C8002C
:10567000C83808000000203F20000000100808087B
:10568000C83808002038262120201800000000FE1D
:10569000020202000000007F40404000000C30C0C9
:1056A00000000000000000010638C00000020202F5
:1056B000FE000000004040407F00000000000402A7
:1056C00002020400000000000000000000000000D2
:1056D00000000000808080808080808000020204C2
:1056E00000000000000000000000000000008080BA
:1056F000808000000019242222223F2008F8008028
:1057000080000000003F112020110E0000000080EA
:1057100080800000000E1120202011000000008079
:105720008088F800000E112020103F2000008080AB
:1057300080800000001F222222221300008080F0BF
:10574000888888180020203F2020000000008080EA
:1057500080808000006B94949493600008F800802F
:1057600080800000203F210000203F20008098988A
:10577000000000000020203F2020000000000080EA
:105780009898000000C08080807F000008F800002A
:1057900080808000203F24022D302000000808F87F
:1057A000000000000020203F20200000808080803A
:1057B00080808000203F20003F20003F80800080CC
:1057C00080800000203F210000203F2000008080DA
:1057D00080800000001F202020201F00808000808B
:1057E0008000000080FFA12020110E00000000803A
:1057F00080808000000E112020A0FF80808080002B
:105800008080800020203F21200001000000808057
:10581000808080000033242424241900008080E04C
:10582000808000000000001F202000008080000019
:1058300000808000001F202020103F2080808000FA
:105840000080808000010E3008060100808000800A
:10585000008080800F300C030C300F00008080002F
:10586000808080000020312E0E312000808080005A
:105870000080808080818E7018060100008080800A
:10588000808080000021302C2221300000000000A8
:10589000807C020200000000003F40400002027CC9
:1058A000800000000040403F0000000000000000B9
:1058B000FF00000000000000FF00000000000414D2
:1058C00064040CB402024233020000000000000035
:1058D0000000000000000000000000004041211115
:1058E000090503FF030509112141400000000000E4
:1058F0000000000000000000000000001010D0FFB9
:10590000900010919690F090949310000000000089
:10591000000000000000000000000000040300FF81
:10592000000104040404FF04040404000000000057
:10593000000000000000000000000000008060F88F
:105940000704E4A4A4BFA4A4E40400000000000031
:10595000000000000000000000000000010000FF47
:1059600040407F4A4A4A4A4A7F40400000000000C7
:105970000000000000000000000000000000F888A7
:10598000888888FF88888888F80000000000000068
:1059900000000000000000000000000000001F08E0
:1059A0000808087F888888889F80F0000000000031
:1059B0000000000000000000000000000000FE02E7
:1059C00082828282FA828282828202000000000049
:1059D00000000000000000000000000080601F4088
:1059E000404040407F40404458404000000000009C
:1059F000000000000000000000000000008060F8CF
:105A00000704E4A4A4BFA4A4E40400000000000070
:105A1000000000000000000000000000010000FF86
:105A200040407F4A4A4A4A4A7F4040000000000006
:105A30000000000000000000000000000000000066
:105A40000000000000000000000000000000000056
:105A500000000000000000000000000000003636DA
:105A60000000000000000000000000000000000036
:105A70000000000000000000000000000000000026
:105A800000000000010203040607080900000000EE
:105A9000010203040006101600061016BC5A000886
:105AA000000000201C010000D0430008D85B000863
:105AB0001C010020F40B0000E0430008AE00104081
:105AC000B081FFA1A6A83FC8D300D580D805D9F1E1
:105AD000DA12D8308D14AF000024F400000000006A
