:020000040800F2
:10000000100D00209D010008BF2D00081F250008CD
:10001000BD2D0008D9030008953600080000000037
:10002000000000000000000000000000C32D0008D8
:100030007104000800000000C12D0008C52D000853
:10004000B7010008B7010008B7010008B7010008B0
:10005000B7010008B7010008B7010008B7010008A0
:10006000B7010008B7010008B7010008B701000890
:10007000B7010008B7010008B7010008B701000880
:10008000B7010008B7010008B7010008B701000870
:10009000B7010008B7010008B7010008B701000860
:1000A000B70100086D2E0008B7010008B70100086D
:1000B000792E0008852E0008912E0008B70100084F
:1000C000B7010008B7010008B7010008B701000830
:1000D000B7010008753500087D360008893600082C
:1000E000B7010008B7010008B7010008B701000810
:1000F000B7010008B7010008B7010008B701000800
:10010000B7010008B70100089D2E0008B7010008DC
:10011000F932000805330008A92E0008092F00084D
:10012000B7010008B7010008DD030008B7010008A7
:10013000B7010008B7010008B7010008B7010008BF
:10014000B7010008B7010008B7010008B7010008AF
:10015000B7010008B7010008E9030008B70100086B
:10016000B7010008B7010008B7010008B70100088F
:10017000B7010008B7010008B7010008000000003F
:10018000B7010008B7010008DFF80CD000F07AF8DA
:1001900000480047ED360008100D00200648804753
:1001A00006480047FEE7FEE7FEE7FEE7FEE7FEE75C
:1001B000FEE7FEE7FEE7FEE75D2E00088901000886
:1001C0002DE9F05F0546002092469B46884606468C
:1001D000814640241BE0284641464746224600F01F
:1001E00041F853465A46C01A914110D31146184659
:1001F000224600F028F82D1A67EB01084F462246E8
:100200000120002100F01FF817EB00094E41201ECD
:10021000A4F10104DFDC484631462A464346BDE8E6
:10022000F09FD2B201E000F8012B491EFBD27047CB
:100230000022F6E710B513460A4604461946FFF7B2
:10024000F0FF204610BD202A04DB203A00FA02F11C
:10025000002070479140C2F1200320FA03F31943B4
:1002600090407047202A04DB203A21FA02F0002156
:10027000704721FA02F3D040C2F1200291400843B6
:1002800019467047064C074D06E0E06840F0010350
:1002900094E8070098471034AC42F6D3FFF778FF94
:1002A000A4390008C4390008002800DC4042704727
:1002B000464910B54A6822F440324A604A684368A9
:1002C0001A434A6001684A6822F480724A600168F1
:1002D0004A68036942EA03224A6001684A6822F0D8
:1002E00040724A6001684A6883681A434A6001683C
:1002F0008A6822F400628A6001688A68C3681A43C7
:100300008A60816A6FF07062D14201688A6822F067
:1003100070628A6001688A680CD0836A1A438A60B6
:1003200001688A6822F040528A6001688A68C36A5C
:100330001A4301E022F040528A6001688A6822F084
:1003400002028A6001688A68037E42EA43028A6088
:1003500090F82010002901684A680FD042F400622A
:100360004A6001684A6822F460424A6001684A684B
:10037000174C436A04EB43331A4301E022F4006252
:100380004A600168CA6A22F47002CA620168CA6AD5
:10039000838B104C04EB03531A43CA6201688A68CA
:1003A00022F400728A6001688A6890F8303042EA6C
:1003B00043228A6001688A6822F480628A60016848
:1003C0008A68406942EA8020886010BD00230140AD
:1003D00000E0FFFF0000F0FFFEE70000014800F032
:1003E000A7B9000050080020014800F0A1B90000A2
:1003F000B008002001681823CAB2103AB2FBF3F229
:10040000054B6FF30901032A9B5CC36500D9091DE5
:1004100081650846704700009C39000810B5014608
:1004200000208B698A6A4FF0C07453B1B3F5005F46
:1004300015D072B1012A0CD0022A0AD0032A09D1A0
:1004400004E01AB1012A06D0022A03D1C96AC901FF
:1004500000D5012010BDC96AA142FAD010BD002A02
:10046000F7D0012AF2D0022AF3D0032AF3D010BD2C
:10047000704772B6FEE7000078B50024009490F84B
:100480003C20012A19D0012280F83C200A68072369
:100490000568092A13D9EE680A3A02EB4202934032
:1004A0009E43EE600B788A680A3B03EB43039A4055
:1004B0000368DD682A43DA6010E0022078BD2E6907
:1004C00002EB420293409E432E610B788A6803EB55
:1004D00043039A4003681D692A431A614A681F232F
:1004E000072A13D205686E6B521E02EB82029340FC
:1004F0009E436E630B790A885B1E92B203EB830303
:100500009A4003685D6B2A435A6327E005680D2A09
:1005100012D22E6BD21F02EB820293409E432E63B7
:100520000B790A88DB1F92B203EB83039A400368BE
:100530001D6B2A431A6311E0EE6A0D3A02EB820248
:1005400093409E43EE620B790A880D3B92B203EB17
:1005500083039A400368DD6A2A43DA62164B056812
:10056000144A9D4206D10D68122D03D1556845F4F9
:100570008005556005689D4218D10B68102B01D08D
:10058000112B13D1536843F40003536009681029F9
:100590000CD10A490A4A0968B1FBF2F101EB810169
:1005A000490000E0491E00910029FBD180F83C4041
:1005B000002078BD00230140002001400000002001
:1005C00040420F0070B504004FF0000503D0206CCE
:1005D000002610B107E0012070BD204600F01CF895
:1005E000666484F83C60206CC00610D4206C20F453
:1005F000885040F0020020642046FFF759FE6664F0
:10060000206C20F0020040F00100206400E0012591
:1006100084F83C60284670BD10B586B004461421AD
:100620006846FFF705FE1149206888421CD1104832
:100630000021026842F480620260006800F4806079
:1006400005900B481438026842F00102026000680D
:1006500000F0010005900F2000900320CDE901017A
:100660006946044800F0B0F906B010BD0022014010
:1006700044380240000002402DE9F0410446876DF5
:1006800000F0A8FA064694F835000025022806D0A6
:100690008020606584F834500120BDE8F081206836
:1006A000016821F0160101602068416921F0800194
:1006B0004161206C08B9A06C20B12068016821F06C
:1006C000080101602068016821F0010101600CE06F
:1006D00000F080FA801B052807D9202060650320E0
:1006E00084F8350084F83450D7E720680068C007E4
:1006F000EED194F85C103F208840B860012084F867
:10070000350084F834500020C7E790F835100229EE
:1007100003D08021416501207047052180F8351004
:100720000068016821F001010160002070470000AD
:100730002DE9F84304464FF00009CDF800906348D6
:100740004FF41651A56D0068B0FBF1F72E6894F8D0
:100750005C10082000FA01F131420FD021680A68CC
:1007600052070BD50A6822F004020A6094F85C1064
:100770008840A860606D40F00100606594F85C10EE
:100780004FF0010808FA01F0304208D021684969A9
:10079000090604D5A860606D40F00200606594F819
:1007A0005C1004208840304208D02168096889071D
:1007B00004D5A860606D40F00400606594F85C109A
:1007C00010208840304218D021680968090714D5E4
:1007D000A86020680168490304D50068000308D5B3
:1007E000A16C07E00168C90503D4016821F0080184
:1007F0000160216C09B12046884794F85C102020E4
:100800008840304231D021680968C9062DD5A860DA
:1008100094F8350005282068016806D0490347D5BB
:10082000006800031DD4616C1CE021F0160101601A
:100830002068416921F080014161206C08B9A06CF9
:1008400020B12068016821F00801016094F85C1073
:100850003F208840A86084F8358084F83490216D6A
:100860001FE0E16B09B120468847606D00282BD05E
:10087000606DC00714D0052084F835002068016839
:1008800021F0010101600098401C0090B84203D89B
:1008900020680068C007F6D184F8358084F8349069
:1008A000E16C002910D001B02046BDE8F0430847B4
:1008B0000168C905D5D4016821F01001016084F8F0
:1008C000358084F83490CCE7BDE8F8830000002040
:1008D0002DE9F041044600F07DF906465CB10220A6
:1008E00084F83500002584F834502068016821F030
:1008F000010101600DE00120BDE8F08100F06AF91E
:10090000801B052805D920206065032084F8350068
:10091000F2E720680068C007F0D12268116820481B
:100920000140D4E901031843D4E9033633431843A3
:1009300063691843A3691843E3691843236A18439A
:100940000843616A042903D1D4E90B13194308430E
:10095000106020684069666A20F0070130460E4347
:10096000012704280CD1A06A0643E06A40B1204662
:10097000FFF754FD20B14020606584F83570BAE778
:10098000206846612046FFF735FD94F85C203F2142
:1009900091408160656584F835700020ACE7000007
:1009A0003F8010F070B5044600F014F90546601C55
:1009B00002D004480078044400F00CF9401BA04227
:1009C000FAD370BD900000202DE9F84FDFF8BCA1EC
:1009D0000022012503264FF00F090AF1040BAAF1AA
:1009E000040E00BF0B6805FA02F42340A34270D145
:1009F0000F7907F00307012F01D0022F16D1876866
:100A00004FEA420806FA08FC27EA0C07D1F80CC0A6
:100A10000CFA08FC4CEA070CC0F808C04768A7436A
:100A20000C79C4F3001494403C4344600C79E443D3
:100A3000A4070AD0C4684FEA420C06FA0CF7BC437C
:100A40008F6807FA0CF72743C7600C7904F003049A
:100A5000022C12D1D40800EB840CDCF8204057079C
:100A6000FF0E09FA07F824EA0804D1F8108008FA02
:100A700007F848EA0408CCF8208004684FEA420CE2
:100A800006FA0CF7BC430F7907F0030707FA0CF7D7
:100A9000274307604C6814F4403F70D03C4C2768F3
:100AA00047F480472760246822F0030704F4804459
:100AB0000094384C07EB040CDCF8084897074FEA21
:100AC000177809FA08F7BC43334FB84202D1002720
:100AD00024E054E0314FB84201D101271EE0304FED
:100AE000B84201D1022719E02E4FB84201D10327A5
:100AF00014E02D4FB84201D104270FE02B4FB8422C
:100B000001D105270AE02A4FB84201D1062705E0A6
:100B1000284FB84201D1072700E0082707FA08F755
:100B20002743CCF80878DAF800405746D1F804C0DB
:100B30009C435FEACC2C00D51C433C60DBF80040B2
:100B40005F46D1F804C09C435FEA8C2C00D51C435F
:100B50003C60DEF800407746D1F804C09C435FEA71
:100B60008C3C00D51C433C60084F083F3C68D1F8E2
:100B700004C09C435FEACC3C00D51C433C60521C43
:100B8000102AFFF42FAFBDE8F88F0000083C0140A9
:100B9000443802400030014000000240000402409E
:100BA00000080240000C0240001002400014024005
:100BB00000180240001C0240426921EA02030A4078
:100BC00043EA0241816170470AB1816170470904BB
:100BD000FBE700000148806870470000900000209B
:100BE00070B5040025D094F83D00002520B984F8A4
:100BF0003C50204600F0B8F8242084F83D002068DE
:100C0000016821F0010101602068016841F40041A0
:100C100001602068016821F40041016000F064FA7D
:100C20004D4A6168914201D84C4900E04C498842E4
:100C300001D2012070BD4B492368B0FBF1F15E6821
:100C400026F03F060E435E606368934206D94FF478
:100C5000967359434FF47A73B1FBF3F12368491C3F
:100C60001E6A26F03F06314319626168914210D82E
:100C70004900401EB0FBF1F2521CC2F30B02042AE1
:100C800001D2042022E0B0FBF1F0401CC0F30B00C5
:100C90001CE0A268F2B301EBC10303EB0116431E93
:100CA000B3FBF6F35B1C43F480431B0549D092B3BE
:100CB00001EBC10202EB0111401EB0FBF1F0401C40
:100CC000C0F30B0040F4804040F400402168CA6942
:100CD0004CF6FF739A431043C861D4E907100143EF
:100CE0002068026822F0C00211430160D4E90301C8
:100CF00001432068826848F2FF339A4311438160C0
:100D0000D4E9050108432168CA6822F0FF021043B4
:100D1000C86001E00EE016E02068016841F00101C2
:100D200001602564202084F83D00256384F83E504E
:100D3000002070BD01EB4106431EB3FBF6F35B1CC4
:100D4000B3E70120C2E701EB4101401EB0FBF1F027
:100D5000401CC0F30B00B7E7A086010080841E0092
:100D600000093D0040420F002DE9F04186B00446E5
:100D700014216846FFF75CFA22683A4C384B002190
:100D8000384812260325042710349A4219D10268E4
:100D900042F002020260006802AA00F00200059020
:100DA00082E8A200C020CDE9000669462E48FFF780
:100DB0000BFE206840F400102060206800F4001052
:100DC0001AE02A4B9A421BD1026842F020020260CC
:100DD000006802AA00F020000590CDE9005682E8E4
:100DE000A20069462248FFF7EFFD206840F480002A
:100DF0002060206800F48000059006B0BDE8F08116
:100E00001C4B9A42F9D18846016841F00401016007
:100E1000016801F004010591016841F001010160E0
:100E20000068694600F00100059050158DE8410109
:100E3000CDE903571048FFF7C7FD4FF480708DE8E8
:100E40004101CDE9035769460C48FFF7BDFD206815
:100E500040F400002060206800F40000CCE70000AF
:100E60000054004030380240000402400058004066
:100E700000140240005C00400008024000000240F4
:100E80000248816802781144816070479000002018
:100E90000B4810B5016841F400710160016841F42C
:100EA00080610160016841F480710160032000F0FD
:100EB0006FF80F2000F006F800F024F8002010BDB5
:100EC000003C024070B50D4D04464FF47A7128780D
:100ED000B1FBF0F00A490968B1FBF0F000F00CFB3F
:100EE00048B9102C07D200222146501E00F030F8DD
:100EF00000206C6070BD012070BD000090000020DB
:100F0000000000200A4808B5016841F480410160F2
:100F1000006800F4804000900548001F016841F01F
:100F200080510160006800F08050009008BD000012
:100F300044380240002809DB00F01F0201219140E3
:100F40004009800000F1E020C0F800117047000067
:100F5000F0B40E4B1B680C46C3F30223C3F1070524
:100F6000042D00D90425191D072901D2002300E012
:100F7000DB1E012606FA05F1491E214099409E40DC
:100F8000761E16403143F0BC02F085BB0CED00E04C
:100F9000064900F0070208684FF6FF03184040EAD0
:100FA0000220034A10430860704700000CED00E087
:100FB0000000FA052DE9F0470E46050065D0DFF880
:100FC0001481D8F80000F7B200F00700B04207D251
:100FD00088F80070D8F8000000F00700B04254D143
:100FE00028683D4C810712D5400703D5206840F49E
:100FF000E05020602878000703D5206840F4604066
:1010000020602068A96820F0F0000843206028785C
:10101000C0072DD0304968680839012812D002284D
:1010200013D0032811D00968890700292DDA216817
:1010300021F0030101432160FFF7CCFD814641F21D
:10104000883A0EE009688903EFE709688901ECE74F
:10105000FFF7C0FDA0EB0901514502D90320BDE80F
:10106000F0872068696800F00C00B0EB810FEFD1C9
:10107000D8F80010404601F00701B14207D90770C7
:10108000006800F00700B04201D00120E7E72878AF
:10109000400705D52068E96820F4E0500843206047
:1010A0002878000706D52068296920F4604040EAC6
:1010B000C100206000F038F82168084AC1F303112C
:1010C000515CC8400649086006480068FFF7FAFE10
:1010D0000020C4E7003C0240083802408439000880
:1010E00000000020940000200448054900680968B9
:1010F000044AC1F38221515CC840704700000020BF
:101100000838024094390008044805490068096815
:10111000044AC1F34231515CC840704700000020CE
:101120000838024094390008154810B5006810F0DE
:101130000C02144813D01449042A0FD0082A0ED1E7
:101140000F4C241F2268236802F03F025B0207D580
:101150002068C0F38810A0FB010106E0084610BD1E
:101160002168C1F38811A1FB00010023FFF728F8D3
:101170002168C1F30141491C4900B0FBF1F010BDE9
:10118000083802400024F40040787D012DE9F84F32
:1011900004006ED02078DFF84C93C007A9F1040555
:1011A0004AD009F104000168C1F38101012908D086
:1011B0000068C0F3810002280AD1D9F8000040027B
:1011C00006D52868800337D560680028E1D033E071
:1011D0006068B0F5803F10D0B0F5A02F286810D01F
:1011E00020F480302860286820F48020286060681F
:1011F000A8B1FFF7EFFC06460DE0286840F4803008
:10120000F4E740F480202860F7E700BFFFF7E2FC36
:10121000801B642873D828688003F7D50CE0FFF79B
:10122000D9FC064605E000BFFFF7D4FC801B64280C
:10123000F0D828688003F7D42078DFF8AC828007E4
:101240004FF0000A3ED5A748001D016811F00C0FB1
:1012500008D00068C0F3810002280BD1D9F8000043
:10126000400207D42868800716D5E068012800D11D
:1012700012E033E1E068B8B10120C8F80000FFF7E0
:10128000A9FC064605E000BFFFF7A4FC801B02286E
:10129000C0D828688007F7D52868216920F0F800B1
:1012A00040EAC10028600DE0C8F800A0FFF792FCFA
:1012B000064604E0FFF78EFC801B02281FD8286832
:1012C0008007F7D42078000722D5864F87486169C8
:1012D000703771B101210160FFF77CFC064604E024
:1012E000FFF778FC801B022809D838688007F7D5FB
:1012F0000EE0C0F800A0FFF76DFC064605E082E0B6
:10130000FFF768FC801B02287DD838688007F7D477
:101310002078400768D5DFF8CCB100270BF13C0BF3
:10132000DBF80000C0000BD4DBF8001041F0805166
:10133000CBF80010DBF80000012700F0805000908F
:101340006B4E3068C00510D4306840F48070306057
:10135000FFF740FC009005E0FFF73CFC0099401AC5
:10136000022850D83068C005F6D55E4EA0686C36AD
:1013700001280FD00528306810D020F0010030601F
:10138000306820F004003060A068B8B1FFF722FC9C
:1013900000900FE0306840F00100F4E740F00400F6
:1013A0003060F7E7FFF716FC0099411A41F28830E8
:1013B000814266D830688007F4D50EE0FFF70AFC5A
:1013C000009007E0FFF706FC0099411A41F28830CF
:1013D000814256D830688007F4D42FB1DBF8001072
:1013E00021F08051CBF80010A069C8B33D49091D18
:1013F0000968C1F3810102294AD00228504607D06A
:10140000C8F8600000E03CE0FFF7E4FB04463BE086
:101410004746C8F86000FFF7DDFB064605E000BF61
:10142000FFF7D8FB801B02282BD828688001F7D44F
:10143000D4E907010843A16A2E4A490802EB014199
:10144000626A41EA8211084394F82C1040EA016173
:10145000C9F8001001203866FFF7BCFB044606E01F
:101460003EE000BFFFF7B6FB001B022809D8286842
:101470008001F7D534E000BFFFF7ACFB001B02286A
:1014800002D90320BDE8F88F28688001F4D427E052
:101490000128F7D0D9F80000E26900F480019142F8
:1014A0001CD1226A00F03F01914217D147F6C0716A
:1014B000626A0140B1EB821F10D1A26A4FF0FF3384
:1014C00000F4403103EB5202B1EB024F06D194F825
:1014D0002C1000F07060B0EB016F01D00120D1E75B
:1014E0000020CFE70438024000004742800E474208
:1014F000007000400000FFFF10B5401EB0F1807F7B
:1015000001D3012010BD4FF0E02460610F2160176E
:1015100002F0C1F80020A06107202061002010BD6A
:101520007047704770B590F83C20012A32D00124F2
:1015300080F83C40022280F83D2003685A689D688C
:1015400022F070060A6832435A60134B02689A42CE
:1015500014D0B2F1804F11D0104B9A420ED0104BE4
:101560009A420BD00F4B9A4208D00F4B9A4205D0AB
:101570000E4B9A4202D00E4B9A4204D1496825F094
:1015800080031943916080F83D40002180F83C10B1
:10159000084670BD022070BD0000014000040040FC
:1015A00000080040000C00400004014000400140E1
:1015B0000018004010B5040003D094F83D0010B1AD
:1015C00007E0012010BD002084F83C00204600F018
:1015D0001FF8022084F83D00211D206801F0D0FC96
:1015E000012084F8460084F83E0084F83F0084F827
:1015F000400084F8410084F8420084F8430084F8F5
:10160000440084F8450084F83D00002010BD00002F
:1016100010B586B0044614216846FEF709FE504B0B
:10162000226800204F499A4224D10A6842F0010200
:101630000A60096801F0010105914A4914390A68F4
:1016400042F010020A60096801F010010591591476
:1016500000910221CDE90110039001200490694618
:101660004148FFF7B1F9002211461920FFF770FC3D
:10167000192012E03B483D4B001F9A4211D10168EE
:1016800041F0020101600068002200F002000590B4
:1016900011461D20FFF75CFC1D20FFF74BFC06B038
:1016A00010BD334B9A420ED1016841F00401016034
:1016B0000068002200F00400059011461E20FFF78C
:1016C00047FC1E20E9E72B4B9A420ED1016841F0FE
:1016D000080101600068002200F008000590114632
:1016E0003220FFF735FC3220D7E7234B9A420ED148
:1016F000016841F0100101600068002200F0100054
:10170000059011463620FFF723FC3620C5E71B4B1A
:101710009A420ED1016841F0200101600068002268
:1017200000F02000059011463720FFF711FC37200C
:10173000B3E71348824207D1086840F4803008605C
:10174000086800F4803009E00E488242A7D108689A
:1017500040F480200860086800F4802005909EE72F
:1017600000000140443802400010024000040040E4
:1017700000080040000C0040001000400014004031
:10178000004001400048014090F83D10012901D07F
:1017900001207047022180F83D100168CA6842F0BC
:1017A0000102CA6000681149884214D0B0F1804F2C
:1017B00011D00F4988420ED00E4988420BD00E49F5
:1017C000884208D00D49884205D00D49884202D090
:1017D0000C49884204D1816801F00701062903D031
:1017E000016841F0010101600020704700000140E4
:1017F0000004004000080040000C004000040140CC
:10180000004001400018004070B5044690F83C00CC
:101810000025012817D0012684F83C60022084F8B6
:101820003D002068826822F0770222F47F428260C5
:101830000868502838D00DDC20284FD005DC90B344
:10184000102811D14AE0022070BD302846D040282F
:101850000AD13BE060282FD070280DD0B0F5805F12
:1018600003D0B0F5005F12D0012584F83D60002060
:1018700084F83C00284670BDCB68D1E9012120687E
:1018800001F0E6FB2068816841F0770109E0CB6850
:10189000D1E90121206801F0DBFB2068816841F477
:1018A00080418160E1E719E0CA684968206801F079
:1018B000A3FC5021206806E0CA684968206801F04E
:1018C000EDFC6021206801F0CDFBCEE7CA684968D5
:1018D000206801F091FC40212068F4E7226801466D
:1018E0001046F0E72DE9F0410D46040003D094F8CE
:1018F0003D0018B108E00120BDE8F081002084F827
:101900003C00204600F040F8022084F83D002068AA
:10191000816844F2070291438160211D206801F033
:101920002FFB226890689169166A2B68AF690343A0
:1019300040F20330814341EA0721A868EF69084378
:101940004FF6FC418843E96840EA072001432869D3
:101950002F6A000140EA0730084369686D6926F084
:10196000AA0646EA0515294393602268906154F857
:10197000460B0162012004F81F09E0752076E0762D
:101980002077A0750020B7E770B586B00446142113
:101990006846FEF74DFC216800242F480225B1F16E
:1019A000804F21D02D4A91421CD12B4914310A6815
:1019B00042F002020A60096801F002010591016823
:1019C00041F0040101600068694600F004000590E0
:1019D000C0200090CDE901540320CDE90340204808
:1019E000FEF7F2FF06B070BD1B4910310A6842F0E5
:1019F00001020A60096801F001010591016841F0E6
:101A000001010160016801F001010591016841F0E7
:101A1000020101600068012600F00200059020200C
:101A20000090CDE90154CDE9034669460D48FEF723
:101A3000CBFF08200090CDE90154CDE9034669466B
:101A40000948FEF7C1FF002211461C20FFF780FA6B
:101A50001C20FFF76FFAC5E7303802400004014050
:101A600000080240000002400004024070472DE9D7
:101A7000F041054690F83C0000260C46012810D0A5
:101A8000012085F83C0072B1042A1CD0082A2CD011
:101A90000C2A50D00126002085F83C003046BDE8D5
:101AA000F0810220FBE7D4E90012E368286801F026
:101AB000B5FB2868816921F00C0181612868816982
:101AC000A26811430FE0D4E90012E368286801F02E
:101AD000F7FB2868816921F4406181612868816988
:101AE000A26841EA02218161D5E72868D4E9002C87
:101AF000277B036A016A21F480710162C16923F4C2
:101B0000206321F0030141EA0C0121F0F00C3907B8
:101B10004FF420674CEA116107EA02221A43C161BF
:101B200002622868C16921F00C01C1612868C1699D
:101B3000A26811432BE02868D4E90021E768036A12
:101B4000D0F820C02CF4805CC0F820C0D0F81CC0B5
:101B500023F420432CF4407C4CEA012121F4704C06
:101B60004FF6FF7101EA07314FF4204741EA0C01BB
:101B700007EA02321A43C16102622868C16921F48E
:101B80004061C1612868C169A26841EA0221C1615E
:101B900081E710B5040003D094F83D0010B107E0D0
:101BA000012010BD002084F83C00204600F01EF803
:101BB000022084F83D00211D206801F0E1F9012098
:101BC00084F8460084F83E0084F83F0084F8400022
:101BD00084F8410084F8420084F8430084F844000B
:101BE00084F8450084F83D00002010BD70472DE9C1
:101BF000F04104460068C66805694FF00007A90770
:101C000013D5B10711D5F91E016101202077206895
:101C100080698007204602D0FFF728FF04E000F02B
:101C2000EBF8204600F07DF92777680716D5700796
:101C300014D521686FF00400086102202077206825
:101C4000806910F4407F204602D0FFF70FFF04E0C8
:101C500000F0D2F8204600F064F92777280715D560
:101C6000300713D521686FF0080008610420207741
:101C70002068C0698007204602D0FFF7F7FE04E025
:101C800000F0BAF8204600F04CF92777E80616D5A0
:101C9000F00614D521686FF0100008610820207745
:101CA0002068C06910F4407F204602D0FFF7DEFEB6
:101CB00004E000F0A1F8204600F033F92777E807A8
:101CC00008D0F00706D021686FF0010008612046B7
:101CD00000F028F9280608D5300606D521686FF0EF
:101CE000800008612046FFF71BFC680608D57006D7
:101CF00006D521686FF040000861204600F013F916
:101D0000A8060AD5B00608D521686FF02000086142
:101D10002046BDE8F041FFF704BCBDE8F0810000BB
:101D200070B586B0044614216846FEF781FA2A4A47
:101D30002168002429480225032691421FD1016809
:101D400041F001010160016801F0010105910168A4
:101D500041F0020101600068694600F00200059050
:101D6000C0200090CDE901541D48CDE90345FEF7A0
:101D70002BFE0096CDE9015469461A4811E01A4A33
:101D8000914215D1016841F008010160006869467F
:101D900000F0080005904FF470400090CDE9015428
:101DA0001248CDE9034500BFFEF70EFE06B070BD38
:101DB0000F4A9142FAD1016841F0100101600068B8
:101DC000694600F01000059060200090CDE90154B4
:101DD000CDE903460748E7E70004004030380240F9
:101DE000000002400004024000080040000C0240D5
:101DF0000040014000100240704770B5044690F862
:101E00003C0000260D4601280FD0012084F83C003C
:101E10006AB1042A1DD0082A2FD00C2A3FD00126EF
:101E2000002084F83C00304670BD022070BD206860
:101E300001F020F92068816941F008018161206882
:101E4000816921F004018161206881692A69114357
:101E500011E0206801F03EF92068816941F40061D9
:101E600081612068816921F48061816120688169D4
:101E70002A6941EA02218161D2E7206801F060F914
:101E80002068C16941F00801C1612068C16921F081
:101E90000401C1612068C1692A69114311E0206809
:101EA00001F082F92068C16941F40061C1612068D4
:101EB000C16921F48061C1612068C1692A6941EA70
:101EC0000221C161ACE710B5040003D094F83D00D5
:101ED00010B107E0012010BD002084F83C0020462E
:101EE00000F01EF8022084F83D00211D206801F05A
:101EF00047F8012084F8460084F83E0084F83F004B
:101F000084F8400084F8410084F8420084F84300DB
:101F100084F8440084F8450084F83D00002010BD9A
:101F2000704770477047704770477047F8B5016851
:101F300004460868CA684B6910F00F0F4FF000059F
:101F400059D003F0010602F49077374365D0C107FA
:101F500005D0D10503D5616C41F0010161644107F1
:101F600005D5D90703D0616C41F002016164810796
:101F700005D5D90703D0616C41F004016164010704
:101F800007D502F02001314303D0616C41F0080114
:101F90006164616C00293AD0800604D5900602D5B0
:101FA000204601F0E3F920684069616CC0F38010BD
:101FB000090700D460B3204601F0B1F920684069F8
:101FC000400621D52068143050E8001F21F0400160
:101FD00040E80012002AF5D1E06BA8B17249016512
:101FE000E06BFEF792FB002811D0E06B016D01B0B1
:101FF000BDE8F040084783060FD593060DD520466F
:10200000BDE8F84001F0B2B92046FFF78EFFF8BDF9
:102010002046FFF78AFF6564F8BD266B2023012E5A
:102020007ED1C6067CD5D6067AD508684868009069
:1020300048694FF0020640064DD5E26B10684068D3
:102040004FF480770004000C3AD0A18D814237D93B
:10205000E085D069B8422DD020680C3050E8001FD0
:1020600021F4807140E80012002AF5D12068143074
:1020700050E8001F21F0010140E80012002AF5D1CC
:102080002068143050E8001F21F0400140E80012A1
:10209000002AF5D184F84230256320680C3050E8DE
:1020A000001F21F0100140E80012002AF5D1E06B7A
:1020B000FEF7E2FA6663A08DE18D401A81B206E078
:1020C000A18D8142A8D1D069B842A5D166632046CE
:1020D000FFF72AFFF8BDA08DE18D401A81B2E08D97
:1020E0000028F7D00029F5D020680C3050E8002FE8
:1020F00022F4907240E80027002FF5D120681430B8
:1021000050E8002F22F0010240E80027002FF5D10F
:1021100084F84230256320680C3050E8002F00E03E
:1021200006E022F0100240E80023002BF3D1CDE7B7
:1021300005062BD5150629D594F841002128C9D1CB
:10214000A068B0F5805F01D12069B0B1206A411C60
:102150002162216800784860E08C401E0004000C79
:10216000E084B7D12068C16821F08001C160206897
:10217000C16841F04001C160F8BD206A0088C0F329
:1021800008004860206A801C2062E5E74006F3D51D
:102190005006F1D5CA68204622F04002CA6084F891
:1021A000413000F0BBF9F8BD1133000870B50400F0
:1021B00004D094F84100002510B106E0012070BD64
:1021C00084F84050204600F023F8242084F8410091
:1021D0002068C16821F40051C160204601F028F94F
:1021E0002068016921F4904101612068416921F072
:1021F0002A0141612068C16841F40051C1606564F1
:10220000202084F8410084F842006563002070BDFE
:102210002DE9F04387B0064614216846FEF708F81A
:102220008848DFF81CC23368864910380225032726
:10223000854A00244FF00808634520D10B6843F419
:1022400000230B60096801F400210591016841F049
:1022500004010160006802AB00F004000590B802C0
:10226000CDE9000583E8900169461046FEF7ACFB16
:10227000002211463420FEF76BFE342038E0DFF8F0
:10228000CCC1DFF8CC91634537D10B6843F48013A0
:102290000B60096801F480110591016841F00401A7
:1022A0000160016801F004010591016841F0080135
:1022B0000160006802AB00F0080005904FF4805008
:1022C000CDE9000583E8900169461046FEF77CFBE6
:1022D0000420CDE9000502AB694683E89001484639
:1022E000FEF772FB002211463520FEF731FE352045
:1022F000FEF720FE07B0BDE8F083DFF858C10722E3
:10230000634553D14F49091D0B6843F010030B601F
:10231000096801F010010591016841F001010160B7
:102320000068029400F0010005904FF4C060CDE910
:102330000005CDE9037269464748FEF745FB484D65
:1023400046484FF000672860C5E901744FF4806883
:10235000C5E903486C61AC61EC612C6228466C6293
:10236000FEF7B6FA08B1FEF784F8F563AE633C4DAC
:102370003A4860357830E5E802074020A5E81101C9
:10238000374845F814496030AC61EC612C626C62EE
:10239000FEF79EFA08B1FEF76CF8B563002211460D
:1023A0002520AE63FEF7D4FD2520A1E72D4EB342D4
:1023B00020D10B6843F400330B60096801F400314D
:1023C0000591016841F0080101600068029400F085
:1023D000080005906020CDE90005CDE9037269464B
:1023E0004846FEF7F1FA002211462620FEF7B0FD1E
:1023F00026207DE71C4EB3427FF47CAF0B6843F48C
:1024000080230B60096801F480210591016841F087
:10241000080101600068029400F0080005904FF484
:102420004070CDE90005CDE9037269464846FEF7E4
:10243000CBFA002211462720FEF78AFD272057E716
:10244000004C00404038024000080240005000406C
:10245000000C0240001001400000024040640240B5
:1024600050080020004400400048004090F84230EE
:10247000202B01D00220704721B11AB10023036341
:1024800001F05CB80120704770B5054600681A4934
:102490001A4C884207D1012221461948FFF7E6FF6E
:1024A000207801F0F9F917492868884223D1FEF70E
:1024B00091FB6168144A451A00231449642D04D81D
:1024C00015786A2D02D10D7805B10B701578104E74
:1024D0000A78B554521CD2B20A706060102A03D335
:1024E0000C4A012010700B70BDE8704001220649B3
:1024F0000948FFF7BBBF70BD004800407C000020CA
:1025000008080020004C00407400002072000020E9
:102510009C02002073000020E80600207047FEE7C0
:102520007FB5002415480094019402941249039445
:1025300001604FF48031C0E901140461047680F831
:1025400020400F49C0E90A140125C561C46080F824
:1025500030404561FEF736F808B1FDF78AFFCDE956
:102560000045694605480294FDF786FF002801D022
:10257000FDF77FFF7FBD000000220140D402002054
:102580000100000F0D4808B5016841F480010160A9
:102590000068002200F48000009011463A20FEF707
:1025A000D7FC3A20FEF7C6FC002211464620FEF773
:1025B000CFFCBDE808404620FEF7BCBC30380240E6
:1025C0002DE9F04F87B014216846FDF731FE4F48E2
:1025D0000024016841F010010160016801F0100160
:1025E0000591016841F004010160016801F00401F6
:1025F0000591016841F020010160016801F02001AE
:102600000591016841F080010160016801F08001DD
:102610000591016841F001010160016801F00101CB
:102620000591016841F002010160016801F00201B9
:102630000591016841F040010160016801F040012D
:102640000591016841F0080101600068DFF8C09061
:1026500000F008000590002280214846FEF7B4FAF9
:10266000DFF8B0A0002210215046FEF7ADFA40F688
:10267000FF76002231462848FEF7A6FADFF89CB024
:102680004FF48047002239465846FEF79DFA4FF432
:102690007F48002241462248FEF796FA80200090AB
:1026A0000125CDE90154694648460394FEF78CF9AB
:1026B00010200090CDE90154694650460394FEF77E
:1026C00083F90096CDE90154694613480394FEF757
:1026D0007BF90097CDE90154694658460394FEF70B
:1026E00073F9CDF80080CDE9015469460C48039494
:1026F000FEF76AF94FF470408DE8310069460648EC
:10270000FEF762F907B0BDE8F08F000030380240F4
:102710000014024000000240001802400010024075
:10272000000402400D4810B50B4901600C4941609E
:1027300000214FF480428160C0E903124161816150
:10274000C1610162FEF74CFA002803D0BDE81040D9
:10275000FDF78FBE10BD0000005400401C03002098
:10276000A08601000D4810B50B4901600C4941607D
:1027700000214FF480428160C0E903124161816110
:10278000C1610162FEF72CFA002803D0BDE81040B9
:10279000FDF76FBE10BD0000005800407003002020
:1027A000A08601000D4810B50B4901600C4941603D
:1027B00000214FF480428160C0E9031241618161D0
:1027C000C1610162FEF70CFA002803D0BDE8104099
:1027D000FDF74FBE10BD0000005C0040C4030020A8
:1027E000A08601000B4810B50949016000214FF691
:1027F000FF724160C0E9021201618161FEF7DAFEF9
:10280000002803D0BDE81040FDF733BE10BD000026
:1028100000480140A006002010B58AB000242748D7
:1028200004940594069407940894099400940194E0
:10283000029421490394C0E900144FF6FF71C0E9E6
:102840000241046144618461FEF7B4FE08B1FDF702
:1028500010FE4FF48050049004A91848FEF7D4FFEE
:1028600008B1FDF706FE1548FFF793F908B1FDF72B
:1028700000FE089408A911480994FEF753FE08B118
:10288000FDF7F7FD0120CDE90040029408226946DA
:102890000A480394FFF7EBF808B1FDF7EAFD0220C0
:1028A00001900C2269460548FFF7E1F8002801D0A5
:1028B000FDF7DFFD0AB010BD000001401804002044
:1028C00010B58CB024216846FDF7B2FC00241548F1
:1028D00009944FF080410A94C0E90014611EC0E9D8
:1028E0000241046184610320CDE900040120CDE9A7
:1028F00002040494CDE90540079469460948089408
:10290000FEF7F0FF08B1FDF7B4FD099409A90548E9
:102910000A94FEF707FE002801D0FDF7AAFD0CB0CF
:1029200010BD00006004002010B58EB00024079494
:10293000089409940A940B941C2168460C94FDF7A2
:1029400077FC2A48284901605321C0E901144FF45B
:102950007A71C0E903148461FEF72CFE08B1FDF71B
:1029600088FD4FF48050079007A92048FEF74CFFE0
:1029700008B1FDF77EFD1D48FFF7A5FA08B1FDF788
:1029800078FD0B940BA919480C94FEF7CBFD08B108
:10299000FDF76FFD6020CDE9000402940022694636
:1029A00012480494FFF729FA08B1FDF762FD0422EA
:1029B00069460E48FFF721FA08B1FDF75AFD0822D3
:1029C00069460A48FFF719FA08B1FDF752FD0C22D3
:1029D00069460648FFF711FA08B1FDF74AFD0348BA
:1029E000FFF79EF90EB010BD00040040A8040020BF
:1029F00010B58EB000240794089409940A940B949F
:102A00001C2168460C94FDF713FC2A482849C0E9AC
:102A100000144FF6FF71C0E9024104618461FEF7C2
:102A2000C9FD08B1FDF725FD4FF48050079007A9B7
:102A30002048FEF7E9FE08B1FDF71BFD1D48FFF732
:102A400042FA08B1FDF715FD0B940BA919480C9437
:102A5000FEF768FD08B1FDF70CFD6020CDE900042C
:102A600002940022694613480494FFF7C6F908B19E
:102A7000FDF7FFFC042269460E48FFF7BEF908B1D6
:102A8000FDF7F7FC082269460A48FFF7B6F908B1D6
:102A9000FDF7EFFC0C2269460648FFF7AEF908B1D6
:102AA000FDF7E7FC0348FFF73BF90EB010BD00004F
:102AB00000080040F004002010B586B0002417483C
:102AC00000940194029403940494134905940160C2
:102AD0005321C0E901146321C0E9031480218161FD
:102AE000FEF768FD08B1FDF7C4FC4FF4805000907C
:102AF00069460A48FEF788FE08B1FDF7BAFC04945F
:102B000004A906480594FEF70DFD002801D0FDF745
:102B1000B0FC06B010BD0000000C004038050020DD
:102B20001CB500240E4800940C4901940160532107
:102B3000C0E9011463218461C160FEF73BFD08B167
:102B4000FDF797FC0094694605480194FEF7EAFCFE
:102B5000002801D0FDF78DFC1CBD000000100040D6
:102B6000800500201CB500240E4800940C490194F7
:102B700001605321C0E901144FF6FF718461C16007
:102B8000FEF718FD08B1FDF774FC0094694605488E
:102B90000194FEF7C7FC002801D0FDF76AFC1CBDBC
:102BA00000140040C805002010B58CB024216846F0
:102BB000FDF73EFB00241648099414490A94C0E925
:102BC00000144FF6FF71C0E9024104614461846161
:102BD0000120CDE90004CDE902040494CDE90540CB
:102BE000079469460A480894FEF77CFE08B1FDF791
:102BF00040FC099409A906480A94FEF793FC0028B2
:102C000001D0FDF736FC0CB010BD000000040140FF
:102C10001006002010B58CB0002407940894099485
:102C20001C2168460A94FDF703FB1D481B49C0E9B7
:102C300000144FF6FF71C0E9024104618461FEF7A0
:102C4000B9FC08B1FDF715FC4FF48050079007A9B7
:102C50001348FEF7D9FD08B1FDF70BFC1048FFF74C
:102C600032F908B1FDF705FC6020CDE900040294BB
:102C7000002269460A480494FFF7BFF808B1FDF73F
:102C8000F8FB042269460648FFF7B7F808B1FDF7DC
:102C9000F0FB0348FFF744F80CB010BD00400140C2
:102CA000580600200C4810B50A4901604FF4E13184
:102CB0004160002181600C22C160C0E90412816181
:102CC000C161FFF773FA002803D0BDE81040FDF79B
:102CD000D0BB10BD004C0040E80600200C4810B5E9
:102CE0000A4901604FF4E1314160002181600C220A
:102CF000C160C0E904128161C161FFF757FA002881
:102D000003D0BDE81040FDF7B4BB10BD005000403B
:102D1000300700200C4810B50A4901604FF41651E5
:102D20004160002181600C22C160C0E90412816110
:102D3000C161FFF73BFA002803D0BDE81040FDF762
:102D400098BB10BD00100140780700200C4810B55A
:102D50000A4901604FF416514160002181600C2244
:102D6000C160C0E904128161C161FFF71FFA002848
:102D700003D0BDE81040FDF77CBB10BD004400400F
:102D8000C00700200C4810B50A4901604FF41651E5
:102D90004160002181600C22C160C0E904128161A0
:102DA000C161FFF703FA002803D0BDE81040FDF72A
:102DB00060BB10BD0048004008080020FEE7FEE7A9
:102DC00070477047FEF75CB830B593B03021684665
:102DD000FDF72EFA14210CA8FDF72AFA1D4800254C
:102DE000016841F080510160006800F0805011904E
:102DF0001948016841F4804101600068022400F430
:102E000080401190012003901020049000940694BB
:102E10000820CDE90750A820CDE9090404200B9033
:102E20006846FEF7B3F908B172B6FEE70CA90F20A9
:102E300081E831004FF4A0500F904FF48050109073
:102E400005210CA8FEF7B6F8002801D072B6FEE7FF
:102E500013B030BD403802400070004002480168A5
:102E600041F470010160704788ED00E00148FEF711
:102E7000BEBE0000180400200148FEF7B8BE0000E6
:102E8000600400200148FEF7B2BE0000A804002044
:102E90000148FEF7ACBE0000F00400200148FEF738
:102EA000A6BE00003805002010B51148FEF79FFEB1
:102EB0001049114C0878401C08702068002815D073
:102EC00020210E48FDF778FE0D4801680D480029C5
:102ED00002DC2268002A02DD0168491C05E00029A5
:102EE00001DB002A02DA0168491E016010BD000002
:102EF00080050020710000206400002000180240BE
:102F00005C0000206C00002070B51748FEF76FFED3
:102F10001649174D174C0878401C08702868A0B156
:102F200004211548FDF748FE14480068002802DC1B
:102F30002968002902DD2068401C05E0002801DB2B
:102F4000002902DA2068401E2060206840F25461A7
:102F5000884203DA42F6EA11C84201DC002000E0B0
:102F60002868286070BD0000C8050020700000209F
:102F70006000002068000020001802405800002077
:102F8000F0B50268274B284D284E294F294C4FF0A9
:102F9000804C984209D0604507D0A84205D0B04285
:102FA00003D0B84201D0A04204D122F0700E4A688A
:102FB00042EA0E0298421BD0604519D0A84217D0B1
:102FC000B04215D0B84213D0A04211D01A4DA84239
:102FD0000ED01A4DA8420BD0194DA84208D0194D59
:102FE000A84205D0184DA84202D0184DA84203D1DE
:102FF00022F44075CA682A434D6922F080022A43B0
:103000008D68C5620D688562984201D0A04201D1E9
:1030100009690163016841F0040101600121416116
:103020000260F0BD000001400004004000080040C4
:10303000000C0040000401400040014000440140F9
:103040000048014000180040001C004000200040E3
:1030500010B5846842EA032224F47F440A432243E1
:10306000826010BD826822F070020A4342F00701BC
:1030700081607047F0B5036A026A22F001020262C1
:1030800042688469124E24F073050C682C4323F0C7
:1030900002058B682B430D4DA84201D0B04205D1EB
:1030A00023F00807CB683B4323F00403A84201D078
:1030B000B04205D14D6922F4407215438A692A4312
:1030C00042608461496841630362F0BD00000140D1
:1030D00000040140F0B5026A036A23F010030362A2
:1030E000436884690D6824F4E64444EA05248D6845
:1030F00022F0200242EA05120F4D104EA84201D0E4
:10310000B04206D1CF6822F0800242EA071222F0D4
:103110004002A84201D0B04207D14D6923F4406378
:1031200043EA85038D6943EA850343608461496806
:1031300081630262F0BD0000000001400004014014
:10314000F0B5026A036A23F4807303624368C469BA
:1031500022F4007224F073050C68124E2C438D6823
:1031600042EA05220E4DA84201D0B04206D1CF68F6
:1031700022F4006242EA072222F48062A84201D0CF
:10318000B04207D14D6923F4405343EA05138D69DA
:1031900043EA05134360C4614968C1630262F0BD3C
:1031A000000001400004014030B5046A026A22F4C4
:1031B000805202624268C3690D6823F4E64343EA21
:1031C00005238D6824F4005444EA0534084DA842D0
:1031D00002D0084DA84204D14D6922F4804242EA4F
:1031E00085124260C36149680164046230BD000019
:1031F000000001400004014010B5036A046A24F095
:1032000001040462846924F0F00444EA021423F007
:103210000A020A438461026210BD000070B5056AAB
:10322000046A24F0010404628469154EB04214D08B
:10323000B0F1804F11D0134EB0420ED0124EB042BA
:103240000BD0124EB04208D0114EB04205D0114EF4
:10325000B04202D0104EB04203D124F00304144314
:1032600001E044F001041A0724F0F00444EA126279
:1032700025F00A0301F00A0119438261016270BD61
:10328000000001400004004000080040000C004025
:1032900000040140004001400018004010B5036ADE
:1032A000046A24F010040462846923F0A00324F467
:1032B000704444EA023243EA01118261016210BDA6
:1032C00030B5046A056A25F010050562856925F4A4
:1032D000407545EA022222F470454FF6FF7202EA79
:1032E000033224F0A0032A43A02404EA0111194365
:1032F0008261016230BD00000148FEF717BE000088
:10330000E80600200148FEF711BE0000300700204B
:1033100010B5806B0021C185FEF707FE10BD016866
:103320000C3151E8002F22F4907241E80023002B69
:10333000F5D10168143151E8002F22F0010241E873
:103340000023002BF5D1016B012909D101680C3153
:1033500051E8002F22F0100241E80023002BF5D1A4
:10336000202180F8421000210163704708B590F8D1
:103370004210222901D0022008BD82684FF48053F8
:103380009A4201D1016921B1816A9A421BD04AB1A6
:103390000AE00268816A5268C2F308020A80816A00
:1033A000891C08E0026972B10268526802F07F026B
:1033B0000A70816A491C8162C18D491E0904090C89
:1033C000C18503D01BE002685268F1E70168CA6852
:1033D00022F02002CA600168CA6822F48072CA60C2
:1033E00001684A6922F001024A61202180F84210F6
:1033F00000214163026B012A03D0FFF745F800204A
:1034000008BD016301680C3151E8002F22F0100261
:1034100041E80023002BF5D101680A68D20602D5E5
:103420000A6849680091818DFEF77EFDE7E700009C
:1034300070B5044600680169E26821F44051114307
:1034400001612169A068E269084361691143084389
:103450002168CA6849F20C639A430243CA60206833
:103460004169A26921F440711143416131492068E9
:10347000884202D03049884202D1FDF745FE01E082
:10348000FDF732FEE2690023192164253226B2F5E8
:10349000004F626828D0A0FB0101930F9200FCF757
:1034A0008FFE0146B0FBF5F06FF01802504301EBC0
:1034B000800006EB0010B0FBF5F000F0F002B1FB6D
:1034C000F5F002EB0012B1FBF5F06FF01803584372
:1034D00001EB800006EB0010B0FBF5F000F00F00F0
:1034E00021681044886070BDA0FB010192185B4107
:1034F000FCF766FE0146B0FBF5F00201B1FBF5F00A
:103500006FF01803584301EB800006EBC000B0FBDE
:10351000F5F000F0F80002EB4002B1FBF5F0584383
:1035200001EB800006EBC000B0FBF5F000F00700F7
:10353000D6E700000010014000140140816282853E
:10354000C28500214164222180F84210016921B125
:103550000168CA6842F48072CA6001684A6942F030
:1035600001024A610068C16841F02001C160002089
:103570007047000010B53A48FEF7D8FC05223949DB
:103580003748FEF773FF3748374C0178072944D096
:1035900013DC012923D002292BD0032933D004299D
:1035A0000AD10379C2788178407800F093F8BDEEB3
:1035B000C00A2E4880ED000A10BD082938D009291C
:1035C00041D01029F8D10379C2788178407800F091
:1035D00081F8BCEEC00A10EE100A607010BD0379CD
:1035E000C2788178407800F075F8BDEEC00A2048B6
:1035F000E0E70379C2788178407800F06BF8BDEE9F
:10360000C00A1C48D6E70379C2788178407800F078
:1036100061F8BDEEC00A1848CCE70379C27881781A
:10362000407800F057F8BDEEC00A84ED010A10BDE5
:103630000379C2788178407800F04CF8BDEEC00A7A
:1036400084ED020A10BD0379C2788178407800F0D9
:1036500041F8BCEEC00A10EE100A207010BD000048
:1036600078070020750000208400002064000020FE
:10367000580000205C000020600000200148FEF798
:1036800055BC0000C00700200148FEF74FBC0000F9
:1036900008080020FEE70907090E002804DB00F1F6
:1036A000E02080F80014704700F00F0000F1E020E7
:1036B00080F8141D704702E008C8121F08C1002AD4
:1036C000FAD170477047002001E001C1121F002AA3
:1036D000FBD1704710B560F3070461F30F2462F368
:1036E000174463F31F6400EE104A10BDFDF7D0FBD2
:1036F000FFF76AFBFEF764FFFEF744FFFEF710FFDB
:10370000FFF710F8FFF72EF8FFF74CF8FFF784F8F3
:10371000FFF7D6F8FFF708F9FFF76AF9FFF744FA61
:10372000FFF7C0FAFFF7DAFAFFF7F4FAFFF70EFB3C
:10373000FFF770FAFFF7F4F9FFF7BEF9FFF722FB86
:10374000FFF710FAFFF74EF8012215491548FEF76A
:103750008DFE1548FEF718F81448FEF715F800F02E
:103760002FF8052212491348FEF780FE1049012266
:10377000491E1148FEF77AFE104D4FF47A7401226B
:1037800080212846FDF720FA2046FDF70BF900229C
:1037900080212846FDF718FA2046FDF703F9EEE7E9
:1037A0007C0000200808002080050020C8050020BB
:1037B0007500002078070020E80600200014024071
:1037C00010B50F4C002208212046FDF7FDF900221C
:1037D00020212046FDF7F8F94FF4AA51012000F00E
:1037E00013F8002201212046FDF7EEF90022042102
:1037F0002046FDF7E9F9034900208860C86010BD44
:1038000000180240600000202DE9F0410025214E03
:103810000C460746012802D0022F1BD10BE00122E3
:1038200011463046FDF7D0F9002C01DD002200E002
:10383000012202210AE0012208213046FDF7C4F9E5
:10384000002C01DD012200E0002210213046FDF7AE
:10385000BBF92546B046002440F6320611E0012FA0
:1038600002D0022F06D101E0042100E020214046D1
:10387000FDF7A2F900BF00BF304600BF401EFCD2DA
:10388000641C2846FCF710FDB4EB400FE7DBBDE8F5
:10389000F08100000018024030B5384A38495378AA
:1038A0001370C854A1F58071C8545B1CDBB253700F
:1038B0000C780020552C5ED10B2B5DD300242346C1
:1038C000CD5C5B1C2C44E4B20A2BF9DB8B7AA3425F
:1038D00051D14B78503B0A2B4DD2DFE803F0050D58
:1038E000151D252D353B414751F8023FC2F80230E6
:1038F0004968C2F806103EE051F8023FC2F80A30AB
:103900004968C2F80E1036E051F8023FC2F8123092
:103910004968C2F816102EE051F8023FC2F81A307A
:103920004968C2F81E1026E051F8023FC2F8223062
:103930004968C2F826101EE051F8023FC2F82A304A
:103940004968C2F82E1016E051F8023F53634968E7
:10395000916310E051F8023FD363496811640AE0B3
:1039600051F8023F53644968916404E051F8023F02
:10397000D36449681165507030BD00000400002018
:103980009C01002000000000000000000102030470
:1039900006070809000000000102030400061016D3
:1039A00000061016C4390008000000209C0000002A
:1039B000B6360008603A00089C000020740C000035
:1039C000C63600080024F4000000000000000000DB
:1039D00000000000000000000000000000000000E7
:1039E00000000000000000000000000000000000D7
:1039F00000000000000000000000000000000000C7
:103A000000000000000000000000000000000000B6
:103A100000000000000000000000000000000000A6
:103A20000000000000000000000000000000000096
:103A30000000000000000000000000000000000086
:103A40000000000000000000000000000000000076
:103A50000000000001000000100000000000000055
:040000050800018965
:00000001FF
